:0200000460009A
:100000004643464200000156000000000103030081
:1000100000000000000000000000000000000000E0
:1000200000000000000000000000000000000000D0
:1000300000000000000000000000000000000000C0
:1000400000000000010408000000000000000000A3
:100050000000800000000000000000000000000020
:100060000000000000000000000000000000000090
:100070000000000000000000000000000000000080
:10008000EB04180A063204260000000000000000FD
:10009000050404240000000000000000000000002F
:1000A0000000000000000000000000000000000050
:1000B0000604000000000000000000000000000036
:1000C0000000000000000000000000000000000030
:1000D00020041808000000000000000000000000DC
:1000E0000000000000000000000000000000000010
:1000F0000000000000000000000000000000000000
:10010000D8041808000000000000000000000000F3
:100110000204180804200000000000000000000095
:1001200000000000000000000000000000000000CF
:10013000600400000000000000000000000000005B
:1001400000000000000000000000000000000000AF
:10015000000000000000000000000000000000009F
:10016000000000000000000000000000000000008F
:10017000000000000000000000000000000000007F
:10018000000000000000000000000000000000006F
:10019000000000000000000000000000000000005F
:1001A000000000000000000000000000000000004F
:1001B000000000000000000000000000000000003F
:1001C000000100000010000001000000000000001D
:1001D000000001000000000000000000000000001E
:1001E000000000000000000000000000000000000F
:1001F00000000000000000000000000000000000FF
:10020000FFFFFFFFFFFFFFFFFFFFFFFFFFFFFFFFFE
:10021000FFFFFFFFFFFFFFFFFFFFFFFFFFFFFFFFEE
:10100000D10020432914006000000000000000000F
:10101000201000600010006000C4046000000000A8
:101020000000006000D0040000000000FFFFFFFF90
:10103000FFFFFFFFFFFFFFFFFFFFFFFFFFFFFFFFC0
:10104000FFFFFFFFFFFFFFFFFFFFFFFFFFFFFFFFB0
:10105000FFFFFFFFFFFFFFFFFFFFFFFFFFFFFFFFA0
:10106000FFFFFFFFFFFFFFFFFFFFFFFFFFFFFFFF90
:10140000884207D0904205D251F8043B40F8043B93
:101410008242F9D8704700BF884204D2002340F8C6
:10142000043B8142FBD87047664B4FF42A01664A61
:1014300066482DE9F0475A641864654A99639546F1
:10144000BFF34F8FBFF36F8F00F01EFA614B082080
:10145000614A6249C3F854016148FFF7D1FF614A0C
:1014600061496248FFF7CCFF61496248FFF7D4FF4A
:10147000614C62494FF470000023614A086044F8EF
:1014800023200133B02BFAD15E4B80215E4A03F852
:10149000011B9342FBD14F4D4FF080385B494FF019
:1014A000FF325B4B0026DFF8A4A1DFF8A4911C609B
:1014B000C5F80481C5F800A1C5F8F480C5F8F0901E
:1014C0000B68544F43F4E0230B60FB693D4923F064
:1014D0007F0343F04003FB617B6A23F07F0343F00B
:1014E00040037B628A66CA660A674A6700F0D2F9DF
:1014F000494A4A4B6320A2630321E363484A494BAC
:10150000106000F160401E6042F8041C00F6A170FB
:101510004549464AC3F8082D0B68454A43F0807395
:101520000B601368434943F00103136003680B60C9
:1015300000F000FCC5F804813F48C5F800A1C5F8DB
:10154000F480C5F8F09000F087FDF96E3B4A41F455
:1015500040513B4BF9661660C2F80861C2F8186149
:10156000C2F82861C2F838619A6BD20708D442F6F3
:101570001562344959651A659A6B42F001029A6303
:101580002F4A314C936843F00113936000F0F4F953
:1015900000F030FD00F06CFD00F0FEFB00F076F98D
:1015A0002368132BFCD900F085FC2368B3F5967FE4
:1015B000FBD300F06DF900F063FD00F05DFD30BF7E
:1015C000FDE700BF00C00A40FFFFABAA07002000F4
:1015D0000080032000800D4090070400F02300608D
:1015E00000000000C0760020464B04600000002090
:1015F00040E60020C07600200074002088ED00E066
:101600007933000000E400E0A0E400E024ED00E015
:1016100008ED00E000C00F40014800000548000050
:1016200014E000E018E000E0FCED00E00000202005
:10163000001000E05CE500200046C32300400840A5
:1016400000400D400000C05660E500201B1018202F
:101650000C0D11132DE9F041294F00254269012499
:10166000B96B4FF0020E16684FF4303821F47C014C
:101670000369DFF89CC041F48021B9633168576881
:10168000394331604FF001161E49C3F810E01D6167
:10169000C3F848C05C629962C3F82C809F6C1A49F9
:1016A0001F651D629E651C61037E184E02EB0315CB
:1016B0002C7A2B4601EB0414A46826602C7AED6882
:1016C00001EB0414646825601C690CB15B6923603C
:1016D000407E0E4C02EB001393F828001A4601EBF3
:1016E00000108068046093F82840D86A01EB041168
:1016F0004B681860136B0BB1526B1A60BDE8F08138
:1017000000C00F40B80B0505BC3E002061F8010089
:101710003B3728194369027E03EB0212F0B4147AB6
:101720008C4209D01A7AFF2A06D08A4228D01A7E23
:10173000FF2A01D08A4201D0F0BC704701252E4615
:1017400093E806000968114217D00F4A03EB06130D
:1017500005270E4E02EB041461680F60197A02EB44
:10176000011189680E601C7AD96802EB0412526874
:1017700011601A690AB15B6913600576F0BC7047A5
:1017800000252E46DCE700BFBC3E002061F80100CA
:1017900043690B4A03EB011010B4017A094C02EBC8
:1017A000011189680C60047AC16802EB0412526866
:1017B000116002690AB1436913605DF8044B704718
:1017C000BC3E002061F801004369427E03EB021237
:1017D000F0B492F828408C420BD093F82820FF2ACE
:1017E00007D08A422BD093F83820FF2A01D08A42B2
:1017F00001D0F0BC704701252E4693E80600096829
:10180000114219D00F4A03EB061305270E4E02EBC7
:10181000041461680F6093F8281002EB01118968C5
:101820000E6093F82840D96A02EB041252681160E6
:101830001A6B0AB15B6B13604576F0BC70470025EC
:101840002E46DAE7BC3E002061F8010043690C4AED
:1018500003EB011010B490F828100A4C02EB0111B0
:1018600089680C6090F82840C16A02EB0412526843
:101870001160026B0AB1436B13605DF8044B704753
:10188000BC3E002061F80100704700BF704700BFF8
:10189000704700BFF0B5244A0020244B4FF0100CD5
:1018A000234C1126DFF8C8E0122720600125C2F87A
:1018B00000C0C3F800E01660DFF8B8E01D4EC3F8C2
:1018C00000E01D4917601E6041F015011B4F1C4EC2
:1018D00017601E601B4F1C4E17601E601B4F11606F
:1018E0001B4E1C491F6016601B4F19601B4E1C4984
:1018F00017601E601B4F11601B4E1C491F60166055
:1019000019602560BFF34F8FBFF36F8FC3F8B0012D
:10191000BFF34F8FBFF36F8F52F8883C43F44033CF
:1019200042F8883CF0BD00BF9CED00E0A0ED00E077
:1019300094ED00E00900100040E6002013002000B4
:1019400021000207140000202500081309000010E0
:101950001600202027000B1317000040330010133F
:10196000180000602F000B07190000702F000B13E8
:101970003F00001025000803F0B58D4B18228D4E56
:1019800001208D4948F20C7E8C4D4FF0FF378C4C76
:1019900083B0C3F85C12C3F860520025C3F8641228
:1019A000C3F868424FF40054C3F86C628549C3F829
:1019B0007062C3F87462C3F87862834EDA661A679D
:1019C0005A679A67DA67C3F88020C3F88420C3F89F
:1019D000882040F20562C1F82C03C1F83003C1F839
:1019E0003403C1F83803C1F83C03C1F85003294659
:1019F000B36976481840764B03437648B361D6F80E
:101A0000843043F00C03C6F8843002260368334365
:101A10000360036803EA0E0E6F4B4EEA0303DFF820
:101A2000F0E103606D4B4760DEF808703B406C4F9F
:101A300043F000538360C36823F07803C360036AF4
:101A40001F40684B3B43664F0362036A1F40654B70
:101A50003B43654F43628762C762DEF8B830634F2D
:101A600023F03F0343F00103C0F8B830DEF8BC3088
:101A7000DFF884E123F03F0343F00103C0F8BC30FA
:101A8000056104660767C0F8802044664767C0F8B0
:101A900084200468564B24F00204564A0460C0F8BF
:101AA00018E0C66143F8041B9342FBD1494B1A6806
:101AB000194642F001021A600B68464A13F001030E
:101AC000FAD14D4E022540F2F56440F2664040F2F4
:101AD00099414A4F966142F20146D56140F235453F
:101AE000C2F8004242F20124C2F810020120C2F8FA
:101AF00020121146C2F8307207F15A47C2F8346218
:101B000007F51377C2F840523D4E3E4DC2F8507271
:101B1000C2F85462C2F86052C2F86442C2F8A030FF
:101B2000C2F8A430C2F8B0004B692A4ADD07FBD5E1
:101B3000012300244FF4803011465361C2F8A040C5
:101B4000C2F8A400C2F8B0304B69224ADC07FBD5CA
:101B5000012300244FF4003011465361C2F8A04025
:101B6000C2F8A400C2F8B0304B691A4AD807FBD5B6
:101B700001230024244811465361C2F8A040C2F852
:101B8000A400C2F8B0304B69124ADB07FBD5D2F88B
:101B9000003145F60D5121209BB250618B4239D066
:101BA0001A4B00221A605A609A60DA6003B0F0BDE6
:101BB00000801F40F9700100F9B00100F910010028
:101BC000F900010000841F4000C00F40FFFCFF1F10
:101BD000000300A000402A401200FFFFFF37F7007B
:101BE00000FFF07C40000080FF000F8363000200D4
:101BF00000422A4000432A40F05AF05A9F0418300D
:101C0000063201263806180A04000300E4E5002025
:101C100000802A4000244FF4802001231146C2F89E
:101C2000A040C2F8A400C2F8B0304B693B4ADF07BD
:101C3000FBD501234FF40004002011465361C2F884
:101C4000A040C2F8A400C2F8B0304B69334ADE07A6
:101C5000FBD501234FF400044FF48030114653614B
:101C6000C2F8A040C2F8A400C2F8B0304B692B4AB9
:101C7000DD07FBD501234FF400044FF4003011467B
:101C80005361C2F8A040C2F8A400C2F8B0304B695A
:101C9000224ADC07FBD501234FF4000420481146FB
:101CA0005361C2F8A040C2F8A400C2F8B0304B693A
:101CB0001A4AD807FBD5D2F8003145F60D5121203C
:101CC0009BB250618B4210D0164B08224FF4000497
:101CD0001A7015490020154A01230090521A144821
:101CE000224400F0C1F903B0F0BD4FF400044FF4FA
:101CF000802101231046C2F8A040C2F8A410C2F807
:101D0000B03043690549DB07FBD50120054B1022A4
:101D10004FF0807448611A70DBE700BF00402A4032
:101D20000400030077E50020000000700000007050
:101D3000E4E50020F0B4174A40274FF480314FF417
:101D400080564FF400554FF4404443F2420013696B
:101D500013F0020F06D0946151619061136913F082
:101D6000020FF8D113F4005F01D15561EFE713F4CE
:101D7000805F01D15661EAE7002BE8DA13F4803F77
:101D800001D09161E3E75B0601D45761DFE7F0BC66
:101D9000704700BF00800D40394A03203949F3EEF7
:101DA000095A13689FED386A23F00103DFED376AA3
:101DB000F0B4136000241061D1F8E030344FD8B291
:101DC000C3F30B211B0D334E07EE100A05EE101A5C
:101DD00007EE903A304BB8EEC55A304DB8EEC77AA0
:101DE0003060F8EEE77A29602D4937EE466A2D4ECD
:101DF00077EEC57A2C4877EE666A2C4D37EE657A19
:101E000026EE276AC7ED007A66EEA76A176867EEC6
:101E1000277A83ED007AC6EE075A86EE876AC7EE08
:101E2000876A35EE857AFCEEC77A36EE057A17EECC
:101E3000903ABCEEC77A47EA035376EE857A136090
:101E400017EE103AD2F81071FCEEE77A01EA03417E
:101E5000394317EE903AC2F81011C3F30B03D2F8CE
:101E600010110B43C2F81031136843F002031360E2
:101E70003470C0F840510E4B0122F0BC1A6070471C
:101E800080810D4000441F400000AA420000B4427F
:101E900054E500204CE5002050E5002048E50020F6
:101EA0000000FF0F40E400E00074002079350000DE
:101EB00008E100E0304B40F6617270B5C3F82021B4
:101EC00040F2044500F0CCF82C492D48D1F8802090
:101ED0002C4C42F003022C4BC1F88020C0F860511A
:101EE000226813401BB9D0F8A8319A071AD0244BA6
:101EF0004FF00041234A51631A46D3F8401141F094
:101F00000201C3F84011D2F840319B07FBD44FF4D3
:101F100000301E491B4B4FF00042086019209A63A5
:101F200000F0B6F81A4D0022164B4FF08041144CC9
:101F30000A26996328461A601146C4F8A8614FF42E
:101F4000207200F0A1F84FF4810640F243114FF4E3
:101F50008000104B104A2E602864C4F85851C4F811
:101F60004811C3F804220D4A4FF4003101231160D7
:101F7000C4F8403170BD00BF00800D4000C00F406C
:101F800000002E4000900D40001C1E008CE200E07E
:101F90000000002000740020453700000CE100E044
:101FA00008B50E4B1B6E9B0700D4FBBE72B60C4BE4
:101FB00000200C4AC3F8400103F160430A49A3F52D
:101FC0005F2311649D46BFF34F8F084A03F5E0433A
:101FD00007491268184619609368984700441F40E3
:101FE00000002E4000C00A40030020001C0020001A
:101FF000000012EB114B1249D86E0A4640F44030F3
:1020000030B4D86640F23765D86EA02440F44070F2
:10201000D8664D648C64936C1B06FCD4094B40F26B
:102020003760A0211A4658649964936C13F08003BA
:10203000FBD1054A137030BC704700BF00C00F4091
:1020400000400C4000800C4076E50020F8B500BF51
:10205000F8BC08BC9E4670475FF800F0E92D000010
:102060005FF800F0E53E00005FF800F0614B000013
:102070005FF800F0254800005FF800F0D131000063
:102080005FF800F0DD2103005FF800F0FD2C030095
:102090005FF800F0AD30000045000000DD1A0000E0
:1020A0006D1D000001200000812000004526000079
:1020B00009D80000B55A0100B5750100758A010004
:0820C000B1000200854102009D
:1020C80080C00F400000000319000000100000004D
:1020D800E8841F4001000000FF000000FF0000002E
:1020E80000000000000000001800000010000000C0
:1020F800E4841F4001000000FF000000FF00000012
:1021080000000000000000001F000000052B000078
:1021180070C00F40000C000011000000110000000A
:10212800E0841F40020000002C00000012000000A4
:10213800E0841F40010000001000000011000000B2
:10214800DC841F40020000002D0000001200000087
:10215800DC841F40010000001E000000F92A000076
:1021680070C00F40C0000000120000001300000003
:10217800D0841F4001000000FF000000FF000000A5
:102188000000000000000000130000001300000021
:10219800CC841F4001000000FF000000FF00000089
:1021A80000000000000000001C000000ED2A0000F4
:1021B8000086227E6DD24620290B21701040805265
:1021C8003F065B4F666D7D077F6F090D614843D3FE
:1021D8005F777C395E79713D76301E753815373FEB
:1021E800736B336D783E3E2A766E5B39640F230835
:1021F800025F7C585E7B716F74100C753014545CF0
:102208007367506D781C1C14766E5B463070010045
:1022180001000200040008001000200040008000B7
:1022280000010002000400080010002000400080A7
:102238000000000000000000000000000000000096
:10224800C912C015F912E3003005C812003A001788
:10225800000006002002CE12ED12240C5D230004BB
:1022680000240009C03FC0120008C0000040000C54
:102278003F0C0600DB008F00E6006920FD00070028
:10228800FF00EF000012000A0024C80000098310B4
:10229800BB02F7008F1239000F12F9007100BD0060
:1022A800F60009121E0070243800360536213F005A
:1022B800F3003F20F320ED0001123E00300C3628D9
:1022C800002D0015090C390000210F00030C08002F
:1022D800000158107820D8008E08580871008E0424
:1022E800701000100E0000363000D4105010DC00C2
:1022F800700186045000882078001C0004201428EF
:10230800C0280C2048084909001289242005FF3FED
:102318001603550053004200200053006500720068
:10232800690061006C000000180354006500650036
:102338006E00730079006400750069006E006F001C
:102348000403090409024B00020100C032080B0013
:102358000202020100090400000102020100052432
:1023680000100105240101010424020605240600C9
:10237800010705820310001009040100020A000089
:102388000007050302400000070584024000000022
:1023980009024B00020100C032080B0002020201D0
:1023A80000090400000102020100052400100105D3
:1023B8002401010104240206052406000107058200
:1023C8000310000509040100020A000000070503C4
:1023D8000200020007058402000200000A0600024B
:0823E800EF02014001000100B9
:1023F00000000000000000000000000000000000DD
:1024000000000000000000000000000000000000CC
:1024100010B5054C237833B9044B13B10448AFF31E
:1024200000800123237010BD4878002000000000C8
:10243000E4F50300084B10B51BB108490848AFF399
:1024400000800848036803B910BD074B002BFBD080
:10245000BDE81040184700BF000000004C78002085
:10246000E4F50300C0760020000000000020704763
:102470002DE9F04342F610135D4C91B0DFF884E192
:10248000C1501646206810AC5A4B00901B6A5A483F
:10249000C3F30123056802462344046805F08075F0
:1024A00013F8407C44F0A0430EFB07FE0360BEFB24
:1024B000F1F0BEFBF0F7CF1B1368DC01FCD505285B
:1024C00040F2938000221446931C0132B0FBF3FCCF
:1024D000BCF1190F0CFB03F3F6D84FF00108BEFB5B
:1024E000F3F3CB1A002BB8BF5B42BB426CDB18BFC7
:1024F0004FF00008ACF10C03062B03D8B8F1000F25
:1025000018BF1446BCF1050FDED8631CB7F5967FE3
:10251000B0FBF3F0A0F1050E59DCBEF1140F56D854
:10252000364FE84607F130093868103757F80C1C69
:10253000C44657F8082C08F1100857F8043C4F45DA
:10254000ACE80F00F0D10EEB4E0E10AB3868022E47
:1025500073447968BA68B7F80CE0BF7BA8E8070055
:10256000A8F800E088F8027013F8400C13F83F1C3C
:1025700000F0070013F83E3C4FEAC141204A40F406
:1025800080004FEA034301F4601103F4E02341EAC1
:10259000000143EA010343F4804343EA0464146006
:1025A000136814BF23F0080343F00803136045B910
:1025B000114B19681A4621F0805119601368DB012C
:1025C000FCD411B0BDE8F0831F46144692E7002DFD
:1025D000F7D1094B19681A4621F080511960136828
:1025E000D901FCD411B0BDE8F083012300248DE7AC
:1025F0009803002000C00F4000401D409C030020B5
:1026000004401D4040420F000020704700207047EA
:102610000820704738B5074CA4F53A7554F8080CF3
:10262000A042A4F1180401D003F070F8AC42F5D137
:1026300038BD00BF3C7B0020034901220B6802FA31
:1026400000F003430B60704730401D40104A1149B1
:10265000136808681268096802F07F02C1F3036119
:1026600001320431B2EB410F10D303F07F03C0F30A
:102670000360053B0130A3EB4000C3B2044A10687D
:1026800000F07F000130C01AC0B270470023F5E7A8
:1026900000401D4034401D40F0B500F1080683B0F5
:1026A000066019B3044608460F4634F061FB0F2854
:1026B000054601900AD8012815D0D0B9019B002108
:1026C000226820466360D15403B0F0BD002201A906
:1026D000204615F049FC019B2060A3602A4639463C
:1026E00002F076FFEAE73B782372E7E7024805F05D
:1026F000DBF93046F2E700BF604200202DE9F041EF
:10270000044641F6263E41F6DC46264D002304EB06
:102710000E07E56041F6A450A519238442F20C7C13
:1027200063848846A384211824F80E307B8042F20B
:102730000D7EBB8042F61817A35342F61C166B8021
:10274000AB80235242F62010174D4B808B800B211B
:10275000A26004F80C3004F80E30E351A351235466
:10276000124804F025F9284602F096FC0D21C4F821
:1027700000800F4804F01CF9284602F08DFC042369
:1027800014210C48636004F013F9284602F084FC1D
:102790000F21094804F00CF9284602F07DFC204680
:1027A000BDE8F081342B0020F46700208C4200202B
:1027B00098420020A8420020C042002038B543685B
:1027C0000546002B0ADD00242B68082153F824005D
:1027D000013402F09FFF6B68A342F5DC284638BD48
:1027E000F8B504460D460B46103004F1200153F8AD
:1027F000042F40F8042B8842F9D141F6063205F146
:10280000140102F0E5FE41F61A3141F626304FF48C
:10281000DB72294404F10C06204441F6FC5702F017
:10282000D7FE41F6D04141F6DC40C82229442F446E
:10283000204402F0CDFE41F6985141F6A4506622A4
:102840002944204402F0C4FE42F20C1E06F5F05367
:10285000A64403F118003A4652F8041F43F8041B3B
:102860008342F9D1734507F11807F2D142F2FC0710
:1028700042F20C7E06F504532F44A64403F11800DF
:102880003A4652F8041F43F8041B8342F9D17345BA
:1028900007F11807F2D105F51C5242F20C7142F211
:1028A000017742F2047392F800E042F61000EF5D07
:1028B000334404F801E0204442F20D71675452F8A9
:1028C000041F43F8041B8342F9D142F6040142F687
:1028D000080342F614100A466F58334442F61001BA
:1028E0002A442044675052F8041F43F8041B8342D3
:1028F000F9D142F6081142F60C1242F6101642F6D1
:102900001413685842F61811AF5842F61C12AE590B
:10291000E05042F62010675042F61511A65042F6DC
:102920002112EB5C23546B5CA354F8BD81607047AB
:1029300000F5F0531B68DB004AD5414B2DE9F0430D
:102940001E680025C6F30366F600083605EB450E43
:1029500000EBCE0404F5F05213685B0F012B0DD091
:1029600013685B0F022B28D013685B0F052B31D047
:102970000135B542EAD10020BDE8F083176817F4AD
:10298000607FF5D041F604673C59A14254D094468B
:102990004FEA4E0EDFB2DCF800207B1CC2F3C212FD
:1029A0000EEB0304974204F5F064E1D250F82440A2
:1029B000A142EFD10120BDE8F08341F604631B5929
:1029C0008B42D5D841F608631B599942D0D8F1E71C
:1029D00001207047136813F4607FC9D041F6146C6E
:1029E00041F60463A4442344DCF800401F68DCF88B
:1029F00000300C403B409C42DCD014464FEA4E076E
:102A0000012322680133C2F3C212DBB2013207EBA9
:102A1000030E93420EF5F06EAAD2DCF8008050F857
:102A20002E90DCF8002001EA080E09EA0202964521
:102A3000E7D10120BDE8F0831846BDE8F08300BF70
:102A400034401D4001EB410130B4C90000F504548D
:102A500060586318C0002AD56058400F012829D05B
:102A60006058400F022838D06058400F052802D027
:102A7000002030BC70476058C0F3C210C0B1586924
:102A80005C68596910402140884210D001211C68BF
:102A90000131C4F3C214C9B20134A142E8D25C6965
:102AA00053F821505869144028408442EFD1012046
:102AB00030BC70476158C1F3C211B9B159688A423C
:102AC000F6D01968C4B2C1F3C211601C8C42CFD2D7
:102AD00053F820109142F4D1E9E759688A42C7D3EC
:102AE000986882428CBF00200120E1E70846DFE7BA
:102AF0000B78632B70B5044615460FD000EB8303AB
:102B000042F204729B580BB12846984742F60403E0
:102B1000E3584BB12846BDE87040184742F20473B1
:102B2000C358002BF0D1F1E770BD00BF2DE9F04F85
:102B30008E468DB006460F466C464FF0010935466D
:102B400006F11008DFF820A1BEE80F000FC49EE8D0
:102B5000030084E8030055F8044F6CB19DF914207C
:102B6000D4E9020109FA02F30021184050EA0103F6
:102B70005DD1237C002B4DD14545ECD106F51C538E
:102B80001B78002B5ED0B6F816C04FF01A0E3868CE
:102B900006AC5FFA8CFC7968BA684FF00008FB68F5
:102BA0000EFB0C6C25460FC43869182279698CF825
:102BB0001A81F38ADBB20EFB036383F81B21F38ACD
:102BC000DBB203C40EFB03670FCDC7F81C01C7F8C7
:102BD0002011C7F82421C7F8283103CDC7F82C01EC
:102BE000C7F83011F28AB38A92B29BB283F4807331
:102BF0009A4232D0F38A0133C3F30803F382338B52
:102C00009BB2FF2B03D8338B01339BB233830DB0C0
:102C1000BDE8F08F2368D3F800B0D345ACD0204690
:102C20009DF815304FF0FF326946D847A4E7236876
:102C3000D3F800B0D3459CD09DF8153069462046A6
:102C4000D84796E73B7D0CA930463A4601F8183D37
:102C5000FFF74EFF0DB0BDE8F08FB38A0133C3F329
:102C60000803B382C6E700BF7D00000042F2017393
:102C7000C35C002B00F0AC802DE9F04F0F4689B00B
:102C80000E46054602ACDFF870E20FCF0FC497E89E
:102C9000030084E80300DEF800309B0054D5954B18
:102CA00000244FF0630B1B68C3F3036A4FEACA0AA0
:102CB0000AF1080A0CE01968490F022900F0958012
:102CC0001968490F052900F0AD80013454453BD007
:102CD00096F914305FFA84FC632B35D004EB44087A
:102CE00005EBC80909F5F053196811F0604FECD0F5
:102CF0001968490F0129DED11A68F179C2F300423F
:102D00009142E2D11A6812F4607FDED01F464FEA8A
:102D10004808002306E03A685FFA89F3C2F3C2125A
:102D20009342D2D203F10109029A08EB090303F599
:102D3000F06355F823309A42EDD102A928468DF868
:102D40001CB0FFF7F3FEE6E700236B4F8DF80E3063
:102D50003C6814F000543CD13B68DFF89C8108E0EB
:102D6000D8F80030013403F07F03E4B201339C4211
:102D700038D296F91430A342F2D004EB440105EBAB
:102D8000C10202F50453186810F0604FE8D01868CB
:102D9000F779C0F3C0608742E2D11868400F01287C
:102DA00074D01968490F022900F094801B685B0FEA
:102DB000052BD5D1029A21462846FFF743FE00286D
:102DC000CED002A928468DF81C40FFF7AFFEC7E71A
:102DD0007047FFF73BFC3B68044603F07F03013379
:102DE0009842BAD309B0BDE8F08F1B68F279C3F3FB
:102DF00000439A427FF469AF41F60463029A4B4460
:102E00001B689A42FFF461AF41F6086353F809303A
:102E10009A423FF65AAF02A928468DF81CB0FFF738
:102E200085FE52E71B6813F4607F3FF44EAF41F616
:102E300014634FEA480801274B440AE009F5F051B2
:102E400001370968FFB2C1F3C21101318F42BFF4EB
:102E50003CAF08EB07011868029A01F5F0611040D9
:102E600055F821E019680EEA01018842E6D102A96D
:102E7000284601938DF80EC0CDF800C08DF81CB027
:102E8000FFF754FE019BDDF800C0D7E71A6812F483
:102E9000607F3FF465AF1F464FEA410A002307E019
:102EA0003A685FFA89F3C2F3C2129342BFF458AF93
:102EB00003F10109029A0AEB090303F5046355F8CB
:102EC00023309A42ECD102A928468DF81C40FFF726
:102ED0002DFEE5E742F20413029913441B68994260
:102EE000FFF43EAF42F208139B5899427FF669AF58
:102EF00036E700BF34401D4000401D402F4AF8B562
:102F0000136813F0005353D0136813F400434BD0ED
:102F10002B4B1B6813F020034AD02A4B0C462A4A3D
:102F200005461B6842F61510DFF8A4E0632103F4A0
:102F30000016C3F30347A380E772002E12680CBF8C
:102F40001226002622F06042204F22FA06F214BF19
:102F5000012600262260DEF80020E671E273160CDE
:102F60004FEA122E120E667384F80EE0C3F3005679
:102F70002273DB0D3A682672E274170A160C120EE1
:102F8000A774667422740D4A285CA371607521755C
:102F900013681B040ED521462846FFF767FE2168FB
:102FA0002846FFF7C5FCF8BD283212689206AFD557
:102FB0001846F8BD0520FFF73FFBECE700401D4039
:102FC00030401D4080401D4084401D408C401D40CD
:102FD00088401D40974B1B682DE9F04F13F00053BC
:102FE00085B08946039040F01E810293914E42F6CF
:102FF000141203993368885C03F07F03013398420D
:1030000000F2038142F61418039B03279844E0E082
:10301000002B00F0ED80B3FA83F2C2F1400290423F
:10302000C0F2E380306810F0005040F0F280013FC1
:1030300088F8000017F0FF0700F0E78033689C0075
:1030400006D5029A824203D9501EC0B288F8000009
:10305000336803F07F03013398420BD3306810F0DC
:10306000005040F0C980013F88F8000017F0FF07CA
:1030700000F0CB80704BC0F1200E704AA0F120010F
:103080001B68D2F800C0019300230093DDE9002300
:1030900042EA0C0222FA00F403FA0EFE23FA01F1CE
:1030A000002344EA0E040C4304F00102134340F0F1
:1030B0008680634B03441B011A6811017FD4110EF3
:1030C00001F00B0EBEF1020F79D102F4001E586818
:1030D000C2F3005C01F00F01BEF1000F20F0604070
:1030E00089F808C015BF4FF0000C4FF0120C4FF0DC
:1030F000010E4FF0000E20FA0CF0062989F807E0C7
:10310000C9F8000000F08B80C2F3034042F61511AD
:1031100089F80B000398014498F8000000F1010EB3
:1031200088F800E089F81400A9F804200A7899F8D2
:10313000071089F815209A68002989F80F2008BF20
:103140004FF080619A6818BF4FF08C61120A89F8BD
:103150000E209A68120C89F80D209A68120E89F8D0
:103160000C20DA6889F81320DA68120A89F812202C
:10317000DA68120C89F81120DA68120E89F810202A
:10318000196099F814002F4B1F281B6844D9203868
:1031900001222D4B02FA00F01B6818432A4B1860DD
:1031A00049460398FFF762FDD9F8002099F81410FA
:1031B0000398FFF747FC002839D198F80000013048
:1031C000C0B288F80000336803F07F0301339842EF
:1031D0001BD81E4A4FF0000A1B4B1B6811684AEAB5
:1031E000010252EA03017FF413AF98F8000025E7CB
:1031F000B2FA82F2203210E7013FFFF727FA88F88F
:10320000000017F0FF077FF435AF002005B0BDE8E0
:10321000F08FFFF71BFA0AE7FFF70EFAC0E701216C
:1032200089F8091070E7FFF711FA0290DEE6012035
:10323000ECE700BF00401D4024401D4028401D40D9
:1032400008D4010408401D402C401D4030401D4062
:10325000002308220221F0B5044691B018460693D7
:1032600004F10C05049305930793089309938DF8D3
:103270001B2001F0A7FF90B92D4B1B6899000ED5BC
:103280002C4B1B689A060AD42B4B1B689B0606D551
:10329000284604A9FFF732FE38B911B0F0BD284620
:1032A00004A9FFF797FE0028F7D00421234803F074
:1032B0007FFB00230A220499214801F005FF2048E2
:1032C00001F0EAFE049B093B062B2BD81D4A52F85D
:1032D0002350002D26DB6368AB4223DD04AF0AAE2A
:1032E0000FCF0FC697E8030086E80300102002F016
:1032F00009FA10AA06460AAB12E907008DE8070092
:1033000030460ECB01F086F82368314653F825008D
:1033100003681B689847304601F0A0F8304610213A
:1033200002F0F8F90A2002F0B9F811B0F0BD00BFC0
:1033300000401D4028401D4030401D40D04200202C
:10334000F46700205C0B00201F2938B50D46144699
:1033500034D91C49A5F1200001230A688340134396
:103360000B60194B4FF00061E2792B441B0119608F
:10337000BAB1217A2268002922F0604214BF4FF4CA
:10338000E0014FF4C0015A60E06800BA986020691B
:1033900000BAD860E27A41EA024242F040621A6022
:1033A00038BD2268207A9104084A002802EA010206
:1033B0000CBF00214FF480115A60E5E70846FFF783
:1033C0003BF9CEE72C401D4008D401040000FC1F4F
:1033D0002DE9F04F08219DB00025DFF898C0DFF8F7
:1033E00098E0224C2A460C950A958DF833100B95DF
:1033F0000D950E950F95DCF800C0DEF800E024680E
:103400006346DFF878C042EA0E0A2146184C039062
:103410009B462846DCF80050236840EA05001D045E
:10342000CDE9040103D42368990000F10982DDE9A4
:10343000042342F00102002B00F0EE81B3FA83F581
:10344000DFF82C80C5F14005D8F80040EDB214F04B
:10345000005440F07A81D8F8003042F61513039AF0
:10346000D318CDE9006708938BE000BF2C401D40C6
:1034700000401D4024401D4028401D4030401D405C
:1034800000F4001CD3F804E0BCF1000F2EF06046FD
:103490000DBF4FF0120E4FF0000E0127002726FA45
:1034A0000EFE06298DF82F70CDF828E000F0598225
:1034B0000899C0F3034E8DF83C40BCF1000F097829
:1034C0008DF833E008BF4FF0806E8DF83D1018BFC7
:1034D0004FF08C6E99681F2CADF82C008DF83710CA
:1034E00099684FEA11218DF8361099684FEA114119
:1034F0008DF8351099684FEA11618DF83410D9684C
:103500008DF83B10D9684FEA11218DF83A10D9682F
:103510004FEA11418DF83910D9684FEA11618DF8E1
:103520003810C3F800E0BE4B1B6840F21682012140
:10353000BC4B01FA02F21B681A43BA4B1A600A9A92
:1035400021460398FFF77EFA002840F001820AA97D
:103550000398FFF78BFB0AA8AFF300800AA8AFF32C
:1035600000800AA8AFF30080AF4B01341B68E4B2BF
:1035700003F07F0301339C4280F0F480A54240F2C7
:10358000F1802AFA04F2C4F1200300920BFA03F04E
:10359000009EA4F1200206432BFA02F130460843B4
:1035A0002BFA04F100900191DDE90001002100F007
:1035B00001000143D8D0DDE9046707FA03F326FAD6
:1035C00004F8394648EA0308D14048EA01080021D6
:1035D00008F0010050EA0103C6D0944B23441B01BC
:1035E0001868010E01F00B0E01F00F01BEF1020F81
:1035F0003FF446AF042900F0CE810829B4D1C0F3CE
:103600000341089ED3F804C096F800E08DF833100B
:1036100000F400118DF83DE02CF060468DF83C4040
:103620000029996804F6022EADF82C0018BF00207E
:103630008DF8371008BF1220996818BF4FF0010CA1
:1036400026FA00F0039E4FEA112108BF4FF0000C4C
:1036500056F82E608DF8361099680A90090C8DF88E
:103660002FC08DF835109968090E8DF83410D9687F
:103670008DF83B10D968090A8DF83A10D968090C01
:103680008DF83910DB681B0E8DF838301EB10AA892
:103690000692B047069A42F6081303990B441B683A
:1036A0001BB10AA806929847069A039941F61A3365
:1036B000CB181846069319469B889BB2002B00F046
:1036C0005E8110AA03884FF01A0E0DF1580C03F01A
:1036D0000F031046099267460EFB031E02460EF1C9
:1036E000120E16465EF8060FDEF80410DEF808200B
:1036F000DEF80C30ACE80F00DEF81000DEF8141035
:10370000ACE803000FCF0FC697E8030086E803007C
:103710009DF954305A1C00F0D6819C427FF424AFAE
:10372000099AE1B20398FFF70FFE06990B8801335F
:1037300003F01F030B808B889BB2002B3FF414AF68
:103740008B88013B9BB28B800EE7FEF77FFFD8F89A
:103750000030044603F07F030133834202D98542DF
:103760003FF67BAE324B334C18682168324A4140F9
:103770000A40002A47D0039A41F6D04313449A885E
:1037800092B20F2A3FD89A8892B20F2A40F2F28062
:1037900041F6D046039A59885D88925B01F00F018B
:1037A000ADB292B2023182F0100243F8210095428C
:1037B00000F06881598841F69852039E01311F4DEF
:1037C000324401F01F0159802E689388B6B29BB233
:1037D0000F2B40F2CA8041F69857039B51885588B9
:1037E000DB5B01F00F01ADB29BB202EB410183F054
:1037F0001003CE809D4200F03E815388206001334B
:1038000003F01F0353800A4A136803431360BFF396
:103810004F8F1DB0BDE8F08FB2FA82F520350FE66C
:1038200008401D402C401D4000401D4008D40104AC
:1038300020401D40C0910020BFFF07001C401D40DC
:103840000AF02002002313433FF4F1AD00F0200200
:10385000002313433FF4EBAD9F4A42F61511039842
:1038600063251268415CC2F3034402F400109B4BD1
:103870008DF8334000281B684FEAD25014BF002453
:10388000122423F060438DF82E00ADF82C20C2F3F3
:10389000005223FA04F3924C4FF005000A93236878
:1038A0008DF8302018BF01228DF8373008BF002274
:1038B00023688DF82F201B0A8DF8363023681B0CE7
:1038C0008DF835302268874B120E8DF834201A6837
:1038D0008DF83B201A68120A8DF83A201A68120CEB
:1038E0008DF839201B68804A1B0E8DF83D108DF82D
:1038F0003C508DF838301368FEF79EFEDDE9042356
:10390000002302F04002134340F0D580DDE9042398
:10391000002302F08002134340F0C980039C0AA9EF
:103920002046FFF7A3F90AA8AFF300800AA8AFF377
:1039300000800AA8AFF300800A992046FEF7F8FF3E
:1039400000283FF474AD0AA90398FFF7EFF86EE57D
:103950000AA90398FFF7EAF8F9E52046FEF76CFE9E
:10396000EDE501218DF83110A2E5938801339BB27A
:10397000938030E79A88013292B29A8008E71F2C30
:1039800040F29D800121594B01FA02F21B6813435A
:10399000564A1360E8E5C0F30341089ED3F804C01B
:1039A00096F800E08DF8331000F400118DF83DE03A
:1039B0002CF060468DF83C400029996804F6022EF0
:1039C000ADF82C0018BF00208DF8371008BF12206A
:1039D000996818BF4FF0010C26FA00F0039E4FEAD9
:1039E000112108BF4FF0000C56F82E608DF83610EC
:1039F00099680A90090C8DF82FC08DF835109968D8
:103A0000090E8DF83410D9688DF83B10D968090A71
:103A10008DF83A10D968090C8DF83910D968090E5B
:103A20008DF838102EB10AA809920693B047099A6A
:103A3000069B42F6081103980144096829B10AA8B7
:103A4000099206938847099A069B41F61A31039812
:103A500041180E460691898889B2D1B133884FF05A
:103A60001A0E0DF1580C10AA03F00F0367460992C5
:103A70000EFB036E33E60399CB5B013303F01F03A8
:103A8000CB53BAE603998A5B013202F01F028A53D4
:103A900090E61F2C1AD90120144900FA02F2096895
:103AA0000A4312490A604FF000621A605CE5072081
:103AB000FEF7C2FD32E70620FEF7BEFD26E72046F0
:103AC000FEF7BAFD50E5099A21462BE620460693FB
:103AD000FEF7B2FD069BE6E780401D4084401D4096
:103AE00088401D408C401D4008401D402C401D401A
:103AF00000F51C531A782DE9F04305468FB00AB93A
:103B000001221A702B8B9BB2002B54D142F60C135E
:103B100041F61A3601227149EB58B0462E4403F0A3
:103B20001F005B09824041F82320B3889BB263B336
:103B300035F808301A240DF1200E02AF03F00F0300
:103B4000F446B94604FB0364123454F8060F616866
:103B5000A268E368AEE80F0020696169AEE803007F
:103B6000BCE80F00A9E80F009CE8030089E8030007
:103B70009DF91C104B1C5FD0594B0B441B011B685B
:103B8000C3F30363082B00F0878042F60C13012275
:103B90005449EB5803F01F005B09824041F8232091
:103BA00000212B8BB0889BB280B21B0380B21843DC
:103BB0000FB0BDE8F0832A461A2408AE02AF32F8EF
:103BC000143FB5F814E0DBB20EF1010E04FB032440
:103BD000CEF3080E04F5817454F8060F6168A268EC
:103BE000E3680FC62069002361690824A5F814E082
:103BF0002A8BBB6092B202937B60FB603B617B616E
:103C00008DF8134003C61AB12B8B013B9BB22B835B
:103C100008AC3E460DF1380E0FCC0FC694E80300F9
:103C20003A4686E803009DF81C3028460EF8313DE0
:103C30007146FEF75DFF69E7DFF8AC80D8F8004019
:103C400014F000543ED1D8F80030DFF89C8008E032
:103C5000D8F80030013403F07F03E4B201339C4212
:103C600093D21F4B23441B011B68C3F30363082B30
:103C7000EED13A4621462846FFF766FB33880133EA
:103C800003F01F033380B3889BB2002BE0D0B388CE
:103C9000013B9BB2B380DBE73A46C9B22846FFF747
:103CA00053FB35F80830013303F01F0325F80830C3
:103CB000B3889BB2002B3FF468AFB388013B9BB243
:103CC000B38062E7FEF7C2FCD8F80030044603F088
:103CD0007F0301338342B8D857E700BF80E100E09B
:103CE00008D4010400E100E000401D402DE9F0434C
:103CF00041F61A348E464FF01A0887B00444DEF8B5
:103D00000820DEF80C30844667884FF00009086808
:103D10006D4607F00F0749686E4608FB07470FC559
:103D2000DEF810001822DEF8141041F61A3E87F86B
:103D30001690638803F00F0308FB0343DA75678866
:103D400007F00F0703C508FB07470FCEB861F961FD
:103D50003A627B6203CEB862F96262883CF80E3048
:103D600092B29BB283F010039A420FD06388013362
:103D700003F01F036380A3889BB20F2B03D8A38893
:103D800001339BB2A38007B0BDE8F0833CF80E304E
:103D9000013303F01F032CF80E30E7E7F0B58B7DFD
:103DA0000546474C87B00E462068002B38D110F0EE
:103DB000005062D123680146424B0B441B011B6833
:103DC000C3F30363082B24D03D4A04E02368C3F304
:103DD0000363082B1DD01368481C3A4C03F07F0383
:103DE000C1B201330C4499424FEA0414EED30FCE12
:103DF0006C46FF270FC496E8030084E803002846BA
:103E000069468DF81470FFF771FF4FF0FF3007B06F
:103E1000F0BD28463246FFF797FA012007B0F0BD03
:103E200010F0005033D12368264B044603441B0195
:103E30001A68110114D4224902E01A6812010FD441
:103E40000A6801301F4B02F07F02C0B20132034406
:103E5000044690424FEA0313EFD31B4B4FF0FF345D
:103E60001B68C3F30363082B1AD128463246E1B21C
:103E7000FFF76AFA012007B0F0BDFEF7E7FB236801
:103E8000014603F07F030133834295D8AFE7FEF785
:103E9000DDFB236803F07F0301338342C4D8DCE7F2
:103EA0000FCE6F460FC796E8030087E80300284649
:103EB00069468DF81440FFF719FF4FF0FF30A6E771
:103EC00000401D4008D4010470401D4070B5564E9E
:103ED000564D574C304603F0A9FA2A46304655490C
:103EE00003F07EF820465449FEF7D6FB04F1180093
:103EF0005249FEF7D1FB04F130005149FEF7CCFBEB
:103F000004F148004F49FEF7C7FB04F160004E4939
:103F1000FEF7C2FB04F178004C49FEF7BDFB04F14B
:103F200090004B49FEF7B8FB04F1A8004949FEF7A1
:103F3000B3FB04F1C0004849FEF7AEFB04F1D80022
:103F40004649FEF7A9FB04F1F0004549FEF7A4FB42
:103F500004F584704349FEF79FFB04F590704249D5
:103F6000FEF79AFB04F59C704049FEF795FB04F5BB
:103F7000A8703F49FEF790FB04F5B4703D49FEF789
:103F80008BFB04F5C0703C49FEF786FB04F5CC7052
:103F90003A49FEF781FB04F5D8703949FEF77CFBFE
:103FA00004F5E4703749FEF777FB04F5F070364905
:103FB000FEF772FB04F5FC703449FEF76DFB04F567
:103FC00004703349FEF768FB04F50A703149FEF7C7
:103FD00063FB04F510703049FEF75EFB04F51670C4
:103FE0002E49FEF759FB04F51C702D49FEF754FBD2
:103FF00004F522702B49FEF74FFB04F528702A497F
:10400000FEF74AFB04F52E702849FEF745FB04F540
:1040100034702749FEF740FB2A4626490020BDE8B8
:10402000704002F0DDBF00BFAC910020E8670020C7
:104030006478002059500000D8420020E44200205B
:10404000F442002004430020184300202C430020A9
:104050003C4300204C4300205C4300206C43002084
:104060007843002084430020904300209C4300209C
:10407000A8430020B0430020B8430020C8430020DC
:10408000CC430020DC430020EC430020FC43002014
:104090000C440020204400203044002040440020F4
:1040A0005044002060440020704400207C440020E4
:1040B0008C4400202502000070B4064E14253224E2
:1040C0000022066005614461C1608260826170BC4B
:1040D000704700BFB02B00200929F8B50F460646EF
:1040E00006DC174C8169236842695B1A934213D23C
:1040F00000252C463369012197FBF3F3A342F368B3
:1041000004F10104B8BF0021585D01F053FA052CF9
:1041100005F10405EED1F8BD83684BB9C3680121F0
:10412000187801F047FA22680123B261B360F8BD44
:10413000C3680021187801F03DFA0023B360F8BD90
:1041400060E5002010B50446084600F08FF90168CC
:104150002046BDE81040FFF7BFBF00BF10B5054CBB
:10416000204603F063F92046034A0449BDE81040A5
:1041700002F036BFB0910020E867002059500000DF
:10418000084B10B5044640F81C3B00F047FF064AB8
:10419000002342F21071126820466161626323615C
:1041A000A36110BD802B002060E500202DE9F843BD
:1041B0008946234C234B00F11C05A4FB09164FF044
:1041C000010819680023F608174681611946F2B202
:1041D000C0F8108006EB8606284600F029FF284626
:1041E000A9EB460241460023D2B200F021FF284647
:1041F00000233A22022100F01BFFA4FB07342846CB
:104200000023E4080321E2B204EB840400F010FF71
:104210000023A7EB440228460421D2B200F008FF95
:104220004146284600F0FEFE284600F093FE162187
:10423000054802F0BDFB0548BDE8F84300F02CBF7F
:10424000CDCCCCCC60E5002094440020F467002065
:1042500070B50446084600F009F903460A210748EC
:104260005D689E6802F0A4FB054800F015FF324629
:1042700029462046BDE87040FFF798BFAC440020B7
:10428000F46700200369012B2DE9F0470546DFF8AC
:104290001C816DD000F11C07426BD8F8000006218C
:1042A000394BC2EB000A394C394AA3FB0A0339489F
:1042B000A2FB0A29384ECB404FEA9939A4FB0324CC
:1042C0006409C4EB0414A3EB840402F071FB002323
:1042D0000A224946314800F0F7FE0121304802F039
:1042E00067FB00230A2221462C4800F0EDFE2B48F4
:1042F00000F0D2FE00212B4802F05AFB274800F0C4
:10430000CBFE294A00233846A2FB0A121946C2F303
:10431000874200F08DFEA6FB093238460023D20802
:10432000012102EB8202A9EB4202D2B200F080FE30
:10433000002338463A22022100F07AFEA6FB04361A
:1043400038460023F6080321F2B206EB860600F099
:104350006FFE3846A4EB460200230421D2B200F0DF
:1043600067FE3846012100F05DFE384600F0F2FDA0
:10437000D8F80030A9696A695B1A9A4201D800230B
:104380002B61BDE8F08700BFD34D62108988888813
:1043900073B2E745B8440020CDCCCCCCF467002004
:1043A000104C0020D4420020851DD96F60E500200C
:1043B00084B0F8B507AE0746344686E80E000FCC49
:1043C000F8612679206839620A21F8627A62BB6254
:1043D00087F83060044802F0EBFA0448BDE8F84082
:1043E00004B000F059BE00BFC0440020F4670020B4
:1043F00010B5054C204603F019F82046034A04493D
:10440000BDE8104002F0ECBDB4910020E867002048
:104410005950000084B038B505AD0446016085E808
:104420000E009DF81F30BDF8182082609800E360F0
:1044300001F06AF9E1686060002909DD0DF11F03F0
:1044400000EB810113F8012F40F8042B8842F9D1C9
:104450002046BDE8384004B0704700BF10B50446A0
:10446000406808B101F054F9204610BD406870471B
:1044700010B5054C204602F0D9FF2046034A0449F6
:10448000BDE8104002F0ACBDB8910020E867002004
:1044900059500000034B186810B103681B68184797
:1044A000704700BF047C0020104A11491368086857
:1044B0001268096802F07F02C1F30361013204311E
:1044C000B2EB410F10D303F07F03C0F30360053B51
:1044D0000130A3EB4000C3B2044A106800F07F0033
:1044E0000130C01AC0B270470023F5E700401D40FC
:1044F00034401D4008B50548FEF7AAFE0448FFF702
:10450000C1FE0A20BDE8084000F0C8BFB0BB0020D3
:10451000D4E40020A54B0022A5492DE9F04F064622
:1045200085B01868726003900B6AB260C3F3012310
:10453000F260326104AA134413F8043C002B00F02B
:1045400059819B4942F60C1025249A4B9A4A42F60F
:10455000151E34504FF0020CC3F8D42010248B6E7B
:1045600041F2B000954A012743F47013944D8B66D5
:10457000944B06F80EC0C2F8C4401946C2F8B40203
:104580002F65C2F8C840C2F8B8021A6822F000428B
:104590001A601A6842F0A0421A600B68894ADB016F
:1045A000FBD589481146036843F00803036013688C
:1045B00043F0804313600B68824ADF02FBD411682A
:1045C000134641F0007111601A6812F00072FBD1BD
:1045D0007C4801687B4BCD01FBD5196818467B4CA4
:1045E00041F400311960196841F48031196019688B
:1045F00041F480511960196841F40051196019683B
:1046000041F480011960196841F4002119601968AA
:1046100021F408411960216841F4E0212160196802
:1046200041F400111960196841F0806119601F6838
:10463000196807F0807441F0A04100941960036884
:104640006049DC01FBD50C680023DFF8A0C10D46F2
:1046500024F000545E4F18460C601C46CCF8003025
:104660003B600B685B4B00F1010C5B494FF00009AC
:104670000344544F01445FFA8CF01B018900DC6055
:104680009C605C601C600C602B6803F07F0301334E
:104690009842E7D3514D4C46514B4FF00068DFF83C
:1046A00050C14FF0010BC5F800903D46C3F8009093
:1046B000DCF80030DFF814A119464A4BD3F800901B
:1046C000CCF8001044EA09004149DFF82091186055
:1046D0003B681EE02B6803F07F030133B2EB930FBE
:1046E00034BF4FF080634FF08C630360DAF8003022
:1046F00013F4803318BF4FF08043CEF800302B689E
:104700000134304803F07F03E4B2013322469C4277
:104710001AD22B682F4803F07F032F4F2044013318
:1047200027440001B2EB530F4FEA870ED2D3C0F8F3
:1047300000802B68980028D41F2C0BFA04F22BD889
:104740000B6813430B60DAE7009B3BB90368024632
:1047500023F0805303601368D901FCD4194B196806
:104760001A4621F0805119601368DB01FCD442F62F
:104770000C1301221C49F35803F01F005B0982400F
:1047800041F8232005B0BDE8F08F0191FFF78CFEC2
:1047900084420199B3D3CFE7A4F12003D9F80020D4
:1047A0000BFA03F31343C9F80030A8E7DC03002039
:1047B00000C00F4000740020A520000000801F40B2
:1047C00000841F4000401D4004401D4034401D40F7
:1047D00028401D4008D401042052071048401D40C5
:1047E00010401D4030401D4000E100E024401D40CD
:1047F0002C401D400B6A0D4A23F47F73106843F46C
:1048000080730B6200283FF49CAE01F5582142F6FC
:104810001012036804315B68096811F0080FB15881
:1048200014BF0222002298478BE600BF047C0020C0
:104830002DE9F0436C4DADF5245D40F2EE286B4C54
:104840008BB02E686A4FDFF8E89104E0B3F5FA6F99
:1048500015D802F033F902F031F9237843B13B78EF
:10486000DB0705D52B68D9F800209B1A0E2B06D83C
:104870002B6822789B1B002AE8D14345E9D95D4C7F
:1048800007215D4802F094F85C4800F005FC5C4E9E
:1048900020465C4FFFF73EFE204600225A49FDF7B6
:1048A000E7FD3046594A702100F070FB06F10C0319
:1048B00093E807008DE80700554896E80E00FFF7DB
:1048C00077FD231D05AE0FCB86E80F0042F62816B4
:1048D000504B04F1140109A86E4441F60632F3511D
:1048E00000F076FE41F62A304FF4DB724A4942F27C
:1048F0000177684442F2117600F06AFEC822474907
:104900000DF5E75000F064FE41F6A85066224449D8
:1049100068446E4400F05CFE41F6106004F5F0510E
:104920004FF44072684400F053FE42F2101004F558
:1049300004514FF4C062684400F04AFE04F51C5371
:1049400042F2107E42F214701B784FF48072EE44F3
:104950003449DBB268448EF80030E35DDBB233707B
:1049600000F036FE42F6040042F614034FF4807263
:104970002D49265842F618006B4468441E6000F02A
:1049800027FE42F6081642F60C1142F6141042F6C3
:10499000101242F61513A75914F800E0665804A93E
:1049A000E35CA25842F6181420486C44276042F693
:1049B0001C146C44266042F620146C44226042F6BB
:1049C00024126A4482F800E042F625126A44137009
:1049D000FDF706FF29681548FDF7A8FF0DF5245DD2
:1049E0000BB0BDE8F08300BF60E500207FE500204C
:1049F0007EE5002098920020CC440020F46700203F
:104A000080920020E8D6FFFF90D0030004680020C9
:104A1000D4E40020342B0020B2AD002068AF002089
:104A200030B000209CB90020A0BA0020B0BB00200C
:104A3000F4E50020F8B5304F0024304E3846304DB4
:104A400002F0F4FC324638462E4902F0C9FA41F62B
:104A50001C372D4B41F61A3041F61E3C41F6D04131
:104A600041F6D2429C8241F6D44EDC821C831C5219
:104A700041F69850DC5341F69A5723F80C4041F622
:104A80009C5C5C5203F51C519C5242F2017223F86B
:104A90000E4042F60C1E1C5242F61010DC5342F639
:104AA000141723F80C400C7018499C54184A1960CC
:104AB0001C5018491848136043F80E40DC55FFF7A6
:104AC000FBFA16491648FFF7F7FA16491648FFF79A
:104AD000F3FA164800F0A2FA1548FFF751FB2246F8
:104AE00028461449FDF70AFE324628461249BDE819
:104AF000F84002F075BA00BFBC910020E8670020C2
:104B0000B0BB00205950000098920020342B0020A8
:104B1000047C00201C72002064920020F4710020AC
:104B20002C920020087200204892002080920020E1
:104B3000D4E4002030720020CD0300000020704734
:104B400090F8A32090F8A200101A704790F8A230B5
:104B500090F8A3209A4205D95A1C034480F8A22059
:104B6000987E70474FF0FF30704700BF90F8A2303A
:104B700090F8A3209A4202D90344987E70474FF0E0
:104B8000FF307047704700BFB0F8303193B190F8F4
:104B90002F31882B0BD8C21810B45C1C012380F86D
:104BA0002F41184682F8A5105DF8044B704701228A
:104BB000002302711846704738B50546B0F8300139
:104BC00090B195F82F311446C3F1890294420CD864
:104BD00005F1A5002246184400F0FAFC95F82F31A3
:104BE00020461C4485F82F4138BD144601222A7105
:104BF000EEE700BF2DE9F04F8346404883B015250E
:104C0000DBF814A09BF818609BF819300AEB061625
:104C10003B490AEB0313DFF8ECE0367A0C4693F8D5
:104C200028303601DFF8E0901B01871950F8068024
:104C300000EB030CC658F8687B68DCF80C70009336
:104C40001D60C8F88400D8F80430DCF80420034361
:104C50000192C8F804301560C6F8847073683B434D
:104C600073600968DEF80030A9FB0332920C02EB96
:104C70008202520023685B1A9A42FBD8204A092517
:104C8000DFF884C09146D8F80830184202D0B368E3
:104C90001F4231D1C6F888701468DEF80010ACFBF2
:104CA0000131890C01EB810113681B1B9942FBD870
:104CB000C6F88470D9F80040DEF80010ACFB013172
:104CC000890C01EB810113681B1B9942FBD8013D44
:104CD000D9D128469BF81830009A0AEB0313DB68F9
:104CE00013609BF81930019A0AEB031ADAF82C309A
:104CF000136003B0BDE8F08F0120EBE7BC3E00205D
:104D0000041000E0F067002083DE1B430D490269B8
:104D100010B50C6805E0DB0107D40B681B1B102BDA
:104D200008D8536913F0007FF5D14FF4FE430120FA
:104D3000536110BD0446FFF75DFF0028F9D02269DA
:104D4000F3E700BF60E500202DE9F04790F82FA1C0
:104D5000BAF1000F02D10420BDE8F08705460E46E7
:104D6000FFF7D4FF0028F6D02E4F00244FF400792F
:104D7000D7F80080544529691AD8CB6D03F0070392
:104D8000032B09D914E095F8A5200133012442F43E
:104D90008062042B0A660BD02A19002CF3D0A2459E
:104DA00027D9013392F8A5200134042B0A66F3D1E8
:104DB0004B69180522D45A0527D4980404D43A68BC
:104DC000C8EB0202322A09D90B694FF400720420A1
:104DD00043F440730B610A66BDE8F087544505D97A
:104DE000CA6D520702D19B0519D4C6B101F066FE07
:104DF000C0E70EB1C1F860900134D9E70B69042017
:104E000043F440730B61BDE8F0870B694FF4007207
:104E1000022043F440730B610A66BDE8F08700206E
:104E2000BDE8F08760E50020036970B5D3F8145140
:104E3000044615F4706201D0C3F81421AE070BD5F7
:104E4000D3F87011080442D50022012084F8A22072
:104E5000224484F8A3009176EA0710D594F83061D3
:104E600016B394F82E6194F82F21B2422BD9721CFC
:104E7000264484F82E2196F8A520C3F86021AB05BE
:104E800011D594F8A30018B1D4F83C3103B1984778
:104E9000002384F8A23084F8A33084F82E3184F8FB
:104EA0002F3184F8303170BDD4F838210AB19047E1
:104EB00023690122002184F8302194F82F2184F8FD
:104EC0002E11B242D3D80022C3F86021D7E794F85C
:104ED000A320872AC0D8501CC0B2B9E70148FFF709
:104EE000A3BF00BF046800200148FFF79DBF00BFBB
:104EF000446900200148FFF797BF00BF846A002083
:104F000004290BD810B4064C22445DF8044B12F867
:104F1000202C42EAC313DBB220F81130704700BFE7
:104F2000B8210060032910B584B00DD9812204A9ED
:104F300001230024006901F8012D1A460194009410
:104F40002DF0CCF904B010BD4A0062F07E02D2B25E
:104F5000EDE700BF70B588B00023841E08A907AE36
:104F600001F8143D0B4634F8022F15125A7003F85D
:104F7000025FB342F7D1002200690123019200923F
:104F800011222DF0ABF908B070BD00BFF0B504469A
:104F9000006985B00E46174610B1102100F0BAFB2B
:104FA000102000F0AFFB054631463A462DF060F97F
:104FB0002561284601212DF081F9064610B93046B9
:104FC00005B0F0BD04A9002501232122206901F8C4
:104FD000042D1A46019500952DF080F92A46A31E4E
:104FE00004F10E0123F8022F8B424FF00005F9D196
:104FF0002046FFF7AFFF29462046FFF793FF2069C1
:1050000004A90123EF24019500951A4601F8014DEA
:105010002DF064F9304605B0F0BD00BF00220261FA
:105020000275704709B981807047022383807047F9
:1050300004290DD80F2A0BD8092A0AD90B3A70B4C3
:105040001E46042A0ED8DFE802F012171C082100C1
:1050500070473032D2B2FFF753BF3346452270BC9F
:10506000FFF74EBF3346612270BCFFF749BF33469E
:10507000422270BCFFF744BF3346432270BCFFF7A7
:105080003FBF3346642270BCFFF73ABF3346462227
:1050900070BCFFF735BF00BF10B5064C82B0036887
:1050A0000222248801A95B68ADF80440984702B049
:1050B00010BD00BF20040020036810B514465B68D3
:1050C0009847204610BD00BFF0B506468BB0002AB9
:1050D00033D0012A08BF0A2251B3212500E0FDB2D6
:1050E0006F1EB1FBF2F402FB1411C8B2092900F1E2
:1050F000370100F1300088BFC8B221460AAC98BF22
:10510000C0B22C4404F8240C0029E8D133B1013D8D
:105110000AAB2D22EDB22B4403F8242C336801A9ED
:10512000C5F12202304629445B6898470BB0F0BDB8
:10513000302221258DF82520E8E70368C9B21B68D5
:1051400098470BB0F0BD00BFF0B5194C23680BB306
:105150001849DD17DFF868E083FB0167164E81FB15
:105160000321DA191944C5EB2242C5EB214144F26F
:10517000A7150EFB123206FB01F105FB0213002BF3
:105180000FDA6FF000421A44B2FBF0F3226000FB2A
:105190001320F0BD094AB2FBF0F3226000FB13209C
:1051A000F0BD1A46B2FBF0F3226000FB1320F0BD05
:1051B000007C00205F0B4E83ECF4FFFF42CE0C1FFF
:1051C0001DF30100884206DA10B50446081AFFF7FD
:1051D000BBFF204410BD7047964A974B90422DE983
:1051E000F043964CD3F814E09969E6681CD9944BC7
:1051F000984240F21581934B40F22765924F034449
:10520000924C1A0AA7FB0232D30903EB830303EB88
:10521000830202F2E243AB4228BF2B46A3F5487358
:10522000A4FB0335ED0804E0894DA84294BF062590
:105230000E25814A06F01F07D2F88030AF4243F0B6
:10524000C003C2F880300AD27C4B26F01F061A46F3
:105250002E43DE601368002BFCDA06F01F071EF0F9
:10526000007331D17B4C7C4AD4F810C014460CEA50
:105270000202A2420ABF4FF0C0534FF480520022F4
:105280008EEA030414F0605F08D02EF0605E03F035
:105290006053694C43EA0E0EC4F814E081EA02033D
:1052A00013F4405F08D0644B21F4405111431A4677
:1052B0009961936C1C07FCD44EF0007E5E4AC2F8E4
:1052C00014E0936C9906FCD40121644C0A4601FB5E
:1052D00002F300FB03F3A34209D8072A00F29580EA
:1052E000013201FB02F300FB03F3A342F5D95C4852
:1052F0005C4C1844A4FB00031B0D6C2B00F28B804C
:10530000352B00F28F80DFF8888136235648DFF88E
:1053100044C1564CDCF80090B0FBF2F009EA0404FA
:105320004445B0FBF1F00BD043F400534FF48058E8
:105330006446CCF80080CCF800302368002BFCDAFF
:10534000DFF8F4C0013ADCF8103003F007039342B1
:1053500007D002F007026446CCF81020A36CDB03F0
:10536000FCD4013989028EEA010313F4E05F0CD00A
:10537000314B2EF4E05E01F4E0511A4641EA0E0E84
:10538000C3F814E0936C9907FCD4394B39490344B2
:10539000DB09A1FB0331090B042928BF04214B1EA3
:1053A0001B028EEA030212F4407F07D02EF4407EE7
:1053B00003F44073204A43EA0E0353611E4B5C69B9
:1053C0001A4624F000745C61936C9B06FCD42A4B53
:1053D0004FF0FF32294CBD42A3FB00E320604FEAAF
:1053E0009343274CB2FBF3F3B0FBF1F1254A216064
:1053F000136008D2114B26F01F061A462E43DE60BA
:105400001368002BFCDABDE8F08304293FF66FAF88
:10541000013101225BE7DFF87C806C231A4876E7D4
:10542000122506E71948DFF8708000FB03F043EA15
:1054300008086CE700A4781F00C00F400000084077
:105440000046C32300BA3CDC23B24C001F85EB515D
:1054500000366E0100800D4040300080FFB19F2675
:10546000808D5B00819F5E1600B29F267F30018099
:105470007FD1F0089F10E50083DE1B43F06700201A
:10548000EC67002058E5002000643F4D001BB7008A
:10549000362000806C20008000200080002857D03B
:1054A00001222DE9F04F85B083462A4C2A4D2B4E20
:1054B000DDE9028954E8003F2868336844E80021A8
:1054C0000029F7D1264FCDE902893A68D31A254A37
:1054D0004FF47A7E019712680127A3FB02234FF451
:1054E0007A72984600238B4208BF42452CBFC246C1
:1054F000F2460EFB00AA54E8003F2A68316844E8EF
:105500000073002BF7D101980068411A15484FF439
:105510007A7E00680EFB02F2A1FB00014FF47A7064
:10552000CAEB020288460021994208BF40452CBFC1
:10553000434673461A44724507D3BBF1010B0AF583
:105540007A7AD8D105B0BDE8F08F01F0B7FAD2E78A
:10555000704700BFE0E5002060E500205CE500202A
:10556000041000E058E5002000010F4B1A181B58EA
:1055700010B4D0685C68044205D059B1C3F8840007
:105580005DF8044B7047936849B9084A5DF8044BCD
:105590001A607047C3F888005DF8044B7047044AEE
:1055A0005DF8044B1A607047BC3E002038300100A3
:1055B00038F00100362801D8FFF7D6BF704700BF8A
:1055C00008B5FFF735F9FEF795FF01F077FAFAE72E
:1055D000844641EA000313F003036DD1403A41D3FE
:1055E00051F8043B40F8043B51F8043B40F8043BBD
:1055F00051F8043B40F8043B51F8043B40F8043BAD
:1056000051F8043B40F8043B51F8043B40F8043B9C
:1056100051F8043B40F8043B51F8043B40F8043B8C
:1056200051F8043B40F8043B51F8043B40F8043B7C
:1056300051F8043B40F8043B51F8043B40F8043B6C
:1056400051F8043B40F8043B51F8043B40F8043B5C
:1056500051F8043B40F8043B51F8043B40F8043B4C
:10566000403ABDD2303211D351F8043B40F8043BEC
:1056700051F8043B40F8043B51F8043B40F8043B2C
:1056800051F8043B40F8043B103AEDD20C3205D3FC
:1056900051F8043B40F8043B043AF9D2043208D0F4
:1056A000D2071CBF11F8013B00F8013B01D30B8866
:1056B00003806046704700BF082A13D38B078DD044
:1056C00010F003038AD0C3F10403D21ADB071CBF16
:1056D00011F8013B00F8013B80D331F8023B20F880
:1056E000023B7BE7043AD9D3013A11F8013B00F8B9
:1056F000013BF9D20B7803704B7843708B78837041
:10570000604670472FF0CEB82FF0CCB82FF0D2B84B
:105710002FF0D0B82FF0CEB8F0B44E1E002537468B
:1057200000E00135B0FBF2F302FB130000F1370497
:10573000092800F13000E4B298BFC4B2184607F857
:10574000014F002BEDD14A1953704DB1013316F8BA
:10575000014F1778E81A3770834202F80149F5DBE8
:105760000846F0BC704700BF72B6EFF30583494DA1
:105770006B60EFF30883484C2E4648484849494A35
:1057800024680068096812682961AC60E8606A6191
:105790009A69454CAA61DB69444FEB6100F0E6F879
:1057A00085ED080A01F092FB0B234FF0FF3268628F
:1057B00019462B604A40202102F00103013904FB05
:1057C00003F383EA5202F7D1BE4202D056F8041F17
:1057D000F0E730498A62BFF34F8F354B354A196085
:1057E0001A60BFF34F8FBFF36F8F334A0225334CDC
:1057F000D36E334943F440533248D3662560D369AE
:1058000023F07F0343F04003D3610B6883423ED80B
:105810002A4A002101202C4E11604FF0FF33C2F8BC
:1058200008110C46C2F800611546C2F80801074687
:10583000DFF8C0E0254E26482649274ACEF800303A
:10584000336003600B60136001E000F073F9D5F87A
:105850000C211A4B002AF8D00134C5F80C714F2CDA
:10586000F3D91E4A02241E484FF00041C0F84041BF
:105870005163D3F80C2132B91A491B4A0A63D3F891
:105880000C010028FAD0194B194A1A60FEE7FFF7FD
:10589000A3FCBDE780FF272028ED00E02CED00E011
:1058A00034ED00E038ED00E02083B8EDA4FF2720C0
:1058B00070EF00E0A0FF272000C00F40004008402C
:1058C000F0670020803DCD0B009F240084E100E0C4
:1058D00088E100E08CE100E090E100E000900D4004
:1058E00000002E4000800F40F100AD0B0CED00E0F9
:1058F0000400FA0580E100E0094A08B5136820B108
:1059000018440849884202D81060184608BD2DF096
:1059100075FE0C224FF0FF330260184608BD00BF31
:10592000506C002000002820002070474FF0FF300E
:10593000704700BF4FF4005300204B60704700BF1A
:10594000012070474FF0FF30704700BF30BFFDE7C8
:105950000078B0FA80F04009704700BF012303705F
:10596000704700BF30BFFDE7FFF7FEBE12490B686E
:10597000114A5B07FBD513681049C3F30B23104A88
:1059800007EE903A0B6892ED006AB8EEE77A07EE00
:10599000903A0C4AF8EE677A0B4BD2ED006A77EE3C
:1059A000677A93ED007AB8EE477A67EE867A87EEEB
:1059B000A60A37EE400A704780810D4048E5002076
:1059C00050E5002054E500204CE50020836BF0B446
:1059D0001BB1536843F40043536072B6446B5CB32D
:1059E0001C4B2260D3F8B0410C4215D11A4E3768D7
:1059F00004E03468E41BB4F5166F0BD2D3F84041D1
:105A000044F48044C3F84041D3F8B851D3F840413E
:105A10006404EED50D4003D0426362B6F0BC70471B
:105A20000C4C8260C560D4F8B0311943C4F8B01191
:105A3000426362B6F0BC7047064D8260C460D5F820
:105A4000B0311943C5F8B0110263426362B6F0BCCD
:105A5000704700BF00002E40041000E070B50646FD
:105A6000006B90B10246002403E012680134012A61
:105A70000CD0536813F08003F7D032632CB1B36BB2
:105A800005689847013C2846F9D170BD33637363BC
:105A9000F4E700BFF0B5E1B9214C22490020224BC8
:105AA00001224FF0011580260A601A46A1604E605F
:105AB000E060C3F8BC51D3F8B0411C4D44F0010480
:105AC0008860C3F8B0412860D2F8B031002BFBD118
:105AD000F0BD0904164B144D0126114C41F0800114
:105AE00000221E60596000F5805CE26400F5005EF3
:105AF000A36400F54057D5F8B01100F580462A465A
:105B0000986041F48031C3F80CC0C3F810E05F61C5
:105B10009E61C5F8B011D2F8B031002BFBD1BCE7C3
:105B200000000020C0E5002000002E402092002050
:105B3000A0E500202DE9F04FB94C83B0D4F84481A2
:105B400018F0010FC4F844815ED0D4F8AC31002BBA
:105B500055D04FF0011BDFF8EC92B24E2546DA46E5
:105B6000C4F8AC31B06AF26AD4F8403143F400535F
:105B7000C4F84031D4F840319F04F5D5D5F8403110
:105B800023F40053C5F84031C5F8B4A1D4F8B431BA
:105B900013F00113FAD181B240F28167C9F80030E5
:105BA000B94200F2AD80B1F5D06F80F0DE81B1F581
:105BB000817F00F0608100F2E880802900F04E8152
:105BC000822940F0DA8092B202F07F01072900F2C8
:105BD000D48089009448954F0844016810063B70B2
:105BE0007B7040F10182CA0301D501233B70022181
:105BF0008E48FFF74FFFD4F8AC31002BB0D1884A64
:105C0000D2F8BC31002B49D118F0400F18D0844B8A
:105C1000D3F8AC111A46C3F8AC11D3F8BC11C3F8D1
:105C2000BC11D2F8B0417E4B002CFAD14FF0FF32BC
:105C3000C3F8B421D3F8843100F032FD7C4B1C60F2
:105C400018F0807F03D07B4B1B6803B1984718F096
:105C5000007F03D0784B1B6803B1984718F0040FFE
:105C600008D06F4BD3F8843113F4007345D0734BD5
:105C700001221A706A4BD3F8482112060BD518F08E
:105C8000800F08D06E490A782AB1013AD2B20A7060
:105C9000002A00F0428203B0BDE8F08F6949C2F8E3
:105CA000BC310868034240F0E281614A15681D403A
:105CB000AAD02F0C0FD05B4E4FF0010997FAA7F432
:105CC000B4FA84F406EBC41009FA04F44030FFF788
:105CD000C5FEA743F2D1ADB2002D95D0514E01279C
:105CE00095FAA5F4B4FA84F406EBC41007FA04F4A8
:105CF000FFF7B4FEA543F3D186E7504A1370B9E726
:105D000042F22107B94234D067D8B1F5086F00F0EC
:105D10001E81B1F5106F30D1C0F307404A4A4B499C
:105D200010704B4F4B4A0193C5F8C871C5F8CC11A0
:105D3000C5F8D02100F0B6FC474A019B8021012024
:105D4000B26451601060F364C5F8BCB1D5F8B0110D
:105D5000936041F48032C5F8B0213A4A1360D4F818
:105D6000B031002BFBD1D4F8AC31002B7FF4F8AE6E
:105D700045E7110C072900F03B81C4F8C0B1D4F805
:105D8000AC31002B7FF4ECAE39E740F20237B94278
:105D900000F0AD80B1F5A06FEFD12F4A802101272F
:105DA000F364B26417605160C5F8BCB1D5F8B011A6
:105DB000936041F48033C5F8B031D4F8B031002B92
:105DC000FBD1030C5B0643F08073C5F85431D4F863
:105DD000AC31002B7FF4C4AE11E742F2212399428B
:105DE00079D042F221339942C7D11B4B8022002146
:105DF0000120B36418605A60F164C4F8BCB1D4F8EF
:105E0000B021996042F48033C4F8B031D4F8B03195
:105E1000002BFBD1D4F8AC31002B7FF4A1AEEEE621
:105E200000002E4000000020C0012E4010E50020A0
:105E30002492002064E5002068E5002080E5002031
:105E400081E50020209200207FE50020C8000200AC
:105E50000200CC000200C800C0E50020B64A0221C2
:105E6000104613705370FFF715FED4F8AC31002BB9
:105E70007FF476AEC3E692B202F07F03072B3FF6C3
:105E80007CAF12F0800F4FEA8303AC4A4FF0000161
:105E90004FF001001A44136814BF23F4803323F039
:105EA000010313608022A64BF164B36418605A604A
:105EB000C4F8BCB1D4F8B021996042F48033C4F87E
:105EC000B031D4F8B031002BFBD1D4F8AC31002B79
:105ED0007FF446AE93E692B2002A86D1994BC0F386
:105EE0000740994A1968994B116018707DE792B282
:105EF00002F07F03072B3FF640AF12F0800F4FEA0E
:105F000083038E4A4FF000014FF001001A441368DA
:105F100014BF43F4803343F0010313608022884BA5
:105F2000F164B36418605A60C4F8BCB1D4F8B0210D
:105F3000996042F48033C4F8B031D4F8B031002B0A
:105F4000FBD1D4F8AC31002B7FF40AAE57E6804A7F
:105F50000121794B127818461A70FFF79BFDD4F88F
:105F6000AC31002B7FF4FCAD49E67A4B596800292F
:105F70003FF403AF000C1FFA82FE04E00C335968B3
:105F800000293FF4FAAE1F888742F7D15F88774532
:105F9000F4D1070A032F00F0BA801B89120C934238
:105FA00028BF1346B0F5007F00F0A280B0F5E06F87
:105FB00000F08B80684F1A4601933846FFF708FBC4
:105FC000019B27F01F021F44BFF34F8F63490A60F4
:105FD00020329742FAD8BFF34F8FBFF36F8F5E48DE
:105FE0001946FFF757FD06E6CB077FF500AEFCE547
:105FF0005B4F4FF0010EF3605A495B4B3860C3F8BA
:1060000000E05960B3605949D5F8B0017A6001F5F4
:10601000805740EA0E02996001F5005E01F540509C
:1060200001F58041C5F8B021DF60C3F810E0586188
:106030009961D4F8B031002BFBD1414A012048F2DC
:106040008001F36410604FF48030B2645160C5F891
:10605000BCB1D5F8B011936041EA0003C5F8B03186
:10606000C9F80000D4F8B031002BFBD1C3E53C489F
:1060700042F22104002605880E60A54240687FF4A4
:1060800014AE81B200297FF410AE3849384C03C9F0
:106090000D0C86282060A180A5717FF406AE72B633
:1060A0003448017841F004010170D2F84811080623
:1060B00006D441F080018020C2F84401C2F84811A2
:1060C00062B62D4A50211170EFE52C481A46224F36
:1060D00090F800E02A492B480193BEF1000F08BF59
:1060E00001463846FFF774FA0722019B7A7068E789
:1060F00022481A462349077821480193002F08BFF8
:1061000001461548FFF764FA134F019B59E7120C3B
:106110000B78934228BF134648E716490A7802F0E5
:10612000FB020A702AB9D3F8482122F08002C3F892
:1061300048213BF041FC00BF10E50020C0012E408B
:10614000C0E5002060E50020F4E500207EE50020A9
:106150007FE50020F46200200000202070EF00E0C6
:106160004078002080000700A0E500201892002061
:10617000F8E500207AE5002081E5002080E5002098
:106180004C23006098230060002AA0F102022DE950
:10619000F04714BF00274FF00057022A01D9BDE88D
:1061A000F0874FEAC019DFF840A00D4604460AEB1D
:1061B000090600214022984630462EF097FF012024
:1061C00047EA05414AF80910C6F83880B060B8F1CE
:1061D000000FE4D0034BA0401C6820431860BDE8CA
:1061E000F08700BF2492002000000020002AA0F1C8
:1061F00002022DE9F04714BF00274FF00057022A92
:1062000001D9BDE8F0874022C501DFF844908846F7
:106210001544002104461E4609EB050A50462EF09F
:1062200065FF012247EA084149F80510CAF83860BD
:10623000CAF80820002EE4D004F11000034B82407D
:10624000186802431A60BDE8F08700BF249200205E
:106250000000002012048160C36142F08002F0B4AB
:106260004260012701F5805601F5005501F54054C3
:1062700001F580420760C660056144618261F0BC3F
:10628000704700BF831E022B00D97047064B0A4699
:1062900030B400F11004012503EBC01005FA04F13D
:1062A000403030BCFFF792BB00000020831E022B61
:1062B00000D9704710B4054B01240A4604FA00F1D6
:1062C00003EBC0105DF8044BFFF780BB000000201B
:1062D00040687047124A134BD2F8200220F07F40EA
:1062E000984210B584B002D800EB800040000E4CFC
:1062F00001A90A22FFF710FA01A90023204611F88C
:10630000012B01333AB10A2B20F8022FF7D11623C3
:10631000237004B010BD5B00DBB2237004B010BD6D
:1063200000441F407F9698008072002000F0E0BA81
:1063300000F0B2BA00F016BB00F0D0BA00F06CBBAF
:1063400000F042BB0846114600F032BB084600F0A0
:1063500019BB00BFF8B514494FF40037134D03467D
:1063600001EB4024124E134A05EB401521461760FD
:1063700028463288FFF76EFF318824F01F0321443E
:10638000BFF34F8F0C4A136020339942FBD8BFF301
:106390004F8FBFF36F8F03202946FFF787FF074B0F
:1063A0004FF400321A60F8BD60002020C076002053
:1063B0006CE500208CE100E05CEF00E00CE100E027
:1063C000244A43682DE9F041C3F30E431488C5699C
:1063D000E41A002C38DD2049204A0B781278DBB211
:1063E0001F48204E934207D010F8038036F81870EB
:1063F000C7F50072944212D9013300221A4F082BBC
:1064000026F8154027F81520184E94BFDAB2134627
:106410000A703268C55414443460BDE8F081144BEE
:1064200007EB48202246274403EB45211844FFF799
:10643000CFF80E4A284626F8187013681C441460DA
:10644000BDE8F041FFF786BF2846BDE8F041FFF701
:1064500081BF00BF6CE5002078E5002079E50020D1
:106460003CE500201CE500202CE5002018E500207C
:10647000600020201E4B1A785AB902F0FF031D4A13
:10648000127832B12DE9F0411B4D2A8812B9BDE8CE
:10649000F0817047194EC2F50068194F31784246B5
:1064A000184C07EB411704EBC12438462146FFF78F
:1064B000D1FE08EB040224F01F01BFF34F8F124BF3
:1064C000196020318A42FBD8BFF34F8FBFF36F8F23
:1064D00004203946FFF7D6FE3378084A0133DBB291
:1064E000032B88BF0023137000232B80BDE8F081AD
:1064F0007DE500207FE500206EE500207CE50020A2
:10650000C07700206010202070EF00E02DE9F04FF0
:1065100085B002900091002900F0AB800023564D19
:10652000DFF87481DFF860A1544FDFF870B1019398
:106530000122534B2A701C78524AB8F8003002EB03
:10654000441923BB1E461C464846FFF7C1FE10F007
:1065500080007ED0BFF34F8F00229AF800304A4966
:106560002A7004B93E68002B5AD13B689B1B782BDC
:1065700079D89BF80030002B52D000F09FFA01240C
:10658000B8F800302C70002BDED03D4A14781A4643
:10659000C3F50060E402009E3C4920449642084452
:1065A00042D30C440299FFF713F8002321464FF41D
:1065B00000624846FFF74EFE24F01F0304F5006416
:1065C000BFF34F8F324A136020339C42FAD8BFF397
:1065D0004F8FBFF36F8F04204946FFF753FE284BC0
:1065E000274A1B78009801332A49DBB2032B88BF66
:1065F000002313700022B8F80030A8F80020C01A59
:106600000090019818440190029818440290C1F833
:106610008420BFF34F8F00232B70009B002B87D16A
:10662000019805B0BDE8F08F009C0393019B2246C2
:10663000029923440193FEF7CBFF039B4FF04041A7
:10664000144A00201B1B0090A8F80030C2F88410E8
:10665000DFE74FF400630A4A8AF8000014781A460C
:10666000A8F8003096E7012301980B7005B0BDE84B
:10667000F08F0098D5E700BF7DE5002060E50020A1
:106680007CE50020C07700207BE500206010202002
:1066900070EF00E000002E406EE500207FE5002056
:1066A000704700BF314B2DE9F0411B78304F002B74
:1066B00054D04FF40073DFF8EC803B80A8F8003032
:1066C000002180222B480D462B4E2EF00FFD2B4C27
:1066D0002B4B29464FF480722A4825702C461D808A
:1066E0002EF004FD35602B4675602A46B560F560D6
:1066F0002549264E2648DFF8B0E00D7010210570C0
:10670000022035607560B560F560CEF80050FFF787
:106710006DFDB8F800102A461E4B0320FFF734FD2C
:106720002B46398801220420FFF760FD2046013402
:10673000FFF710FE082CF9D1174B4A221748002109
:10674000174C0460C3F88410C3F88020D3F84821A4
:1067500042F08072C3F84821BDE8F0814023DFF8A1
:1067600044803B80A8F80030AAE700BF80E5002005
:1067700070E50020C07700201CE500207CE50020AB
:106780006EE50020C076002078E500202CE5002092
:1067900079E50020D13F000000002E4064E5002094
:1067A000854000006CE5002018E50020314B4FF4D7
:1067B00000322DE9F04F1A6083B02F4B89461C78C8
:1067C000002953D02D4BE4B21B789C4250D0824616
:1067D0000027DFF8C0B00134294BC7EB0908504649
:1067E000092C0193274B28BF00241D5D244B33F84F
:1067F00015E0254B0EEB452133F81560234BCEEB0E
:1068000006061944B0453246374419D20EEB4521ED
:1068100042461944FEF7DCFE019BDBF800104846B7
:1068200033F81520C8EB01019044CBF8001023F891
:106830001580174B4FF400321A6003B0BDE8F08F9B
:10684000FEF7C6FEDBF80020E3B22846921BB244F6
:10685000CBF80020084A1370FFF77CFDB94503D937
:10686000064B1B789C42B6D13846E2E70846E0E783
:106870000020DEE78CE100E079E5002078E50020EB
:106880002CE500203CE500201CE5002060002020D5
:106890000CE100E018E500200B4B0C4A1B78127845
:1068A000DBB293420DD0013309480A4A092B0A4949
:1068B00028BF0023C35C31F8131002EB4323585C5C
:1068C00070474FF0FF30704779E5002078E50020F1
:1068D0003CE50020600020202CE50020034B10B593
:1068E0001C680CB900F0EAF8204610BD18E500203D
:1068F0002DE9F84F154E164D34782B78E4B29C42B2
:1069000021D0DFF85490DFF854B0DFF85480114FF5
:106910000134082C5FFA84FA01D90024A24619F840
:106920000410DBF8002038F81130084637F8111051
:106930005B1AD31ACBF80030FFF70CFD86F800A0E5
:106940002B789C42E4D1BDE8F88F00BF79E50020A8
:1069500078E500202CE500203CE5002018E500202B
:106960001CE5002000B583B001210DF10700FFF701
:106970001DFF20B19DF8070003B05DF804FB4FF048
:10698000FF30F9E7094B00B583B01B788DF807009D
:1069900023B903F0FF0003B05DF804FB01210DF102
:1069A0000700FFF7B3FD03B05DF804FB7FE50020AF
:1069B000044B1B7803F0FF020BB1FFF7A7BD104695
:1069C000704700BF7FE500202DE9F0410024DFF88B
:1069D000448001230D4D27460D4E88F80030337852
:1069E00028462035A34204F1010405D0FFF770FCCE
:1069F000030658BF07F50067042CF0D1BFF34F8F93
:106A00000023384688F80030BDE8F081C0770020C8
:106A10007CE500207DE500202DE9F843204B1B7824
:106A200013B1204D2A880AB9BDE8F883DFF88880C1
:106A3000C2F500691C4E4FF0010E98F800104A464E
:106A40001A4C002306EB4116194F04EBC1243046C3
:106A500087F800E02146FFF7FDFB09EB040224F074
:106A60001F01BFF34F8F134B196020318A42FBD8AF
:106A7000BFF34F8FBFF36F8F04203146FFF702FC47
:106A800098F800300C4A0133DBB2032B88BF002397
:106A9000137000232B80BFF34F8F3B70BDE8F8834A
:106AA0007FE500206EE50020C077002060102020E8
:106AB0007DE5002070EF00E07CE500202DE9F84343
:106AC000324E337893B1324F3A787AB90122D907EE
:106AD0003A7037D49A0719D400225B073A7005D56B
:106AE0002C4B1A6812B1EFF305820AB1BDE8F883A6
:106AF000EFF3108072B61A681AB1274C217800297A
:106B00002FD00028F2D162B6BDE8F883DFF8948078
:106B100098F80020002ADFD00024DFF88C9005E0F0
:106B2000013498F80030E4B2A34213D959F8245044
:106B30002B6828461B6998470028F1D06B699B6831
:106B40009847EDE7FFF7CAFED0B9144B1B781BB985
:106B50003378BFE73378BFE7337803F0FE03337051
:106B6000B8E70126556926701D6065B1A96100B9B5
:106B700062B6002593681046557798472570B5E7AB
:106B800000F0BCF9E1E7064B1D60F0E797720020CA
:106B900074E50020788A002072E50020EE23006072
:106BA000848A002073E50020888A002070B5EFF306
:106BB000108172B60C4C23688BB10C4E00255A69BB
:106BC00022607AB1956101B962B65D7718469B681B
:106BD0009847EFF3108172B62368002BEFD101B90B
:106BE00062B670BD3260EEE7808A00207C8A0020A9
:106BF000FFF7DCBF044A054B1168054A19601368AA
:106C000001331360704700BF041000E05CE5002012
:106C100060E50020A4484FF00F0CA44B826F42F4B3
:106C20007F02F0B582670025D0F880204FF47046CF
:106C30009F4C4FF4604E29464FF4806714432A4618
