:0200000460009A
:100000004643464200000156000000000103030081
:1000100000000000000000000000000000000000E0
:1000200000000000000000000000000000000000D0
:1000300000000000000000000000000000000000C0
:1000400000000000010408000000000000000000A3
:100050000000800000000000000000000000000020
:100060000000000000000000000000000000000090
:100070000000000000000000000000000000000080
:10008000EB04180A063204260000000000000000FD
:10009000050404240000000000000000000000002F
:1000A0000000000000000000000000000000000050
:1000B0000604000000000000000000000000000036
:1000C0000000000000000000000000000000000030
:1000D00020041808000000000000000000000000DC
:1000E0000000000000000000000000000000000010
:1000F0000000000000000000000000000000000000
:10010000D8041808000000000000000000000000F3
:100110000204180804200000000000000000000095
:1001200000000000000000000000000000000000CF
:10013000600400000000000000000000000000005B
:1001400000000000000000000000000000000000AF
:10015000000000000000000000000000000000009F
:10016000000000000000000000000000000000008F
:10017000000000000000000000000000000000007F
:10018000000000000000000000000000000000006F
:10019000000000000000000000000000000000005F
:1001A000000000000000000000000000000000004F
:1001B000000000000000000000000000000000003F
:1001C000000100000010000001000000000000001D
:1001D000000001000000000000000000000000001E
:1001E000000000000000000000000000000000000F
:1001F00000000000000000000000000000000000FF
:10020000FFFFFFFFFFFFFFFFFFFFFFFFFFFFFFFFFE
:10021000FFFFFFFFFFFFFFFFFFFFFFFFFFFFFFFFEE
:10100000D100204325160060000000000000000011
:10101000201000600010006000E00560000000008B
:101020000000006000EC050000000000FFFFFFFF73
:10103000FFFFFFFFFFFFFFFFFFFFFFFFFFFFFFFFC0
:10104000FFFFFFFFFFFFFFFFFFFFFFFFFFFFFFFFB0
:10105000FFFFFFFFFFFFFFFFFFFFFFFFFFFFFFFFA0
:10106000FFFFFFFFFFFFFFFFFFFFFFFFFFFFFFFF90
:10140000884207D0904205D251F8043B40F8043B93
:101410008242F9D8704700BF884204D2002340F8C6
:10142000043B8142FBD870472DE9884800F0D0F991
:101430000824614B614AC3F8544161496148FFF790
:10144000DFFF614A61496248FFF7DAFF614962489C
:10145000FFF7E2FF614C4FF0E0214FF470000023F2
:101460005F4AC1F8880D44F823200133B02BFAD12C
:101470005C4B80215C4A03F8011B9342FBD14FF087
:10148000E0254D4E4FF08039DFF88CB1DFF88CA1AC
:101490004FF0FF31C5F8084D0027C6F80491C6F893
:1014A00000B1C6F8F490C6F8F0A0D5F8243DDFF8F6
:1014B000708143F4E0234D4AC5F8243DD8F81C3030
:1014C00023F07F0343F04003C8F81C30D8F82430E1
:1014D00023F07F0343F04003C8F824309166D166BF
:1014E0001167516700F07CF9414B4249A363424BBD
:1014F000E36363236B610323AF612B613F4BC5F84B
:10150000203DD5F8FC3D43F08073C5F8FC3D3C4BD5
:101510001A6842F001021A605B680B6000F09EFBE3
:10152000C6F804913748C6F800B1C6F8F490C6F87A
:10153000F0A000F031FDD8F86C10334B334A41F481
:101540004051C8F86C101F60C3F80871C3F81871D7
:10155000C3F82871C3F83871936BDB0708D442F6DF
:1015600015632B4951651365936B43F00103936336
:10157000264A284C936843F00113936000F0ACF9BD
:1015800000F0D0FC00F00CFD00F096FB00F022F91A
:101590002368132BFCD900F027FC2368B3F5967F52
:1015A000FBD300F01BF900F017F900F005FD00F087
:1015B000FFFC30BFFDE700BF00800D4028D00400D5
:1015C0005C23006000000000C0EA002088F3046093
:1015D0000000002060630120C0EA002000E8002035
:1015E000F134000000E400E0A0E400E000C00A40A4
:1015F00029490000EC6201202D4900000000202054
:10160000001000E00046C3230040084000400D40A9
:101610000000C056F06201201B1018200C0D1113A1
:1016200000C00F40074B4FF42A01074A07485A648D
:101630001864074A99639546BFF34F8FBFF36F8FC6
:10164000FFF7F2FE00C00A40FFFFAFAA070020002C
:101650000000032043690A4A03EB011010B4037A27
:10166000084C02EB0313D3E901321460C2681A601C
:1016700003690BB142691A605DF8044B704700BF03
:1016800040C8002061F801004369027E03EB0212AA
:1016900092F808C08C451CD01A7AFF2A19D09142C2
:1016A00010B5044616D01A7EFF2A06D00121D3E9D0
:1016B000002312681A4201D1217610BD064B052283
:1016C000204603EB0C135B681A60FFF7C3FF21761B
:1016D000F3E770470021EAE740C8002043690A4A5F
:1016E00003EB011010B490F82830084C02EB031300
:1016F000D3E901321460C26A1A60036B0BB1426B0A
:101700001A605DF8044B704740C8002061F8010082
:101710004369427E03EB021292F828C08C451ED02A
:1017200093F82820FF2A1AD0914210B5044617D00A
:1017300093F83820FF2A06D00121D3E9002312684C
:101740001A4201D1617610BD064B0522204603EBFB
:101750000C135B681A60FFF7C1FF6176F3E770470F
:101760000021EAE740C80020164942698B6B23F448
:101770007C0343F4802370B58B630446124DD2E999
:1017800000130A681A4303690A60022200211A61E1
:101790000E4A19619A6401225A629D624FF43035F3
:1017A000DD624FF001159E6C1E6519629D651A6120
:1017B000017EFFF74FFF617E2046BDE87040FFF7D6
:1017C0008DBF00BF00C00F40B80B05053B3728197F
:1017D000704700BF704700BF704700BF00BF704731
:1017E00010B44FF0E023002110242B48C3F8941DBF
:1017F000C3F89C4D1124C3F8A00D2848C3F89C4D94
:101800001224C3F8A00D2648C3F89C4D254AC3F8FE
:10181000A00D254C42F015022448C3F89C4DC3F896
:10182000A00D234C2348C3F89C4DC3F8A00D224CB7
:10183000C3F89C2D2148224AC3F8A04DC3F89C0D43
:10184000C3F8A02D02F5A0221E4C0C321E48C3F88E
:101850009C4DC3F8A02D1D4AC3F89C0D1C4CC3F829
:10186000A02D01221B48C3F89C4DC3F8A00DC3F85E
:10187000942DBFF34F8FBFF36F8FC3F8501FBFF38B
:101880004F8FBFF36F8FD3F8142D5DF8044B42F4E4
:101890004032C3F8142D70473F00001025000803A4
:1018A00009001000606301201300200021000207DE
:1018B0001400002025000813090000101600202045
:1018C00027000B1317000040180000602F000B07C3
:1018D000190000702F000B13F0B5B84B1822B84E4A
:1018E0000120B84F83B0C3F85C62B749C3F8607297
:1018F000B64DC3F86462A6F53046B54CC3F86862CD
:10190000C3F86C52C3F87052C3F87452C3F87852DB
:1019100048F20C75DA661A675A679A67DA67C3F88D
:101920008020C3F88420C3F88820C1F82C03A94A7A
:10193000C1F83003C1F83403C1F83803C1F83C03DF
:10194000C1F85003A169A44B0A40A448A449134319
:10195000A44AA361D4F8843043F00C03C4F8843063
:101960004FF0FF34036843F00203036003682B4029
:101970004FF400551A439C4B026044608A689B4CAC
:1019800013409B4A43F000538360C36823F07803FD
:10199000C360036A134023430362036A1340954AFA
:1019A0002343954C43628262C2620022D1F8B83070
:1019B00023F03F0343F00103C0F8B830D1F8BC3046
:1019C0008E4923F03F0343F00103C0F8BC3040F2DE
:1019D0000563026105660467C0F8803045664467A8
:1019E0000224C0F88430036823F00203036081619D
:1019F000834B8449C46143F8042B8B42FBD1774A63
:101A0000136843F001031360136813F00103FBD163
:101A10007A48022140F2F564906140F29940D16128
:101A200040F26641C2F8004242F20144C2F810128C
:101A30007549C2F82002C2F8301240F235417348AD
:101A4000C2F83442C2F84012714CC2F8500242F25D
:101A500001207049C2F854120121C2F86042C2F854
:101A600064025E48C2F8A030C2F8A430C2F8B010D8
:101A70004369DA07FCD5012300244FF4803257492B
:101A80004361C0F8A040C0F8A420C0F8B0304B6952
:101A9000DB07FCD5012300244FF400304F4A4B6193
:101AA000C1F8A040C1F8A400C1F8B0305369DF0705
:101AB000FCD501230024584848495361C2F8A0408E
:101AC000C2F8A400C2F8B0304B69DE07FCD5D1F8EB
:101AD000003145F60D5221209BB24861934265D1F9
:101AE00000244FF4802201233C48C1F8A040C1F8F3
:101AF000A420C1F8B0304369DD07FCD501234FF4C1
:101B000000040021354A4361C0F8A040C0F8A41089
:101B1000C0F8B0305369DC07FCD501234FF4000452
:101B20004FF480302D495361C2F8A040C2F8A400A0
:101B3000C2F8B0304B69D807FCD501234FF400043C
:101B40004FF40030254A4B61C1F8A040C1F8A40011
:101B5000C1F8B0305369D907FCD501234FF4000414
:101B60002D481E495361C2F8A040C2F8A400C2F833
:101B7000B0304B69DA07FCD5D1F8003145F60D528B
:101B800021209BB24861934250D008254FF40004B5
:101B900022490020224B234A009015705A1A012333
:101BA0002148224400F0F0F903B0F0BD1E4B0022A2
:101BB000C3E90022C3E9022203B0F0BD00801F4048
:101BC000F9B00100F910010000841F40F970010014
:101BD00000C00F40FFFCFF1F000300A000402A4090
:101BE00000802A401200FFFFFF37F700400000800E
:101BF00000FFF07CFF000F8363000200F05AF05AF0
:101C000000422A4000432A409F041830EB06180A7D
:101C10003806180A0632012604000300000000708E
:101C20000000007017630120200D01204FF4000414
:101C30004FF4802201230848C1F8A040C1F8A42035
:101C4000C1F8B0304369DB07FCD5012310254FF004
:101C5000807443619CE700BF00402A40F0B4154AFD
:101C600040274FF480314FF480564FF400554FF425
:101C7000404443F24200136913F0020F0ED113F4F3
:101C8000005F0FD013F4805F0ED0002BF3DA13F453
:101C9000803F0BD15B060BD5F0BC7047946151615E
:101CA0009061E8E75561E6E75661E4E79161E2E7B4
:101CB0005761E0E700800D403F4A03203F49F3EEC3
:101CC000095AD2F880304FF0000C9FED3D6A23F0A6
:101CD00001039FED3C5A30B4C2F88030C2F8900046
:101CE000D1F8E010384DCBB2384C39482B6007EEB4
:101CF000903A0B0DC1F30B21F8EEE77A06EE903A1D
:101D000007EE101A334BB8EEC77A2160F8EEE66A98
:101D1000314937EEC66A37EEC55A76EEC76A77EEB6
:101D2000E57A26EE266AC3ED006A25EE265AD2F839
:101D3000803067EEA64AC0ED007AC6EE275A2748E3
:101D400085EE276AC4EEA76A75EE875AFCEEE55A5F
:101D500036EE076A15EE904ABCEEC66A43EA0453B3
:101D600076EE877AC2F8803016EE103AD2F89041BB
:101D7000FCEEE77A01EA0341214317EE903AC2F8FC
:101D80009011C3F30B03D2F890110B431449C2F81E
:101D90009031D2F8803043F00203C2F88030114B0A
:101DA00080F840C0C1F840314FF0E023012230BC40
:101DB000C3F80821704700BF00810D4000441F4058
:101DC0000000AA420000B442FC610120F861012039
:101DD00000620120046201200000FF0F00E400E027
:101DE00000E80020E5360000314B40F6617210B586
:101DF000C3F8202140F2044400F0E2F82D4A2E49B5
:101E0000D2F880302D4843F00303C2F880302C4BC9
:101E1000C1F8604102681A4203D1D1F8A8319A078B
:101E20001BD0254A4FF00041244B5963D2F8403172
:101E300043F00203C2F84031D2F840319B07FBD493
:101E40004FF400304FF0E0211C4B4FF00042C1F83E
:101E50008C0219209A6300F09BF8184A4FF08040DA
:101E6000154C002190630A20164B11604FF420722C
:101E7000C4F8A801184600F097F84FF48002034612
:101E80004FF4810040F243111860C4F858311A64CD
:101E90000D4B0E4AC4F84811C3F804224FF0E0225B
:101EA0004FF400310123C2F80C11C4F8403110BDC9
:101EB00000800D4000C00F4000002E4000900D40FB
:101EC000001C1E000000002000E80020CD380000AB
:101ED00008B50E4B1B6E9B0700D4FBBE72B60C4BB5
:101EE00000200C4AC3F8400103F160430A49A3F5FE
:101EF0005F2311649D46BFF34F8F4FF400130748D3
:101F0000074ADB6902609B68984700BF00441F4096
:101F100000002E4000C00A40030020000080202066
:101F2000000012EB104BA020104AD96E41F4403152
:101F300010B4D96640F23764D96E41F44071D96665
:101F400054649064936C1B06FCD4094A40F23761D8
:101F5000A02351649364936C13F08003FBD1054A72
:101F600013705DF8044B704700C00F4000400C40F8
:101F700000800C4016630120F8B500BFF8BC08BC17
:101F80009E467047000000005FF800F0314B0000F3
:101F90005FF800F0153200005FF800F0252F000018
:101FA0005FF800F0C94900005FF800F0DD91030020
:101FB0005FF800F0353300005FF800F059C6030009
:101FC0005FF800F03D400000450000000D190000E2
:101FD000211D0000751E0000F51F0000F9240000FF
:101FE000F929000095020100256C0100710D020025
:101FF000A5B2020015BC02005DE502001DE802006A
:1020000070C00F40C000000012000000130000006C
:10201000D0841F4001000000FF000000FF0000000E
:10202000000000000000000013000000130000008A
:10203000CC841F4001000000FF000000FF000000F2
:1020400000000000000000001C000000D529000076
:1020500070C00F40000C00001100000011000000D3
:10206000E0841F40020000002C000000120000006D
:10207000E0841F400100000010000000110000007B
:10208000DC841F40020000002D0000001200000050
:10209000DC841F40010000001E000000E129000058
:1020A00080C00F4000000003190000001000000075
:1020B000E8841F4001000000FF000000FF00000056
:1020C00000000000000000001800000010000000E8
:1020D000E4841F4001000000FF000000FF0000003A
:1020E00000000000000000001F000000ED290000BB
:1020F00001000200040008001000200040008000E1
:1021000000010002000400080010002000400080D0
:1021100000000000000000000000000000000000BF
:10212000C912C015F912E3003005C812003A0017B1
:10213000000006002002CE12ED12240C5D230004E4
:1021400000240009C03FC0120008C0000040000C7D
:102150003F0C0600DB008F00E6006920FD00070051
:10216000FF00EF000012000A0024C80000098310DD
:10217000BB02F7008F1239000F12F9007100BD0089
:10218000F60009121E0070243800360536213F0083
:10219000F3003F20F320ED0001123E00300C362802
:1021A000002D0015090C390000210F00030C080058
:1021B000000158107820D8008E08580871008E044D
:1021C000701000100E0000363000D4105010DC00EB
:1021D000700186045000882078001C000420142818
:1021E000C0280C2048084909001289242005FF3F17
:1021F0000086227E6DD24620290B2170104080522D
:102200003F065B4F666D7D077F6F090D614843D3C5
:102210005F777C395E79713D76301E753815373FB2
:10222000736B336D783E3E2A766E5B39640F2308FC
:10223000025F7C585E7B716F74100C753014545CB7
:102240007367506D781C1C14766E5B46307001000D
:102250001603550053004200200053006500720031
:10226000690061006C0000001803540065006500FF
:102270006E00730079006400750069006E006F00E5
:102280000403090409026200030100C032080B00C4
:1022900002020201000904000001020201000524FB
:1022A0000010010524010101042402060524060092
:1022B000010705820310001009040100020A000052
:1022C00000070503024000000705840240000009E2
:1022D00004020002FF6AFF000705810240000107B7
:1022E000050102400001000009026200030100C074
:1022F00032080B0002020201000904000001020280
:102300000100052400100105240101010424020636
:1023100005240600010705820310000509040100D9
:10232000020A0000000705030200020007058402FC
:102330000002000904020002FF6AC70007058102CB
:102340000002010705010200020100000A06000266
:0C235000EF02014001000000000000004E
:10235C000000000000000000000000000000000071
:10236C000000000000000000000000000000000061
:10237C000548064B1B1AD90F01EBA301491002D0DB
:10238C00034B03B118477047C0EA0020C0EA002095
:10239C000000000008B5054B1BB105490548AFF31B
:1023AC000080BDE80840FFF7E3BF00BF000000005D
:1023BC00A461012000EC0560002070472DE9F0417C
:1023CC0000F5005090B0574C9646574B0094C0F80F
:1023DC0010191B6A5548C3F301230468403304F0F9
:1023EC0080746B4413F8406C514B03FB06F6036886
:1023FC00B6FBF1F2B6FBF2F543F0A0434D1B0360C4
:10240C000368DF01FCD5052A4FF0000C2AD9604681
:10241C00831C0130B2FBF3F7192F07FB03F3F7D83A
:10242C004FF00108B6FBF3F3CB1A002BB8BF5B429D
:10243C00AB420BDBA7F10C0318BF4FF00008062BC7
:10244C000AD8B8F1000F07D08446E1E71D46A7F182
:10245C000C038446062BF4D9052FD9D80CF10103B3
:10246C00B2FBF3F2B5F5967FA2F105024CDC142A0F
:10247C004AD802EB42022F4F6E46DFF8B08002F1D1
:10248C004003BEF1020F0DEB03050FCF0FC60FCFAC
:10249C000FC60FCF0FC697E80F0007C626F8023BF2
:1024AC004FEA1343337015F83F3C15F83E2C4FEAB6
:1024BC00C34315F8401C4FEA024203F4601301F0C9
:1024CC00070102F4E02243EA020343EA010343F466
:1024DC00800343EA0C6343F48043C8F80430D8F813
:1024EC00043014BF23F0080343F00803C8F8043089
:1024FC003CB90E4A136823F0805313601368DB0158
:10250C00FCD410B0BDE8F081002CFAD1074A136856
:10251C0023F0805313601368D901FCD410B0BDE8CC
:10252C00F08100BF3C18500000C00F4000401D401F
:10253C0040420F0098030020002070470020704795
:10254C000820704770B5094C04F11005A4F53676D7
:10255C0054F8080C183D8442A4F1180403D0A9685F
:10256C00013103F039F9B542F2D170BD20F30020EE
:10257C0010490B68486B0A68496B02F07F02C1F383
:10258C00036101320431B2EB410F10D303F07F032E
:10259C00C0F30360053B0130A3EB4003DBB2054AFB
:1025AC00106800F07F000130C01AC0B270470023E1
:1025BC00F5E700BF00401D40F0B500F1080683B000
:1025CC000660F9B1044608460D463CF081FA0F2826
:1025DC00019005EB00070BD83A462946304621F00E
:1025EC00E3F9019B226800216360D15403B0F0BD74
:1025FC00002201A9204621F08BF9019B06462060A0
:10260C00A360E9E7014816F0DBFE00BFA011002033
:10261C0070B5044621480023214DE06004F580503C
:10262C0023840E4663840B21A384A0F8263BA0F8D8
:10263C00283BA0F82A3BA0F8DC3CA0F8DE3CA0F834
:10264C00E03CA0F8A43DA0F8A63DA0F8A83D04F5F8
:10265C00005080F80C37C0F8183980F80D37C0F8E6
:10266C001C3980F82039A2600E4804F0EDF9284698
:10267C0002F0B8FC0D2126600B4804F0E5F9284661
:10268C0002F0B0FC042314210848636004F0DCF968
:10269C00284602F0A7FC204670BD00BF1C3200206B
:1026AC00A8D6002024080020300800204008002074
:1026BC004268002A38B505460BDD00242B6808213A
:1026CC0053F82400013410B103F086F86A68A24272
:1026DC00F4DC284638BD00BFF8B504460D460B4661
:1026EC00103004F1200153F8042F40F8042B8842D9
:1026FC00F9D104F5805605F5805741F6063205F1FF
:10270C00140102F0C7FF4FF4DB7207F61A3106F61C
:10271C00263002F0BFFFC82207F54D6106F6DC40FB
:10272C0002F0B8FF662207F6985106F6A45002F0A4
:10273C00B1FF41F60C6305F5F05205F5045E234438
:10274C00111F03F1180C51F8040F43F8040B6345E7
:10275C00F9D118327245F3D142F20C1305F51C5E17
:10276C002344111F03F1180C51F8040F43F8040B08
:10277C006345F9D118327245F3D105F5005E04F5C5
:10278C00005C42F6100004F10C069EF80037204461
:10279C008CF80C3742F210739EF8011723448CF816
:1027AC000D1752F8041F43F8041B8342F9D142F66B
:1027BC00080342F6040242F61410DEF804183344FF
:1027CC002A442044CCF8101852F8041F43F8041B78
:1027DC009842F9D1DEF80C39DEF80829CCF8183912
:1027EC00DEF81039CCF81429CCF81C399EF81439C1
:1027FC008CF820399EF815398CF82139F8BD00BFBA
:10280C008160704700F58053D3F8003EDB0069D53A
:10281C00374B2DE9F04F5E6B4FF0000E41F614690B
:10282C0041F60467C6F3036641F60868F6000836FD
:10283C0009E013685B0F052B34D00EF1010E5FFA23
:10284C008EF39E4250D90EEB4E0500EBC50C0CF5E9
:10285C00F05213685B0F012B13680DD05B0F022B2A
:10286C00E7D15CF807308B42E7D85CF808308B4234
:10287C00E3D30120BDE8F08F13F4607FDDD06D0051
:10288C00002304E01468C4F3C21C6345D5D20133A1
:10289C0005EB030CDBB20CF5F06C50F82C408C42C1
:1028AC00F0D1E6E7136813F4607FC6D0CC446D001A
:1028BC00012405E01368C3F3C21301339C42BCD25C
:1028CC002B19DCF800A0013403F5F0630AEA010AC5
:1028DC00E4B250F82330DCF800B003EA0B039A455D
:1028EC00E8D1C6E7012070470020BDE8F08F00BF9B
:1028FC0000401D4001EB410170B500EBC10404F533
:10290C00045EDEF80030DB0028D5DEF800305B0F0B
:10291C00012B0BD0DEF800305B0F022B42D0DEF81F
:10292C0000305B0F052B1BD0002070BDDEF8004083
:10293C0014F4607FF8D000234D0005E0DEF80010A1
:10294C00C1F3C21C6345EFD2013305EB030CDBB2C0
:10295C000CF5046C50F82C409442EFD1012070BD62
:10296C00DEF8005015F4607FDED042F214154900F9
:10297C000123254407E0DEF80040C4F3C21C0CF12F
:10298C00010C6345D0D22C6804EA020CCC1801333C
:10299C0004F50464DBB250F824402E683440A4459E
:1029AC00E9D1DBE742F20413E3589342BCD842F27C
:1029BC000813E058904234BF0020012070BD00BFC6
:1029CC000B78632B10B5044682B0104613D003F578
:1029DC001C6304EB83035B6813B101929847019865
:1029EC0004F50054D4F804381BB102B0BDE8104013
:1029FC00184702B010BD04F50054D4F80437002B6E
:102A0C00F0D0019298470198ECE700BF2DE9F04F08
:102A1C008C468DB00F4605466C46064600F11008F4
:102A2C004FF00109DFF814A1BCE80F000FC49CE8BB
:102A3C00030084E8030056F8044F5CB19DF91420A0
:102A4C00A36809FA02F1194256D02368D3F800B0F2
:102A5C00D3454CD14645EED105F5005393F80037DC
:102A6C00002B5FD0EE8A4FF01A0C386806AC7968F0
:102A7C00F6B2BA68FB680CFB06560FC40023386923
:102A8C007969182286F81A31EB8A0DEB0206DBB253
:102A9C000CFB035303C483F81B21EC8AE4B20FCE66
:102AAC000CFB0454C4F81C01C4F82011C4F82421F4
:102ABC00C4F8283103CEC4F82C01C4F83011EA8ACA
:102ACC00AB8A92B29BB283F480739A4224D0EB8A85
:102ADC000133C3F30803EB822B8B9BB2FF2B03D880
:102AEC002B8B01339BB22B830DB0BDE8F08F9DF87F
:102AFC00153069462046D847237C002BAAD0236882
:102B0C00D3F800B09DF81530D345A3D020464FF034
:102B1C00FF326946D8479DE7AB8A0133C3F30803FC
:102B2C00AB82D4E73B7D3A4606A928468DF818308F
:102B3C00FFF746FF0DB0BDE8F08F00BF6900000045
:102B4C0000F5005393F80137002B00F0DB80DFF821
:102B5C006CC22DE9F04F0F4689B005460E4602AC0B
:102B6C000FCF0FC497E8030084E80300DCF80030B3
:102B7C009B0052D5DCF8343000244FF06309C3F3CA
:102B8C00036A22464FEACA0A0AF1080A0CE05B0FF4
:102B9C00022B3B6800F09A805B0F052B00F0DD8068
:102BAC000134E2B2924538D996F91430632B34D003
:102BBC0004EB440805EBC80B0BF5F0573B6813F01E
:102BCC00604FEDD03B685B0F012B3B68DFD1C3F34B
:102BDC000043F2799A42E3D13B6813F4607FDFD073
:102BEC004FEA480B002306E03A685FFA88F3C2F319
:102BFC00C2129342D4D203F10108029A0BEB0803E0
:102C0C0003F5F06355F823309A42EDD102A928461A
:102C1C008DF81C90FFF7FAFEE6E70023674F8DF85E
:102C2C000E303C6814F000543FD0FFF7A1FC3B6819
:102C3C00044603F07F030133834233D942F2041775
:102C4C0042F20818DFF8749196F91430A34220D0A0
:102C5C0004EB440105EBC10202F5045ADAF800302A
:102C6C0013F0604F15D0DAF80030F079C3F3C0637D
:102C7C0098420ED1DAF800305B0F012BDAF80030F5
:102C8C0041D05B0F022B12D0DAF800305B0F052B12
:102C9C005BD0D9F80030013403F07F03E4B2013388
:102CAC009C42D1D309B0BDE8F08F3B68C6E7D1593F
:102CBC00029B8B42EDD352F808209342E9D802A92B
:102CCC0028468DF81C40FFF7A1FEE2E7C3F3004352
:102CDC00F2799A427FF464AF41F604635BF8032007
:102CEC00029B9342FFF45CAF41F608625BF8022052
:102CFC0093423FF655AF02A928468DF81C90FFF77A
:102D0C0085FE4DE7704713F4607FC2D04A00002364
:102D1C0007E0DAF800105FFA8BF3C1F3C2118B42B3
:102D2C00B7D203F1010B029902EB0B0303F5046319
:102D3C0055F823309942ECD102A9284600928DF81F
:102D4C001C40FFF763FE009AE3E7029A21462846EF
:102D5C00FFF7D0FD00289CD0B1E73B6813F4607FEF
:102D6C003FF41EAF41F6146301275B440AE00BF5F8
:102D7C00F05101370968FFB2C1F3C21101318F4222
:102D8C00BFF40EAF07EB4801186801F5F06155F878
:102D9C0021E00299D3F800C008400EEA0C018842E9
:102DAC00E5D102A9284601938DF80E2000928DF8EA
:102DBC001C90FFF72BFEDDE90023D8E700401D40F7
:102DCC00264A38B5136813F0005345D013680546EE
:102DDC000C4613F4004302D1926A92063CD41F4A6B
:102DEC00136B13F0200337D0D2F88030C3F30341B8
:102DFC00C3F30050A380E172D2F8841003F40012E4
:102E0C002072DB0D002A21F0604112BF012200224A
:102E1C00890CE271114A216005F50051D2F8880045
:102E2C0000BAE060D2F88C0000BA206191F8151954
:102E3C00A37163236175237513681B0403D4136B8F
:102E4C0043F02003136321462846FFF779FE2168DF
:102E5C002846FFF7D7FC38BD184638BD00401D404A
:102E6C007C4B2DE9F0471F6881468A4617F00057C6
:102E7C0002D0FFF77DFB0746764C09F50056226819
:102E8C0096F8143902F07F020132934200F2DD8091
:102E9C000325DFF8C48157E000295DD0B1FA81F237
:102EAC00C2F14002934254DB206810F0005001D074
:102EBC00FFF75EFB013D86F8140915F0FF0500F0E5
:102ECC00C48023689A0005D5874203D9781EC0B206
:102EDC0086F81409236803F07F03013398420CD35E
:102EEC00206810F0005001D0FFF742FB013D86F83E
:102EFC00140915F0FF0500F0A880D4F824C0C0F127
:102F0C002001A36AA0F120020CFA01F1C3402CFAB3
:102F1C0002F20B431343DB070BD400EB08031B013A
:102F2C001A68110105D4110E01F00B0CBCF1020F43
:102F3C0016D00130C3B286F81439226802F07F0231
:102F4C000132934200F28180E16A226B52EA010065
:102F5C00A2D196F81409B4E7B2FA82F220329FE7B4
:102F6C0002F4001001F00F010028C2F300508AF89F
:102F7C00080014BF012000208AF80700586820F0D0
:102F8C00604008BF800C0629CAF8000002D101215C
:102F9C008AF80910C2F303418AF80B1096F8141939
:102FAC00481C86F814098AF81410AAF8042096F81C
:102FBC0015299AF807108AF815209A6800298AF8BA
:102FCC000F2018BF4FF08C619A6808BF4FF08061DA
:102FDC00120A8AF80E209A68120C8AF80D209A6848
:102FEC00120E8AF80C20DA688AF81320DA68120AB2
:102FFC008AF81220DA68120C8AF81120DA68120E9C
:10300C008AF8102019609AF81430A2681F2B14D873
:10301C00012202FA03F3226B134323635146484601
:10302C00FFF78EFDDAF800209AF814104846FFF7E7
:10303C0061FC68B996F814097BE70122203B02FA7F
:10304C0003F3E26A1343E362E8E70020BDE8F0878C
:10305C000120FBE700401D4008D4010470B5424C30
:10306C0090B0054600F10C060DF1100C0FCCACE83D
:10307C000F0094E803008CE803000221002001F00B
:10308C00E1FF80B9394B1A6891000CD59A6A920607
:10309C0009D41B6B9B0606D504A93046FFF790FE9E
:1030AC0038B910B070BD04A93046FFF7D9FE00281E
:1030BC00F7D004212E4803F0C7FC00230A22049900
:1030CC002C4801F0ABFF2B4801F08CFF049B0F2B1D
:1030DC0009D8092B10D90A3B052B0DD8DFE803F0D2
:1030EC0017150C0C1113382B02D0B3F57A7F03D1C2
:1030FC0000266B68B3420CDC0A2002F033FA10B0E5
:10310C0070BD0426F5E70526F3E70326F1E7022652
:10311C00EFE704AC0DF1280C0FCCACE80F0094E8F1
:10312C0003008CE80300102002F04EFB10AB0446A9
:10313C0013E907000AAB8DE8070020460ECB01F01F
:10314C0053F8204601F082F82B68214653F82600EC
:10315C0003681B689847204601F06CF81021204644
:10316C0002F03AFBC8E700BFD803002000401D4026
:10317C001C080020A8D600201F291C4810B423D8F6
:10318C000123046B8B4023430363194B4FF0006402
:10319C00D0790B441B011C60F8B1117A1068090539
:1031AC0020F0604041F4C0015860D0685DF8044BD9
:1031BC0000BA9860106900BAD860D27A41EA02422B
:1031CC0042F040621A607047A1F1200C0123C46ADE
:1031DC0003FA0CF32343C362D7E714680548117A4A
:1031EC0000EA844009055860DFE700BF00401D403D
:1031FC0008D401040000FC1F2DE9F04F944D9BB046
:10320C00944F08AC04900FCD0FC495E8030084E8EC
:10321C0003007E6AB96AD7F82CB0386B3B68029110
:10322C0013F40043039003D13A68940000F11A811F
:10323C00039B43F00103BBF1000F00F00581BBFAC7
:10324C008BF3844DC3F140032C68DFB214F00054AF
:10325C00019700F08582FFF78BF92B68044603F089
:10326C007F030133984280F0C280874240F2BF80D6
:10327C00049B671CDFF8DC9103F50053FDB205934A
:10328C0018E0042A00F06281082A00F00382D9F8C1
:10329C000030FCB2019A03F07F030133A24288BFD5
:1032AC00AB4205F1010594BF01230023002B40F034
:1032BC009E80671CC4F12002029BA4F1200A06FA2E
:1032CC0002F1E3400B4326FA0AF10B43D807DED593
:1032DC00039B0BFA02F2E34013432BFA0AF213435B
:1032EC00D907D4D5DFF87881A0444FEA0818D8F86C
:1032FC000030190EC3F3036201F00B010229C0D197
:10330C00D8F8041003F4001021F06041002812BF1B
:10331C004FF0010C4FF0000C890C062A8DF827C0D9
:10332C00089102D101228DF82920ADF82430C3F385
:10333C0003438DF8344000288DF82B30059B93F80F
:10334C0015398DF83530D8F808308DF82F30D8F87D
:10335C0008304FEA13238DF82E30D8F808304FEA96
:10336C0013438DF82D30D8F808304FEA13638DF8DD
:10337C002C30D8F80C308DF83330D8F80C304FEAAC
:10338C0013238DF83230D8F80C304FEA13438DF8F4
:10339C003130D8F80C304FEA13638DF8303014BF4D
:1033AC004FF08C634FF080631F2CC8F80030D9F8B5
:1033BC0008304FF0010334D8D9F83020A34021460F
:1033CC0004981343C9F83030089AFFF793FA002891
:1033DC0035D108A90498FFF7B3FB08A8AFF3008018
:1033EC0008A8AFF3008008A8AFF300804FE7194A94
:1033FC001948116A0268194B4A40134043B1049BA7
:10340C0003F58053B3F8D42C92B20F2A40F2AC815E
:10341C00104A136A0B431362BFF34F8F1BB0BDE806
:10342C00F08FD9F82C2003FA0AF3214604981343A1
:10343C00C9F82C30089AFFF75DFA0028C9D008A902
:10344C000498FFF7E3FAC4E7B3FA83F32033F8E602
:10345C00D803002000401D40D0090120BFFF070009
:10346C0008D4010489067FF5E3AE82067FF5E0AE51
:10347C00D7F88020BB4C02F40011C2F30050ADF819
:10348C0024200029C2F303414FEAD2528DF82B10AD
:10349C00D7F884108DF8280018BF012021F0604166
:1034AC0008BF00208DF826204FF0000208BF890CC1
:1034BC008DF827000CA80891D4F88810D140083258
:1034CC00202A00F8011DF7D10DA8A649D1F88C20AF
:1034DC00DA400833202B00F8012DF7D1049B03F5BB
:1034EC00005393F815398DF8353063238DF834304B
:1034FC008B680B6B43F020030B63039B5D0603D5BA
:10350C000B6B43F040030B63039B1C0604D5954ADD
:10351C00136B43F080031363049C08A92046FFF748
:10352C000FFB08A8AFF3008008A8AFF3008008A831
:10353C00AFF3008008992046FFF764F900283FF4A8
:10354C0077AE08A90498FFF761FA71E603F400124C
:10355C00002AD8F80420ADF82430C3F303438DF8C7
:10356C00344022F060428DF82B3018BF0121059BAE
:10357C0004BF920C002193F8153908928DF8353060
:10358C00D8F80830049A8DF82F30D8F808308DF818
:10359C0027101B0A8DF82E30D8F808301B0C8DF82C
:1035AC002D30D8F808301B0E8DF82C30D8F80C3094
:1035BC008DF83330D8F80C301B0A8DF83230D8F82F
:1035CC000C301B0C8DF8313004F6022352F82330EA
:1035DC00D8F80C20120E8DF830200BB108A89847A3
:1035EC00059BD3F808390BB108A89847049901F545
:1035FC008052B2F81E3B07929BB2002B00F00F8159
:10360C00B2F81A3B1A220DF1500C03F00F03E046EE
:10361C0002FB031341F632320EA903EB020A0691A8
:10362C008E469858DAF80410DAF80820DAF80C30DC
:10363C00ACE80F00DAF81000DAF81410ACE803006C
:10364C00B8E80F00AEE80F0098E803008EE803001E
:10365C009DF94C305A1C00F0F1809C427FF417AE5F
:10366C00069AE1B20498FFF787FD079AB2F81A3B65
:10367C00013303F01F03A2F81A3BB2F81E3B9BB2B6
:10368C00002B3FF404AEB2F81E3B013B9BB2A2F8F8
:10369C001E3BFCE503F40012002AD8F80420ADF818
:1036AC002430C3F303438DF8344022F060428DF88C
:1036BC002B3018BF0121059B04BF920C002193F8FD
:1036CC00153908928DF83530D8F80830049A8DF8F1
:1036DC002F30D8F808308DF827101B0A8DF82E30B3
:1036EC00D8F808301B0C8DF82D30D8F808301B0E8C
:1036FC008DF82C30D8F80C308DF83330D8F80C30DD
:10370C001B0A8DF83230D8F80C301B0C8DF8313088
:10371C00D8F80C301B0E8DF8303004F6022352F81A
:10372C0023300BB108A89847059BD3F808390BB187
:10373C0008A89847049901F58052B2F81E3B0792ED
:10374C009BB2002B7FF45CAF1F2C4FF0010300F2F7
:10375C008080D9F83020A3401343C9F8303096E567
:10376C002B6885E500401D40B3F8D42C92B20F2A8B
:10377C0005D8B3F8D42C013292B2A3F8D42CB3F8F8
:10378C00D22CB3F8D24C02F00F02A4B203EB82029B
:10379C00C2F8D81CB3F8D02C92B282F0100294422A
:1037AC0006D1B3F8D02C013202F01F02A3F8D02CB2
:1037BC00B3F8D22C2B4C013202F01F02A3F8D22CFE
:1037CC00E469B3F89C2DA4B292B20F2A05D8B3F8D1
:1037DC009C2D013292B2A3F89C2DB3F89A2D02F0D5
:1037EC000F0203EB4202A2F89E4DB3F89A4DB3F8C8
:1037FC00982DA4B292B282F01002944206D1B3F882
:10380C00982D013202F01F02A3F8982DB3F89A2DCF
:10381C000160013202F01F02A3F89A2DF8E51F2C6B
:10382C004FF001030DD8D9F83020A3401343C9F849
:10383C0030304FF00063C8F8003028E5069A214676
:10384C0010E7D9F82C2003FA0AF31343C9F82C30EB
:10385C00EFE7D9F82C2003FA0AF31343C9F82C30FC
:10386C0015E500BF00401D402DE9F04300F5005761
:10387C008FB0044697F8003713B9012387F8003747
:10388C00238B9BB2002B57D1D7F80C2904F580560B
:10389C00724B02F01F0103EB521301229B008A4072
:1038AC001A60B6F81E3B9BB283B3B6F81A3B1A22C9
:1038BC0008AD0DF1080C03F00F03AE4602FB0343F9
:1038CC0041F6323203EB02089858D8F80410D8F8B5
:1038DC000820D8F80C300FC5D8F81000D8F8141000
:1038EC0003C5BEE80F00ACE80F009EE803008CE8AF
:1038FC0003009DF91C104B1C54D0594B0B441B015D
:10390C001B68C3F30363082B00F08B80D7F80C29DA
:10391C00544B02F01F0103EB521301229B008A400F
:10392C0000211A60238BB6F81E0B9BB280B240EAC2
:10393C0003300FB0BDE8F083A68A1A23B4F814C084
:10394C0008ADF6B20CF1010C03FB0646CCF3080CE7
:10395C00D6F81C01D6F82011D6F82831D6F8242137
:10396C000FC5D6F82C01D6F83011A4F814C0238B4F
:10397C009BB203C51BB1238B013B9BB2238308ADC8
:10398C0002AE0FCD0FC695E8030002AA86E803002D
:10399C009DF81C300DF1070120468DF80730FFF71C
:1039AC000FF871E7DFF8C080D8F8005015F000551B
:1039BC0050D0FEF7DDFDD8F80030054603F07F034C
:1039CC0001338342A2D9DFF89890DFF89C8008E09D
:1039DC00D8F80030013503F07F03EDB201339D427E
:1039EC0094D205EB09031B011B68C3F30363082B7B
:1039FC00EED102AA29462046FFF7BEFBB6F81A3BC9
:103A0C00013303F01F03A6F81A3BB6F81E3B9BB21A
:103A1C00002BDDD0B6F81E3B013B9BB2A6F81E3B3B
:103A2C00D6E702AAC9B22046FFF7A6FBB6F81A3BA6
:103A3C00013303F01F03A6F81A3BB6F81E3B9BB2EA
:103A4C00002B3FF463AFB6F81E3B013B9BB2A6F8CC
:103A5C001E3B5BE7D8F80030B5E700BF6038003894
:103A6C0008D401044038003800401D4070B50C46A5
:103A7C00054686B0086805F5805C4968A268EE4684
:103A8C00E3681A26AEE80F00BCF81C3B0022206944
:103A9C0003F00F03616941F6303406FB03C383F86E
:103AAC00302B1822BCF81C3B03F00F0306FB03C39E
:103ABC0083F8312BBCF81C3B03F00F03AEE803007A
:103ACC0006FB0355EE462C44BEE80F00C4F802007A
:103ADC00C4F80610C4F80A20C4F80E30BEE803007F
:103AEC00C4F81200C4F81610BCF81C2BBCF81A3B16
:103AFC0092B29BB283F010039A4206D1BCF81A3BE7
:103B0C00013303F01F03ACF81A3BBCF81C3B013328
:103B1C0003F01F03ACF81C3BBCF81E3B9BB20F2BF5
:103B2C0005D8BCF81E3B01339BB2ACF81E3B06B06B
:103B3C0070BD00BF8B7D70B50D4686B00446444EFB
:103B4C00002B3ED1336813F0005C25D0FEF710FD3E
:103B5C003368844603F07F03013398421ED23D49FB
:103B6C003B4807E003685FFA82FC03F07F030133F4
:103B7C009C4513D20CEB01030CF101021B011B68D9
:103B8C00C3F30363082BEDD120462A466146FFF7A9
:103B9C00F3FA012006B070BD3368E0E70FCDEC46B8
:103BAC00FF26ACE80F0095E803008CE803002046E4
:103BBC0069468DF81460FFF759FF4FF0FF3006B0DF
:103BCC0070BD306810F000503FD0FEF7D1FC336868
:103BDC0003F07F030133834226D91E491C4E05E0B6
:103BEC00336803F07F03013398421DD24318421C03
:103BFC0084461B01D0B21A681201F1D51B68C3F3BD
:103C0C000363082B18D06E460FCD0FC695E8030042
:103C1C0086E80300204669468DF814C0FFF726FF9E
:103C2C004FF0FF3006B070BD0B4B4FF0FF3C1B68E4
:103C3C00C3F30363082BE6D120462A465FFA8CF1C6
:103C4C00FFF79AFA012006B070BD3368C5E700BFD4
:103C5C0000401D4008D4010470401D4010B5554C67
:103C6C00204603F02FFB2046534C544A544903F092
:103C7C0049F920465349FEF79FFC04F118005249BC
:103C8C00FEF79AFC04F130005049FEF795FC04F164
:103C9C0048004F49FEF790FC04F160004D49FEF7D7
:103CAC008BFC04F178004C49FEF786FC04F1900083
:103CBC004A49FEF781FC04F1A8004949FEF77CFC57
:103CCC0004F1C0004749FEF777FC04F1D8004649DF
:103CDC00FEF772FC04F1F0004449FEF76DFC04F5AC
:103CEC0084704349FEF768FC04F590704149FEF777
:103CFC0063FC04F59C704049FEF75EFC04F5A8706B
:103D0C003E49FEF759FC04F5B4703D49FEF754FCEE
:103D1C0004F5C0703B49FEF74FFC04F5CC703A49F2
:103D2C00FEF74AFC04F5D8703849FEF745FC04F55B
:103D3C00E4703749FEF740FC04F5F0703549FEF7A6
:103D4C003BFC04F5FC703449FEF736FC04F50470BA
:103D5C003249FEF731FC04F50A703149FEF72CFCB0
:103D6C0004F510702F49FEF727FC04F516702E4948
:103D7C00FEF722FC04F51C702C49FEF71DFC04F523
:103D8C0022702B49FEF718FC04F528702949FEF720
:103D9C0013FC04F52E702849FEF70EFC04F5347064
:103DAC002649FEF709FC054A25490020BDE81040CC
:103DBC0003F0A8B8BC09012048F0002070D70020FF
:103DCC00994F00003C0600204806002058060020B1
:103DDC00680600207C06002090060020A00600202B
:103DEC00B0060020C0060020D0060020DC06002013
:103DFC00E8060020F4060020000700200C07002035
:103E0C00140700201C0700202C070020300700207E
:103E1C00400700205007002060070020700700209A
:103E2C008407002094070020A4070020B40700207A
:103E3C00C4070020D4070020E0070020F007002072
:103E4C00F5010000002210B4054CC0E90221046009
:103E5C0032211424C0E9051204615DF8044B70474B
:103E6C0098320020000000003C2906DC0023FF21D2
:103E7C000022C0E90013826070479F2906DD0021F3
:103E8C00FF230022C0E90013826070473C39B6EE74
:103E9C00005B07EE901A9FED144BB8EEE77B87EEB4
:103EAC00046BB4EEC56BF1EE10FA0AD59FED107BE6
:103EBC0026EE076B36EE066BFDEEC67B17EE903AE0
:103ECC00D5E736EE456BB0EE004BB7EE007B9FEDC1
:103EDC00085BA6EE447B27EE057BFDEEC77B17EE59
:103EEC00901ACDE7AFF300800000000000005940AD
:103EFC000000000000E06F40132970B5044684B048
:103F0C001CDC2E4DD0E905202B681B1A934215D3CF
:103F1C00A668002E3DD0E3680021187801F076FBEE
:103F2C00E3680021187901F071FBE3680021187A2D
:103F3C0001F06CFB0023A36004B070BD01A8FFF777
:103F4C0093FF019EE368F1B2029D187801F05EFBCD
:103F5C00E368E9B2187901F059FBE3689DF80C109D
:103F6C00187A01F053FB0321154802F06DFD314620
:103F7C00144801F02BF80421134802F065FD294682
:103F8C00104801F023F80F4804B0BDE8704001F070
:103F9C0029B8E368FF21187801F038FBE368314653
:103FAC00187901F033FBE3683146187A01F02EFBE7
:103FBC0001222B68A260A36104B070BDF0620120E5
:103FCC0010080020A8D60020140800201929C36866
:103FDC0010B504461BDD312912DD362918784FF057
:103FEC00FF0124DC01F012FBE368FF21187901F0DA
:103FFC000DFBE3680021187ABDE8104001F006BB08
:10400C000021187801F002FBE368FF21EEE7187835
:10401C00002101F0FBFAE3680021187901F0F6FAAF
:10402C00E368FF21187ABDE8104001F0EFBA01F007
:10403C00EDFAE3680021D9E738B50C460546084689
:10404C0000F002F9034620461C6800F0FBF8372804
:10405C0002D0382806D038BD21462846BDE8384065
:10406C00FFF74ABF21462846BDE83840FFF7AEBFF0
:10407C0010B5054C204603F025F92046034A0449A7
:10408C00BDE8104002F03EBFC009012070D70020EF
:10409C00994F0000084B10B5044640F81C3B00F04B
:1040AC00DDFE064A002342F2107112682046A3611D
:1040BC006263C4E9043110BD68320020F062012053
:1040CC00264B1C302DE9F0411B681546244F012668
:1040DC0040F8043C82B0A7FB013200230C4640F8A8
:1040EC000C6C4FEAD2081946C2F3C702019008EBD8
:1040FC00880800F0BBFE3146A4EB4802019800236F
:10410C00D2B200F0B3FE3A2201980023022100F053
:10411C00ADFEA7FB052701980023FC08C7F3C702D7
:10412C00032104EB840400F0A1FE0023A5EB440260
:10413C0001980421D2B200F099FE3146019800F0AA
:10414C0091FE019800F022FE1621064802F07CFC3C
:10415C00054802B0BDE8F04100F044BFF062012018
:10416C00CDCCCCCCF8070020A8D6002010B5044646
:10417C00084600F069F803462046D3E90112BDE871
:10418C001040FFF79DBF00BF84B000B50DF1080CC7
:10419C0086468CE80E00BCE80F00CEF81C00CEF86A
:1041AC002010DCF800009CF80410CEF82420CEF887
:1041BC002830CEF82C008EF830105DF804EB04B0EB
:1041CC00704700BF10B5054C204603F07BF8204625
:1041DC00034A0449BDE8104002F094BEC409012012
:1041EC0070D70020994F000084B010B50DF10C0C65
:1041FC0004468CE80E009DF81730BDF810202160A5
:10420C009800C4E9022301F0E1FAE168606000293A
:10421C000ADD03460DF1170200EB810C12F8011FA9
:10422C0043F8041B6345F9D12046BDE8104004B0A7
:10423C00704700BF10B50446406808B101F0CAFAD7
:10424C00204610BD0068704740687047F0B589B0D3
:10425C000546364904A800F065FF0A22296868461D
:10426C0000F074FF694604A800F0E0FF01463048F6
:10427C0000F086FE2E4800F0B5FE684600F016FFF2
:10428C0004A800F013FF2B4904A800F04BFF0A22EE
:10429C00A968684600F072FF694604A800F0C6FFE2
:1042AC000146234800F06CFE214800F09BFE684656
:1042BC0000F0FCFE04A800F0F9FE1F4904A800F071
:1042CC0031FF0A22E968684600F040FF694604A8FD
:1042DC0000F0ACFF0146164800F052FE144800F006
:1042EC0081FE684600F0E2FE04A800F0DFFE062125
:1042FC00124802F0A9FBEB68002B10DD00240C4FD8
:10430C000F4E6B68384653F82410013400F05EFEF3
:10431C000121304602F098FBEB68A342F1DC044823
:10432C0009B0BDE8F04000F05DBE00BF1C080020E5
:10433C00A8D6002064090020700900208009002004
:10434C00E0C4002010B5054C204602F0BBFF20460F
:10435C00034A0449BDE8104002F0D4BDC80901204D
:10436C0070D70020994F0000034B186810B10368F8
:10437C001B681847704700BFE8F3002010490B6812
:10438C00486B0A68496B02F07F02C1F3036101328A
:10439C000431B2EB410F10D303F07F03C0F3036081
:1043AC00053B0130A3EB4003DBB2054A106800F07B
:1043BC007F000130C01AC0B270470023F5E700BF80
:1043CC0000401D40044808B5FEF748FE2320BDE818
:1043DC00084001F045B900BF683701202DE9F043D2
:1043EC009A4B83B09A49002201930B6AC3F30123C1
:1043FC0008336B4413F8043CC0E90122C0E90322E2
:10440C00002B00F0098100F5005691492520914BB5
:10441C000224914A0125C6F80C091020C3F8D420B7
:10442C008A6E8E4B42F470128A6641F2B00186F8A5
:10443C0015498B4A8B4CC3F8C400C3F8B4122565DC
:10444C00C3F8C800C3F8B812136823F00043136014
:10445C00136843F0A04313601368DB01FCD5536869
:10446C007F4943F008035360136843F080431360A3
:10447C000B68DF02FCD40A68794B42F000720A60C8
:10448C001A6812F00072FBD1754B1968CD01FCD57E
:10449C00196841F400311960196841F480311960D0
:1044AC00196841F480511960196841F40051196080
:1044BC00196841F480011960196841F400211960F0
:1044CC00196821F408411960596B41F4E0215963D2
:1044DC00196841F400111960196841F08061196084
:1044EC001D68196805F0807541F0A04119605C49A0
:1044FC000B68DC01FCD50B68DFF874E123F000538A
:10450C00DFF870C1564F0B6000234B6218468B626C
:10451C00096803EB0E0103EB0C0401330901A40041
:10452C00C860DBB28860486008602060396801F0C0
:10453C007F0101318B42ECD3B86400243861F96AF5
:10454C003B6BF9623B633B68DFF82491444FDFF827
:10455C00248119E03B6803F07F030133B2EB930F26
:10456C0034BF4FF080634FF08C630B607B6BC3F3F5
:10457C0000439B0703603B68013403F07F03E4B204
:10458C00013322469C421FD23B6804EB090104EB29
:10459C00080003F07F03090180000133B2EB530FD5
:1045AC00D8D34FF000630B603B68980003D5FFF73E
:1045BC00E5FEA042DFD801231F2C03FA04F323D815
:1045CC00BA6A1343BB62D6E73DB93B68244A23F071
:1045DC0080533B601368D901FCD4214A136823F043
:1045EC00805313601368DB01FCD4D6F80C2901212D
:1045FC001D4B03EB521302F01F029B0001FA02F257
:10460C001A6003B0BDE8F083A4F1200101237A6A9B
:10461C008B4013437B62AEE70B6A144A23F47F731F
:10462C0043F480730B621368002B3FF4ECAE0C4A1E
:10463C0000F500561C6818465268D6F81019C2F3DB
:10464C00C002636852009847DFE600BF3C18500078
:10465C0000C00F4000E800201920000000801F401F
:10466C0000401D4000841F4040380038E8F3002013
:10467C0008D40104205207102DE9F047644DADF524
:10468C00245D644C40F2EE288AB0634FDFF8B4919D
:10469C002E6802F057FA2378002B00F0AA803B78A2
:1046AC00DB0740F1A6802B68D9F800209B1A0E2B53
:1046BC0040F29F800721594802F0C6F9584800F093
:1046CC0091FC584C5848FFF789FE00225749564830
:1046DC00FDF774FE564A7021204600F075FB04F17C
:1046EC000C03544F93E807008DE80700524807F677
:1046FC00FC7A94E80E00FFF747FD0DF628124F4B9D
:10470C000DF1140CA2F6181802F5DD690AF58056A5
:10471C00C8F8003008F5005497E80F008CE80F003B
:10472C0007F1100109A841F6063200F0B3FF0AF6B2
:10473C001A314FF4DB7209F61A3000F0ABFF0AF5B0
:10474C004D61C82209F54D6000F0A4FF41F6A85058
:10475C000AF698516622684400F09CFFA6F5007199
:10476C0009F560604FF4407200F094FF06F580711B
:10477C0008F504504FF4C06200F08CFF96F8003737
:10478C0007F51C514FF48072DBB204F2047084F80C
:10479C00003796F80137DBB284F8013700F07AFF66
:1047AC00D6F8043806F608014FF48072C4F80438C1
:1047BC0004F6080000F06EFFD6F80C39D6F8101984
:1047CC00D6F80829C4F80C39B6F81439C4F81019FD
:1047DC0041461B48C4F80829A4F81439FDF77CFF9E
:1047EC00296817480DF5245D0AB0BDE8F047FEF7BF
:1047FC0007B82B6822789B1B32B1B3F5FA6F3FF6E2
:10480C0059AF02F09FF944E74345FAD952E700BF8C
:10481C00F06201201F6301201E630120E4CB002005
:10482C00A8D60020380E0120500E012090D0030095
:10483C0088EC0020540E01208C6001201C320020DA
:10484C00683701200063012070B5254C254E2046A9
:10485C00254D02F037FD32462449204602F052FB2A
:10486C00234A0024234902F5805323489482116083
:10487C00D48222491483A3F81A4BA3F81C4BA3F837
:10488C001E4BA3F8D04CA3F8D24CA3F8D44CA3F8ED
:10489C00984DA3F89A4DA3F89C4D02F500530A606D
:1048AC0083F80047C3F80C4983F80147C3F8104953
:1048BC0083F814491249FFF7C5FA124800F0CEFAF2
:1048CC001148FFF7E7FB224610492846FDF7A0FEEA
:1048DC00324628460E49BDE8704002F013BB00BFBB
:1048EC00CC09012070D7002068370120994F0000B7
:1048FC00500E01201C3200201C0E0120E8F3002079
:10490C000CE50020380E01208C60012018E50020F9
:10491C00610300000020704790F8A32090F8A200DB
:10492C00101A704790F8A23090F8A3209A4205D93B
:10493C005A1C034480F8A220987E70474FF0FF3039
:10494C00704700BF90F8A23090F8A3209A4202D989
:10495C001844807E70474FF0FF307047704700BF9F
:10496C000346B0F8300178B193F82F21882A03D987
:10497C00012200205A60704702F1010C01201A44F8
:10498C0083F82FC182F8A510704700BF38B5B0F876
:10499C0030410CB9204638BD90F82F310546C3F193
:1049AC008904A2420DD8144605F1A50022461844EC
:1049BC0000F070FE95F82F312046234485F82F31F6
:1049CC0038BD01224260EFE738B5002513464FF49D
:1049DC007A720446C0E901521548882221612946A1
:1049EC00206004F11A00636125732576657636F034
:1049FC009DFD8922294604F1A50084F8A25084F873
:104A0C00A35084F8A45036F091FD204684F82E5122
:104A1C0084F82F5184F8305184F8315184F8325194
:104A2C0084F8335184F83451C4E94E5538BD00BF75
:104A3C00743200202DE9F04FD0F814A01524017E1B
:104A4C008146437E83B00AEB0111384A0AEB03130B
:104A5C00374F097A93F8283002EB01150901E86801
:104A6C0052F8018002EB0311D5F804B01B01CE689B
:104A7C00D558CBF80040C8F88400D8F804304A6800
:104A8C0003432C490192C8F804301460C5F88460C3
:104A9C006B6833436B60284B4C683A68A3FB02325B
:104AAC00920C02EB820252004B681B1B9A42FBD801
:104ABC004FF0090C1F4ADFF880E0D8F808300342A9
:104ACC0002D0AB6833422FD1C5F88860546839687E
:104ADC00AEFB0131890C01EB810153681B1B994220
:104AEC00FBD8C5F8846054683968AEFB0131890C79
:104AFC0001EB810153681B1B9942FBD8BCF1010CE3
:104B0C00DBD1604699F81830019A0AEB0313DB6885
:104B1C00CBF8003099F819300AEB031ADAF82C307C
:104B2C00136003B0BDE8F08F0120EBE740C8002014
:104B3C00A4D60020001000E083DE1B430E4A10B503
:104B4C001168046905E0DB0107D413685B1A102BAC
:104B5C0008D8636913F0007FF5D14FF4FE430120B0
:104B6C00636110BDFFF766FF0028FAD04FF4FE43D7
:104B7C0001206361F5E700BFF06201202DE9F047E9
:104B8C0090F82FA1BAF1000F58D081468846FFF754
:104B9C00D5FF002852D0374E0024376816E06B69D9
:104BAC001A0544D4580558D499044CD43268D21BF5
:104BBC00322A48D8544507D9EA6D520704D19B05CF
:104BCC0055D4B8F1000F52D001F0BCFF5445D9F8C0
:104BDC001050E4D8EA6D510702F00703DFD413E05C
:104BEC0099F8A5200133022442F48062042B2A6632
:104BFC0027D08A4503F1010309EB01020ED992F883
:104C0C00A520042B2A66CAD00121002CE8D021460D
:104C1C00013301348A4509EB0102F0D8B8F1000FD9
:104C2C00BDD04FF400732B666B691A05BAD52B698E
:104C3C00042043F440732B61BDE8F0870420BDE8E9
:104C4C00F0870124ABE72B694FF40072042043F486
:104C5C0040732B612A66BDE8F0872B694FF4007214
:104C6C00022043F440732B612A66BDE8F0870020D4
:104C7C00E5E700BFF0620120036970B5D3F8145169
:104C8C00044615F4706201D0C3F81421AE070BD59D
:104C9C00D3F8701108043ED50022012084F8A2201C
:104CAC00224484F8A3009176EA0710D594F8306179
:104CBC00F6B194F82E6194F82F21B24227D9721CC8
:104CCC00264484F82E2196F8A520C3F86021AB0564
:104CDC000DD594F8A30018B1D4F83C3103B1984722
:104CEC000023A4F8A230A4F82E3184F8303170BD22
:104CFC00D4F838210AB190472369002284F82E2178
:104D0C00012284F8302194F82F21B242D7D8002206
:104D1C00C3F86021DBE794F8A320872AC4D8501C81
:104D2C00C0B2BDE70148FFF7A7BF00BF88EC002069
:104D3C000148FFF7A1BF00BFC8ED00200148FFF7F5
:104D4C009BBF00BF08EF002010B5094C0949224653
:104D5C000948FFF739FE04F1500208490848FFF7EB
:104D6C0033FE04F1A00207490748FFF72DFE10BDE2
:104D7C000020006000003F4088EC002000803F4095
:104D8C00C8ED002000C03F4008EF002010B5002304
:104D9C0088B000F10E0E8DF80C3003AA831E33F888
:104DAC00021F4FEA112C7345517002F802CFF6D155
:104DBC0000240123112203A90069CDE9004431F03C
:104DCC00DBFF08B010BD00BF70B50446006986B0AB
:104DDC000D4620B11021039200F0FEFC039A102026
:104DEC00039200F0F1FC29460546039A31F09EFF30
:104DFC0001212846256131F0A3FF064650B300255A
:104E0C000123212205A9CDE900558DF814201A465D
:104E1C00206931F0B1FF204625606560A560E56032
:104E2C00FFF7B4FF012381220DF117018DF8172034
:104E3C001A46CDE90055206931F09EFFEF2201237F
:104E4C0020698DF817200DF117011A46CDE9005590
:104E5C0031F092FF304606B070BD00BF00220261F7
:104E6C000275704749008180704700BF04291BD828
:104E7C000F2A19D8092A10B40DD81E4C303254FA06
:104E8C0082F292F8E02042EAC313DBB220F8113030
:104E9C005DF8044B70470B3ADB01042A23D8DFE89A
:104EAC0002F01C16100A0400704743F07103DBB2C9
:104EBC0020F81130ECE743F07903DBB220F8113025
:104ECC00E6E743F05E03DBB220F81130E0E743F095
:104EDC003903DBB220F81130DAE743F07C03DBB2A4
:104EEC0020F81130D4E743F05F03DBB220F8113027
:104EFC00CEE700BFF0200060084601F08FBD00BF78
:104F0C00012A70B508BF0A228AB091B34FF0210E66
:104F1C0001E05FFA86FE0EF1FF36B1FBF2F502FB03
:104F2C0015145FFA84FC092C0CF137040CF1300CCD
:104F3C0098BF5FFA8CF40EF1280C88BFE4B2914252
:104F4C00EC4429460CF8244CE3D24BB10EF1FF3E55
:104F5C002D225FFA8EFE0EF128036B4403F8242CED
:104F6C00036801A9CEF122025B68714498470AB02C
:104F7C0070BD30224FF0210E8DF82520E5E700BFE3
:104F8C002DE9F0418C688AB0DCB1002588460646D4
:104F9C002F462B46212201A9404600F04FF9202C28
:104FAC002246336828BF202201A930465B68A41A28
:104FBC00154498470744002CEBD138460AB0BDE89D
:104FCC00F081274638460AB0BDE8F081002903DBA2
:104FDC0000230A22FFF794BF49422D230A22FFF730
:104FEC008FBF00BF00B5036883B040F60D2C0222C2
:104FFC0001A95B68ADF804C0984703B05DF804FBE9
:10500C00054B022888BF034610B41C681846636819
:10501C005DF8044B184700BFA8D600205AB90368A6
:10502C00C9B2074A1B68934200B506D108465DF821
:10503C0004EB01F0F3BCFFF763BF5DF804EB18471A
:10504C00A92B0000884200DB704730B4124C091ABF
:10505C002368EBB1114A124D82FB032CDA179C44E6
:10506C00C2EB2C4244F2A71C05FB12330D4D05FB81
:10507C0002F20CFB0322002A0CDA6FF000431344FB
:10508C002360B3FBF1F201FB123330BC18447047C0
:10509C00054BF5E71346F3E7E4F300205F0B4E8373
:1050AC001DF30100ECF4FFFF42CE0C1F10B50446BB
:1050BC00006833F0C5F8204610BD00BFF8B50446B3
:1050CC00154632B9036803B11A7000232046A36059
:1050DC00F8BD43680E469A421CD9511C006833F047
:1050EC00EFFB074660B1A368C4E900050BB9037078
:1050FC00276831463846A56039F0F8FB2046F8BDE4
:10510C00206810B133F09CF8276000232046C4E9D6
:10511C000133F8BD07683146A560384639F0E6FB27
:10512C00ECE700BF38B500230446C0E900338360C8
:10513C00037341B10D46084639F0CAFC02462946B4
:10514C002046FFF7BBFF204638BD00BF10B500233B
:10515C008AB00446084601A9A3602373C4E900334E
:10516C0033F010F801A839F0B3FC01A9024620462F
:10517C00FFF7A4FF20460AB010BD00BF10B50023F6
:10518C008AB00446084601A9A3602373C4E900331E
:10519C0000F024FB01A839F09BFC01A90246204633
:1051AC00FFF78CFF20460AB010BD00BF2DE9F84375
:1051BC00044600680D4616468842A36809D8C218F2
:1051CC00914206D20F1A4FF0010936B92046BDE8BC
:1051DC00F8834FF00009002EF8D003EB0608626844
:1051EC0090450CD908F1010133F06AFB0028EDD091
:1051FC00A368C4E9000813B903702068A368B9F167
:10520C00000F08D12946184439F070FB2046C4F829
:10521C000880BDE8F8833246C119184400F03AFA08
:10522C002368002203F80820F0E700BF10B50446FD
:10523C008A680968FFF7BAFF204610BDC2B170B585
:10524C00B1FA81F60C46760919B185689D4201D8F0
:10525C000E7070BDED1A02F1FF3C016820466545E9
:10526C00194428BF65462A4636F056FC665570BD73
:10527C00704700BFA249A34B88422DE9F047A24CCE
:10528C005E699A69D4F80C801BD9A04B984240F205
:10529C000281C31A9E491B0AA1FB031340F227612A
:1052AC00DB0903EB830303EB830303F2E2438B423F
:1052BC0028BF0B46A3F54877964BA3FB0737FF088F
:1052CC0004E0954FB8428CBF0E2706278D4908F095
:1052DC001F09D1F88030B94543F0C003C1F88030C4
:1052EC000CD228F01F08A1F5F82148EA0708C1F8EC
:1052FC000C800B68002BFCDA08F01F0916F0007309
:10530C0024D186490C698649A14300F0EA8082F4D5
:10531C00805134464FF4805514F0605F04D026F071
:10532C0060561E43774B5E6111F4405F07D022F448
:10533C00405274492A438A618B6C1A07FCD446F09C
:10534C000076704A5661936C9B06FCD4754CA04257
:10535C0000F2CE804FF0010C0146634603FB0112B4
:10536C0003F1010E0CF10105A24218D8BEF1080F91
:10537C004FF0010340F08D80BCF1040F00F29180DE
:10538C000A18A24200F2A48005FB00F1AC4603F11E
:10539C00010E03FB01120CF10105A242E6D90CF13E
:1053AC00FF318C0286EA81215F4810445F4A9042AB
:1053BC007FD9DFF8A4A16C225D48584DB0FBFEF0FC
:1053CC00D5F800E0B0FBFCF0DFF890C10EEA0C0C55
:1053DC00D44509D042F400524FF4805CC5F800C0AB
:1053EC002A602A68002AFCDA464A156905F0070586
:1053FC009D4203D01361936CDD03FCD411F4E05F88
:10540C0009D026F4E05604F4E0543E4A2643566193
:10541C00936C9907FCD44749474A014491423CD8C4
:10542C00464BC909A3FB0131090B4B1E1B0286EA33
:10543C00030212F4407F06D026F4407603F4407346
:10544C00304A334353612F4A536923F0007353613D
:10545C00936C9B06FCD43A4B4F45A3FB00234FF0B7
:10546C00FF324FEA9343B0FBF1F1B2FBF3F3354A51
:10547C001060354A1160354A136008D228F01F08B5
:10548C00214A48EA0707D7601368002BFCDABDE80D
:10549C00F087734662E7122718E74FF44073042134
:1054AC00C5E70CF1FF31204807238C02104486EA33
:1054BC008121274ADFF8A8A0A2FB0020020D254875
:1054CC00362A38BF362202FB00F042EA0A0A74E799
:1054DC004FEA8C24002386EA8C214FF0010EAC4657
:1054EC0062E71D4686F0C05411464FF0C05313E7D7
:1054FC0000244FF0010C024631462346E64653E7A2
:10550C0000A4781F00C00F40000008400046C323D1
:10551C0023B24C001F85EB5100366E0100800D400C
:10552C0040300080FFB19F26808D5B00FF7EF64DE2
:10553C0000643F4D7FD1F0087F17B42C9F10E5001D
:10554C0083DE1B43A4D60020A0D60020E8620120F5
:10555C00819F5E16001BB7006C2000807F3001809D
:10556C000020008000B970472DE9F84F01218146D9
:10557C00214C224D224E54E8003F2A68306844E802
:10558C000013002BF7D11F494B684FF47A7BDFF8DF
:10559C0078A01B1A01270BFB02F8DAF80020A3FBFA
:1055AC0002325A4594BF9044D84454E8003F2A68CC
:1055BC00306844E80073002BF7D14B68DAF800C070
:1055CC001B1A0BFB02F2A3FB0C3CBCF57A7F94BFBD
:1055DC00624402F57A72A2EB0802B2F57A7F06D326
:1055EC00B9F1010908F57A78DFD1BDE8F88F01F03F
:1055FC00A9FA0449D9E700BFF4620120F062012046
:10560C00EC620120001000E0E8620120362816D878
:10561C000201104B03EB00109B5810B4C2685C687D
:10562C00144205D061B95DF8044BC3F8882070476B
:10563C00836851B1084A5DF8044B1A607047704793
:10564C005DF8044BC3F884207047044A5DF8044BA2
:10565C001A60704740C8002038F001003830010053
:10566C0036280BD8064B020103EB00109A58C3687E
:10567C0092681A4214BF0120002070470020704726
:10568C0040C8002008B5FEF7F7FFFEF79BFE01F0BF
:10569C0059FAFAE7844641EA000313F003036DD18B
:1056AC00403A41D351F8043B40F8043B51F8043BD9
:1056BC0040F8043B51F8043B40F8043B51F8043BE0
:1056CC0040F8043B51F8043B40F8043B51F8043BD0
:1056DC0040F8043B51F8043B40F8043B51F8043BC0
:1056EC0040F8043B51F8043B40F8043B51F8043BB0
:1056FC0040F8043B51F8043B40F8043B51F8043BA0
:10570C0040F8043B51F8043B40F8043B51F8043B8F
:10571C0040F8043B51F8043B40F8043B51F8043B7F
:10572C0040F8043B403ABDD2303211D351F8043B1F
:10573C0040F8043B51F8043B40F8043B51F8043B5F
:10574C0040F8043B51F8043B40F8043B103AEDD2CE
:10575C000C3205D351F8043B40F8043B043AF9D21F
:10576C00043208D0D2071CBF11F8013B00F8013BF2
:10577C0001D30B8803806046704700BF082A13D3FF
:10578C008B078DD010F003038AD0C3F10403D21A17
:10579C00DB071CBF11F8013B00F8013B80D331F84B
:1057AC00023B20F8023B7BE7043AD9D3013A11F8CB
:1057BC00013B00F8013BF9D20B7803704B78437036
:1057CC008B7883706046704732F032BD32F030BD5A
:1057DC0032F036BD32F034BD32F032BD01F1FF3C57
:1057EC0070B56646002400E00134B0FBF2F502FB14
:1057FC001503092B03F1370E03F130035FFA8EFE0C
:10580C0098BF5FFA83FE9042284606F801EFEBD270
:10581C00631C0022C818CA547CB162461CF8015F94
:10582C0010F8016DA1EB0C0302328CF80060013B07
:10583C00521A057023449A42EFDB084670BD00BF34
:10584C0072B6EFF305834F4CC4F88430EFF3088243
:10585C004FF0E0234C4E4D4DD3F8280DD3F82C1DB2
:10586C00C4E92201D3F8341DD3F8383DC4E924131C
:10587C009369C4F89830D369C4F89C3000F0DCF814
:10588C0084ED280A01F0C2FA0B214FF0FF32C4F864
:10589C00A4000B46C4F880103D49301D5A4020240A
:1058AC0002F00103013C01FB03F383EA5202F7D13E
:1058BC00A84202D073680646EFE7324BC3F8A82023
:1058CC00BFF34F8F4FF0E0232F49324AC3F8701FBC
:1058DC00C3F8702FBFF34F8FBFF36F8F2E4A022583
:1058EC002E48D36E2E4943F44053D3660560D369DA
:1058FC002C4823F07F0343F04003D3610B688342B1
:10590C003DD8264D00214FF0E0234FF0FF322960A7
:10591C000126C5F808112449C5F80011C5F808611D
:10592C00C3F88021C3F88421C3F88821C3F88C21E3
:10593C00C3F8902101E000F071F9D5F80C31002B7F
:10594C00F9D00134C5F80C614F2CF4D9174B022057
:10595C0017494FF00042C1F840015A63D5F80C3199
:10596C003BB9144814490D4A0163D2F80C31002B91
:10597C00FAD04FF0E023114AC3F80C2DFEE7FFF7E5
:10598C0079FCBEE700FF272080FF2720A8FF2720F7
:10599C002083B8EDA0FF272000C00F400040084036
:1059AC00A4D60020803DCD0B009F240000900D401C
:1059BC0000002E4000800F40F100AD0B0400FA05F2
:1059CC000A490A6838B108B513180948834204D843
:1059DC0010460B6008BD1046704738F00DFE0C23C6
:1059EC004FF0FF320360104608BD00BF4CD70020BB
:1059FC0000002820002070474FF0FF30704700BF98
:105A0C004FF4005300204B60704700BF01207047DB
:105A1C004FF0FF30704700BF30BFFDE70078B0FAA1
:105A2C0080F04009704700BF01230370704700BF2E
:105A3C0030BFFDE7FFF704BF124AD2F880305B0796
:105A4C00FBD5D2F880301048C3F30B230F4990EDEF
:105A5C00007A07EE903A91ED006AB8EE477A0C4A5C
:105A6C00F8EEE77A0B4BD2ED006A77EEC77A93ED3E
:105A7C00007AB8EE477A67EE867A87EEA60A37EE9A
:105A8C00400A704700810D40F8610120006201203E
:105A9C0004620120FC610120836BF0B41BB15368DC
:105AAC0043F40043536072B6446B3CB31A4B226010
:105ABC00D3F8B0410C421DD1184E776804E07468DD
:105ACC00E41BB4F5166F0BD2D3F8404144F4804478
:105ADC00C3F84041D3F8B851D3F840416404EED533
:105AEC000D4007D10C4CC0E90225D4F8B0310B4362
:105AFC00C4F8B031426362B6F0BC7047064DC0E9E1
:105B0C000224D5F8B0310B43C5F8B03102634263BF
:105B1C0062B6F0BC704700BF00002E40001000E0E1
:105B2C0070B5056B9DB106462A46002403E0126849
:105B3C000134012A0CD0536813F08003F7D0326380
:105B4C002CB12846B36B2D689847013CF9D170BD38
:105B5C00C6E90C33F4E700BF30B4D9B91F4C204B65
:105B6C000021204A01254FF0011099601D60C4E905
:105B7C00023180245C60C2F8BC01D2F8B0311A4802
:105B8C002B43C2F8B0310160D2F8B031002BFBD1FD
:105B9C0030BC70470904154B104C012541F08001B5
:105BAC009860104A596000F580511D60D96000F56D
:105BBC000051A364196100F5405100F58040596112
:105BCC0000219861E164D2F8B03143F48033C2F81B
:105BDC00B031D2F8B031002BFBD1C0E7000000206F
:105BEC00C0EA002000002E40140D0120E0EA002045
:105BFC00084901220B7802FA00F023EA0000087031
:105C0C0030B9054AD2F8483123F08003C2F8483144
:105C1C00704700BF1A63012000002E402DE9F04FA1
:105C2C00974C83B0D4F84471FB07C4F8447153D536
:105C3C00D4F8AC21002A4AD0924EDFF860A2DFF8EB
:105C4C007492DFF874B2DFF87482C4F8AC21D6E930
:105C5C000A20D4F8403143F40053C4F84031D4F84E
:105C6C0040319D04F5D5D4F8403123F40053C4F8E9
:105C7C0040314FF00113C4F8B431D4F8B45115F0DD
:105C8C000115FAD193B28446CAF80050B3F5086FE7
:105C9C0000F0CF8100F2DB8040F202318B4200F049
:105CAC00E78100F29A80822B00F0CB81B3F5817FE3
:105CBC0040F08A8010F0780F83B200F003824FF02E
:105CCC000113C4F8C031D4F8AC21002ABDD16C4A00
:105CDC00D2F8BC31002B42D17E0616D5684BD3F8D6
:105CEC00AC21C3F8AC21D3F8BC21C3F8BC21D3F848
:105CFC00B041002CFBD14FF0FF32C3F8B421D3F8E4
:105D0C00843100F02DFD604B1C60FC0103D55F4B12
:105D1C001B6803B19847B80103D55D4B1B6803B1F1
:105D2C009847790708D5564BD3F8843113F4007390
:105D3C0047D0584B01221A70514BD3F848311A06F0
:105D4C000AD53B0608D5544A13782BB1013BDBB27C
:105D5C001370002B00F0728203B0BDE8F08F4F4936
:105D6C00C2F8BC310868034240F0D181464A14683D
:105D7C001C40B1D05FEA144810D0424E4FF00109DC
:105D8C0098FAA8F5B5FA85F506EBC51009FA05F5EC
:105D9C004030FFF7C5FE38EA0508F1D1A4B2002C5B
:105DAC009AD0384E4FF0010894FAA4F5B5FA85F55F
:105DBC0006EBC51008FA05F5FFF7B2FEAC43F3D1BC
:105DCC008AE7344A1370B7E7802B7FF478AF3448F6
:105DDC0002210580FFF7C0FE75E7B3F5A06F00F058
:105DEC000B81A3F5D063012B3FF669AF2D4B5D689A
:105DFC00002D3FF464AF1FFA8CFC4FEA124E04E006
:105E0C001D690C33002D3FF45AAF1A887245F7D137
:105E1C005A886245F4D14FEA1E22032A00F0A5816C
:105E2C001A89000C824228BF0246BEF5007F40F062
:105E3C00A181184B1C4918781C4B0192002818BFE3
:105E4C0019461B48FFF726FC194D019AE1E142F275
:105E5C0021218B427CD033D942F221318B4200F08C
:105E6C0081804FF6C0018B427FF429AF10F47F4F35
:105E7C0083B27FF424AF43F46E4363F30F0CB5E7A6
:105E8C0000002E4000000020180D012004630120AA
:105E9C00086301202063012021630120140D0120DF
:105EAC00C0610120A8D3002084220060E822006099
:105EBC00000020200C0D01205DCFC6B8C0012E4083
:105ECC00B3F5106F66D042F221018B427FF4F7AE2E
:105EDC00030C072B7FF4F3AEB24BB349F560D960DA
:105EEC00B249B360C3F80890C1E9002001221A60DE
:105EFC00AF4A5A60AF4A1A61D4F8B01141F00101AF
:105F0C00C4F8B01102F5805102F5005259619A6142
:105F1C00D4F8B031002BFBD1A74AF3649360012372
:105F2C00B264136048F2800353604FF00113C4F85D
:105F3C00BC31D4F8B03143F48033C4F8B0314FF4F1
:105F4C008033CAF80030D4F8B031002BFBD1BAE65C
:105F5C0080B238B9994BC2F307421968984B196053
:105F6C00984B1A70944B00229A60F2640122B3642D
:105F7C001A6080225A604FF00113C4F8BC31D4F877
:105F8C00B03143F48033C4F8B031D4F8B031002BC5
:105F9C00FBD198E6C2F307428B4B1A708B4BC4F8BB
:105FAC00C8318B4BC4F8CC318A4BC4F8D03100F0DB
:105FBC00D9FB80222946884835F0B8FA874B8022D5
:105FCC00C6F8A0B0C6F8E0307B4BF5645A600122ED
:105FDC00B3649D601A604FF00113C4F8BC31D4F85F
:105FEC00B03143F48033C4F8B031CAF80050D4F85F
:105FFC00B031002BFBD166E66F4B0121F5641960C3
:10600C0080219D60B36459604FF00113C4F8BC311A
:10601C00D4F8B03143F48033C4F8B031D4F8B03193
:10602C00002BFBD1130C5B0643F08073C4F8543186
:10603C0049E6654B01216A481B780370FFF78CFD1C
:10604C0041E683B210F078007FF439AE03F07F02A2
:10605C0058F82210624A1080180600F19E80CB0777
:10606C0001D50123137002215D48FFF775FD2AE667
:10607C0010F0780F83B27FF422AE03F07F0213F09E
:10608C00800F58F8223014BF43F4803343F00103DF
:10609C0048F822300022484BF2649A600122B36423
:1060AC001A6080225A604FF00113C4F8BC31D4F846
:1060BC00B03143F48033C4F8B031D4F8B031002B94
:1060CC00FBD100E603F07F0213F0800F58F822306A
:1060DC0014BF23F4803323F0010348F8223000224C
:1060EC00354BF2649A600122B3641A6080225A60C4
:1060FC004FF00113C4F8BC31D4F8B03143F4803301
:10610C00C4F8B031D4F8B031002BFBD1DBE5002062
:10611C00086026490C88486842F221018C427FF4C1
:10612C0025AE80B200287FF421AE2E492E4C03C937
:10613C00A18086284FEA11412060A1717FF416AE30
:10614C0072B62A48017841F008010170D2F8481162
:10615C000D0605D480200143C2F84401C2F8481151
:10616C0062B6234A5021117000E6000C2A78824254
:10617C0028BF0246BEF5E06F44D11E4B1E4D187869
:10618C001E491F4B0192002818BF19462846FFF7DD
:10619C0081FA07236B70019A3BE0C9033FF561AFAD
:1061AC0061E700BFE0EA00200C1D012080EC00201C
:1061BC00800007000C2D0120C0EA0020F0620120B5
:1061CC00006301201E6301201F6301200200CC002C
:1061DC00C80002000200C800800000201993D5748A
:1061EC00C06101200C0D0120F86201201A6301200E
:1061FC00216301202063012000002020E8220060A0
:10620C00842200602946104D01922846FFF742FA7D
:10621C00019A25F01F031544BFF34F8F4FF0E02177
:10622C00C1F8703F20339D42FAD8BFF34F8FBFF3B4
:10623C006F8F05481146FFF78FFC44E50320FFF7ED
:10624C00D7FC45F04DFC00BF000020202DE9F047A5
:10625C001F46831E022B01D9BDE8F087DFF84C9056
:10626C0015460C463C2209EBC01806464FEAC01AEC
:10627C00002108F10400240435F058F9B5FA85F230
:10628C000123520944EA427449F80A40C8F83870AC
:10629C00C8F80830002FDFD0034AB34011680B4315
:1062AC001360BDE8F08700BF180D0120000000202E
:1062BC002DE9F0470D46811E022901D9BDE8F08772
:1062CC00C701DFF84C909246044640373C2200212F
:1062DC001E4609EB07082D0408F1040035F026F9D9
:1062EC00BAFA8AF2520945EA427249F807200122A9
:1062FC00C8F83860C8F80820002EDFD0034B1034E3
:10630C001968A2400A431A60BDE8F087180D0120F5
:10631C000000002012048160C36101F5405342F07B
:10632C00800210B40124426001F50052046001F5B2
:10633C00805401F58041C46081615DF8044BC0E973
:10634C0004237047831E0A46022B00D97047064B64
:10635C0000F110014FF0010C03EBC0100CFA01F12D
:10636C004030FFF799BB00BF00000020831E0A4697
:10637C00022B00D970470121024B814003EBC01066
:10638C00FFF78ABB0000002040687047124A134B8D
:10639C00D2F8200220F07F40984210B584B002D28F
:1063AC0000EB800040000E4C01A90A22FFF716FA00
:1063BC0001A90023204611F8012B01333AB10A2B15
:1063CC0020F8022FF7D11623237004B010BD5B0008
:1063DC00DBB2237004B010BD00441F4080969800BF
:1063EC001CE5002000F0D2BA00F0A2BA00F006BB07
:1063FC0000F0C0BA00F05CBB00F032BB084611469E
:10640C0000F022BBF8B5144C4FF0E025134E4FF4BE
:10641C00003204EB4024124F06EB40160346C5F83D
:10642C008C2121463A883046FFF774FF3B88234481
:10643C00BFF34F8FC5F85C4F2034A342FAD8BFF39B
:10644C004F8FBFF36F8F03203146FFF78FFF4FF451
:10645C000033C5F80C31F8BD8000202000EB002083
:10646C000C630120244B2DE9F0411C884368C5695D
:10647C00C3F30E43E41A002C24DD204920480A788B
:10648C000078D3B21F4E82421F4807D010F8038009
:10649C0036F81870C7F50072944218D901330022EF
:1064AC0026F81540082B194E88BF134626F81520E0
:1064BC0098BFDAB2C554164B0A701A6814441C60A3
:1064CC00BDE8F0812846BDE8F041FFF79BBF07EB24
:1064DC004820104922462744084401EB4521FFF788
:1064EC00D9F80B4A284626F8187013682344BDE8DF
:1064FC00F0411360FFF786BF0C6301201863012085
:10650C0019630120CC610120EC610120DC610120C8
:10651C00C8610120800020201D4B1A78002A36D13A
:10652C0002F0FF031B4A12788AB32DE9F0411A4D91
:10653C002A8852B3194EC2F50068194F3278194C9B
:10654C0007EB421704EBC224424638462146FFF7BC
:10655C00E1FE04EB0802BFF34F8F4FF0E023C3F8CA
:10656C00704F2034A242FAD8BFF34F8FBFF36F8F16
:10657C0004203946FFF7E6FE33780133DBB2032BF8
:10658C0088BF0023337000232B80BDE8F081704757
:10659C001D6301201F6301200E6301201C63012079
:1065AC0000EC0020801020202DE9F04F85B0CDE9C3
:1065BC000110002900F0BF800023604CDFF89881A7
:1065CC00DFF898A15E4F009301235E4A23705E4B67
:1065DC001978B8F8003002EB4119002B40F0A78075
:1065EC001E461D469B464846FFF7CEFE10F0800027
:1065FC0000F08C80BFF34F8F9AF8003084F800B015
:10660C0005B93E68002B7DD13B689B1B782B00F2B3
:10661C0087804E4B1B78002B74D000F093FA01222C
:10662C00B8F8003015462270002BDCD0464AC3F572
:10663C00006011781A4600EBC120454DC902284470
:10664C00019D954217D20393DDE901512A46FFF7CC
:10665C0021F8039B4FF040425B1BA8F800303D4BE8
:10666C00C3F88420BFF34F8F009800232844237075
:10667C0005B0BDE8F08F364BCD180299FFF70AF83C
:10668C0000234FF4006229464846FFF743FEBFF350
:10669C004F8F05F1200205F50063934234BF0123AF
:1066AC0040234FF0E02205EB4313C2F8705F203516
:1066BC00AB42FAD1BFF34F8FBFF36F8F0420494623
:1066CC00FFF740FE204A13780133DBB2032B84BF63
:1066DC0000231D4A1370B8F80030019AD11A009AA1
:1066EC001A4401910092029A1A4400230292194A08
:1066FC00A8F80030C2F88430BFF34F8F2370002904
:10670C007FF462AF009805B0BDE8F08F4FF40062E3
:10671C000D4B8AF8000019781346A8F800208AE778
:10672C00012300988AF8003005B0BDE8F08F1A46B6
:10673C00C3F500607FE70198E5E700BF1D6301200A
:10674C00F062012000EC00201C6301201F6301207B
:10675C008010202000002E400E6301201B630120BE
:10676C00704700BF2A4B002180222A4870B51B7845
:10677C000024294D8B42294E0CBF40234FF400734B
:10678C002B80338034F0D2FE254A2146254B1470E1
:10679C004FF4807224481C8034F0C8FE234A102128
:1067AC00234B0220C2E90044C2E90244214AC3E956
:1067BC0000441470204AC3E90244204B1C70234649
:1067CC0014602246FFF774FD2246318803201C4BCF
:1067DC00FFF73CFD2346012229880420FFF768FDC2
:1067EC0020460134FFF70EFE082CF9D1154B4A2236
:1067FC0015480021154C0460C3F88410C3F88020A0
:10680C00D3F8482142F08072C3F8482170BD00BF14
:10681C002063012000EC0020106301200C63012098
:10682C001C6301200E63012000EB0020CC610120D1
:10683C00DC61012018630120C8610120196301206B
:10684C001541000000002E4004630120C9410000E6
:10685C002DE9F04F4FF0E0234FF40032DFF8C8A0E1
:10686C0083B0C3F88C218B469AF8004000294FD096
:10687C008046E4B20027DFF8B490264BABEB07025E
:10688C0025491B78A34204F101043FD0092C234B6A
:10689C00404628BF00241E5D39F816C00CEB462379
:1068AC0019441F4B33F81650A5EB0C05AA421CD209
:1068BC000CEB462C18491B4C61440192FEF7EAFE86
:1068CC00216839F816505846019AA1EB0B012A445D
:1068DC00394429F8162021604FF0E0234FF40032A0
:1068EC00C3F80C2103B0BDE8F08F2A462F44FEF705
:1068FC00D1FE0C49E3B230460A68A844521B0A6028
:10690C008AF80030FFF77EFDBB45B6D83846E3E782
:10691C000846E1E71863012080002020EC6101208B
:10692C00CC610120C861012019630120DC610120C8
:10693C000B4B0C4A12781978D3B28A420DD0013322
:10694C0009480A4A092B0A4928BF0023C35C31F8BD
:10695C00131002EB4323585C70474FF0FF30704725
:10696C001863012019630120EC61012080002020B4
:10697C00DC610120044B10B51C680CB1204610BD25
:10698C0000F0E0F8204610BDC86101202DE9F84F59
:10699C00144E154D33782A78934221D0DCB2DFF8AF
:1069AC005090DFF850B0DFF85080104F0134082CB5
:1069BC005FFA84FA01D90024A24619F80400DBF826
:1069CC00003038F8102037F81010521A9B1ACBF8F8
:1069DC000030FFF717FD86F800A02B78A342E5D115
:1069EC00BDE8F88F1963012018630120DC610120D8
:1069FC00EC610120C8610120CC61012000B583B09D
:106A0C0001210DF10700FFF723FF20B19DF80700CE
:106A1C0003B05DF804FB4FF0FF30F9E7094B00B50C
:106A2C0083B01B788DF807003BB101210DF10700F5
:106A3C00FFF7BAFD03B05DF804FB03F0FF0003B0F1
:106A4C005DF804FB1F630120044B1B7803F0FF026D
:106A5C000BB1FFF7A9BD1046704700BF1F630120A3
:106A6C002DE9F0410024DFF8448001230D4D274629
:106A7C000D4E88F80030337828462035A34204F1B7
:106A8C00010405D0FFF780FC030658BF07F500672B
:106A9C00042CF0D1BFF34F8F0023384688F8003018
:106AAC00BDE8F08100EC00201C6301201D63012077
:106ABC002DE9F8431D4B1B7813B11D4D2A880AB9DB
:106ACC00BDE8F8831B4EC2F500691B4933784A4672
:106ADC001A4C01EB43181A4F04EBC3240123404614
:106AEC003B7021460023FFF715FC04EB0902BFF3B2
:106AFC004F8F4FF0E023C3F8704F2034A242FAD8E6
:106B0C00BFF34F8FBFF36F8F04204146FFF71AFC82
:106B1C0033780133DBB2032B88BF0023337000239F
:106B2C002B80BFF34F8F3B70BDE8F8831F630120B0
:106B3C000E6301201C63012000EC0020801020203B
:106B4C001D6301202DE9F843324E337863B1324F87
:106B5C003A784AB90122D9073A7044D49A0726D414
:106B6C0000225B073A7001D4BDE8F8832B4B1A68FE
:106B7C00002AF9D0EFF30582002AF5D1EFF3108546
:106B8C0072B6186800283BD0254C2178002937D1E3
:106B9C000122227042691A60002A38D0916105B92D
:106BAC0062B600258368457798472570DCE7DFF8E7
:106BBC007C8098F80020002AD2D00025DFF8709055
:106BCC002B4659F823400135236820461B6998470A
:106BDC0010B163699B68984798F80020EBB29A4211
:106BEC00EFD83378BCE7FFF7C5FE68B90D4B1B78BF
:106BFC000BB93378B2E7337803F0FE033370ADE7AB
:106C0C00002DB1D162B6AFE700F012F9EEE7064BFA
:106C1C001A60C4E733E500201463012080020120D0
:106C2C0012630120582300608C02012013630120A1
:106C3C009002012070B5EFF3108272B60C4C2068F4
