:0200000460009A
:100000004643464200000156000000000103030081
:1000100000000000000000000000000000000000E0
:1000200000000000000000000000000000000000D0
:1000300000000000000000000000000000000000C0
:1000400000000000010408000000000000000000A3
:100050000000800000000000000000000000000020
:100060000000000000000000000000000000000090
:100070000000000000000000000000000000000080
:10008000EB04180A063204260000000000000000FD
:10009000050404240000000000000000000000002F
:1000A0000000000000000000000000000000000050
:1000B0000604000000000000000000000000000036
:1000C0000000000000000000000000000000000030
:1000D00020041808000000000000000000000000DC
:1000E0000000000000000000000000000000000010
:1000F0000000000000000000000000000000000000
:10010000D8041808000000000000000000000000F3
:100110000204180804200000000000000000000095
:1001200000000000000000000000000000000000CF
:10013000600400000000000000000000000000005B
:1001400000000000000000000000000000000000AF
:10015000000000000000000000000000000000009F
:10016000000000000000000000000000000000008F
:10017000000000000000000000000000000000007F
:10018000000000000000000000000000000000006F
:10019000000000000000000000000000000000005F
:1001A000000000000000000000000000000000004F
:1001B000000000000000000000000000000000003F
:1001C000000100000010000001000000000000001D
:1001D000000001000000000000000000000000001E
:1001E000000000000000000000000000000000000F
:1001F00000000000000000000000000000000000FF
:10020000FFFFFFFFFFFFFFFFFFFFFFFFFFFFFFFFFE
:10021000FFFFFFFFFFFFFFFFFFFFFFFFFFFFFFFFEE
:10100000D10020432914006000000000000000000F
:10101000201000600010006000AC046000000000C0
:101020000000006000B8040000000000FFFFFFFFA8
:10103000FFFFFFFFFFFFFFFFFFFFFFFFFFFFFFFFC0
:10104000FFFFFFFFFFFFFFFFFFFFFFFFFFFFFFFFB0
:10105000FFFFFFFFFFFFFFFFFFFFFFFFFFFFFFFFA0
:10106000FFFFFFFFFFFFFFFFFFFFFFFFFFFFFFFF90
:10140000884207D0904205D251F8043B40F8043B93
:101410008242F9D8704700BF884204D2002340F8C6
:10142000043B8142FBD87047664B4FF42A01664A61
:1014300066482DE9F0475A641864654A99639546F1
:10144000BFF34F8FBFF36F8F00F030F9614B08206F
:10145000614A6249C3F854016148FFF7D1FF614A0C
:1014600061496248FFF7CCFF61496248FFF7D4FF4A
:10147000614C62494FF470000023614A086044F8EF
:1014800023200133B02BFAD15E4B80215E4A03F852
:10149000011B9342FBD14F4D4FF080385B494FF019
:1014A000FF325B4B0026DFF8A4A1DFF8A4911C609B
:1014B000C5F80481C5F800A1C5F8F480C5F8F0901E
:1014C0000B68544F43F4E0230B60FB693D4923F064
:1014D0007F0343F04003FB617B6A23F07F0343F00B
:1014E00040037B628A66CA660A674A6700F0E4F8CE
:1014F000494A4A4B6320A2630321E363484A494BAC
:10150000106000F160401E6042F8041C00F6A170FB
:101510004549464AC3F8082D0B68454A43F0807395
:101520000B601368434943F00103136003680B60C9
:1015300000F012FBC5F804813F48C5F800A1C5F8CA
:10154000F480C5F8F09000F06FFCF96E3B4A41F46E
:1015500040513B4BF9661660C2F80861C2F8186149
:10156000C2F82861C2F838619A6BD20708D442F6F3
:101570001562344959651A659A6B42F001029A6303
:101580002F4A314C936843F00113936000F006F941
:1015900000F060F800F050FC00F010FB00F088F85C
:1015A0002368132BFCD900F097FB2368B3F5967FD3
:1015B000FBD300F07FF800F053FC00F04DFC30BF8F
:1015C000FDE700BF00C00A40FFFFAAAA07002000F5
:1015D0000000042000800D4020FA0300701F00600E
:1015E00000000000C06E002056390460000000209A
:1015F00020DB0020C06E0020006C002088ED00E0A1
:101600002524000000E400E0A0E400E024ED00E078
:1016100008ED00E000C00F40AD380000B138000018
:1016200014E000E018E000E0FCED00E00000202005
:10163000001000E0CCD900200046C3230040084041
:1016400000400D400000C056D0D900201B101820CB
:101650000C0D1113114B1249D86E0A4640F440305C
:1016600030B4D86640F23765D86EA02440F440709C
:10167000D8664D648C64936C1B06FCD4094B40F215
:101680003760A0211A4658649964936C13F0800364
:10169000FBD1054A137030BC704700BF00C00F403B
:1016A00000400C4000800C405ADA0020704700BF18
:1016B000704700BF704700BFF0B5244A0020244B9C
:1016C0004FF0100C234C1126DFF8C8E012272060E1
:1016D0000125C2F800C0C3F800E01660DFF8B8E0EA
:1016E0001D4EC3F800E01D4917601E6041F0150152
:1016F0001B4F1C4E17601E601B4F1C4E17601E6058
:101700001B4F11601B4E1C491F6016601B4F196058
:101710001B4E1C4917601E601B4F11601B4E1C495D
:101720001F60166019602560BFF34F8FBFF36F8F86
:10173000C3F8B001BFF34F8FBFF36F8F52F8883CEF
:1017400043F4403342F8883CF0BD00BF9CED00E01C
:10175000A0ED00E094ED00E00900100020DB002087
:1017600013002000210002071400002025000813A8
:10177000090000101600202027000B13170000405E
:1017800033001013180000602F000B0719000070C1
:101790002F000B133F00001025000803F0B58D4B00
:1017A00018228D4E01208D4948F20C7E8C4D4FF051
:1017B000FF378C4C83B0C3F85C12C3F8605200252D
:1017C000C3F86412C3F868424FF40054C3F86C6263
:1017D0008549C3F87062C3F87462C3F87862834EB7
:1017E000DA661A675A679A67DA67C3F88020C3F81F
:1017F0008420C3F8882040F20562C1F82C03C1F8A8
:101800003003C1F83403C1F83803C1F83C03C1F810
:1018100050032946B36976481840764B034376480F
:10182000B361D6F8843043F00C03C6F88430022646
:10183000036833430360036803EA0E0E6F4B4EEAFE
:101840000303DFF8F0E103606D4B4760DEF80870DA
:101850003B406C4F43F000538360C36823F0780330
:10186000C360036A1F40684B3B43664F0362036AD1
:101870001F40654B3B43654F43628762C762DEF89A
:10188000B830634F23F03F0343F00103C0F8B83092
:10189000DEF8BC30DFF884E123F03F0343F00103BE
:1018A000C0F8BC30056104660767C0F88020446654
:1018B0004767C0F884200468564B24F00204564A57
:1018C0000460C0F818E0C66143F8041B9342FBD1E2
:1018D000494B1A68194642F001021A600B68464AE1
:1018E00013F00103FAD14D4E022540F2F56440F2A7
:1018F000664040F299414A4F966142F20146D561F5
:1019000040F23545C2F8004242F20124C2F810020A
:101910000120C2F820121146C2F8307207F15A476E
:10192000C2F8346207F51377C2F840523D4E3E4D7F
:10193000C2F85072C2F85462C2F86052C2F86442EF
:10194000C2F8A030C2F8A430C2F8B0004B692A4AED
:10195000DD07FBD5012300244FF48030114653618D
:10196000C2F8A040C2F8A400C2F8B0304B69224AC5
:10197000DC07FBD5012300244FF4003011465361EE
:10198000C2F8A040C2F8A400C2F8B0304B691A4AAD
:10199000D807FBD501230024244811465361C2F81F
:1019A000A040C2F8A400C2F8B0304B69124ADB076D
:1019B000FBD5D2F8003145F60D5121209BB2506184
:1019C0008B4239D01A4B00221A605A609A60DA6052
:1019D00003B0F0BD00801F40F9700100F9B00100B4
:1019E000F9100100F900010000841F4000C00F4001
:1019F000FFFCFF1F000300A000402A401200FFFF71
:101A0000FF37F70000FFF07C40000080FF000F83ED
:101A10006300020000422A4000432A40F05AF05A74
:101A20009F041830063201263806180A0400030005
:101A3000C4DA002000802A4000244FF480200123D3
:101A40001146C2F8A040C2F8A400C2F8B0304B69F9
:101A50003B4ADF07FBD501234FF400040020114669
:101A60005361C2F8A040C2F8A400C2F8B0304B697C
:101A7000334ADE07FBD501234FF400044FF48030D6
:101A800011465361C2F8A040C2F8A400C2F8B030B9
:101A90004B692B4ADD07FBD501234FF400044FF4BB
:101AA000003011465361C2F8A040C2F8A400C2F849
:101AB000B0304B69224ADC07FBD501234FF4000408
:101AC000204811465361C2F8A040C2F8A400C2F8F1
:101AD000B0304B691A4AD807FBD5D2F8003145F629
:101AE0000D5121209BB250618B4210D0164B082221
:101AF0004FF400041A7015490020154A0123009084
:101B0000521A1448224400F093F903B0F0BD4FF488
:101B100000044FF4802101231046C2F8A040C2F80F
:101B2000A410C2F8B03043690549DB07FBD501209A
:101B3000054B10224FF0807448611A70DBE700BF3C
:101B400000402A40040003005BDA0020000000701F
:101B500000000070C4DA0020F0B4174A40274FF4A8
:101B600080314FF480564FF400554FF4404443F217
:101B70004200136913F0020F06D094615161906125
:101B8000136913F0020FF8D113F4005F01D155610E
:101B9000EFE713F4805F01D15661EAE7002BE8DA42
:101BA00013F4803F01D09161E3E75B0601D45761F4
:101BB000DFE7F0BC704700BF00800D40394A0320CA
:101BC0003949F3EE095A13689FED386A23F001038F
:101BD000DFED376AF0B4136000241061D1F8E03013
:101BE000344FD8B2C3F30B211B0D334E07EE100A4E
:101BF00005EE101A07EE903A304BB8EEC55A304D4C
:101C0000B8EEC77A3060F8EEE77A29602D4937EEF2
:101C1000466A2D4E77EEC57A2C4877EE666A2C4DD3
:101C200037EE657A26EE276AC7ED007A66EEA76A78
:101C3000176867EE277A83ED007AC6EE075A86EEBC
:101C4000876AC7EE876A35EE857AFCEEC77A36EE8C
:101C5000057A17EE903ABCEEC77A47EA035376EE60
:101C6000857A136017EE103AD2F81071FCEEE77A1D
:101C700001EA0341394317EE903AC2F81011C3F359
:101C80000B03D2F810110B43C2F81031136843F064
:101C9000020313603470C0F840510E4B0122F0BCB7
:101CA0001A60704780810D4000441F400000AA4226
:101CB0000000B442C4D90020BCD90020C0D9002003
:101CC000B8D900200000FF0F40E400E0006C0020C5
:101CD0002526000008E100E0304B40F6617270B547
:101CE000C3F8202140F2044500F0B2F82C492D48F9
:101CF000D1F880202C4C42F003022C4BC1F88020FC
:101D0000C0F86051226813401BB9D0F8A8319A0777
:101D10001AD0244B4FF00041234A51631A46D3F89E
:101D2000401141F00201C3F84011D2F840319B0745
:101D3000FBD44FF400301E491B4B4FF000420860AB
:101D400019209A6300F080F81A4D0022164B4FF0CC
:101D50008041144C0A26996328461A601146C4F83B
:101D6000A8614FF4207200F06BF84FF4810640F246
:101D700043114FF48000104B104A2E602864C4F8C1
:101D80005851C4F84811C3F804220D4A4FF40031E9
:101D900001231160C4F8403170BD00BF00800D40C8
:101DA00000C00F4000002E4000900D40001C1E009F
:101DB0008CE200E000000020006C0020F127000011
:101DC0000CE100E008B50E4B1B6E9B0700D4FBBE78
:101DD00072B60C4B00200C4AC3F8400103F160437B
:101DE0000A49A3F55F2311649D46BFF34F8F084A4C
:101DF00003F5E0430749126818461960936898474D
:101E000000441F4000002E4000C00A400300200094
:101E10001C002000000012EBF8B500BFF8BC08BCA5
:101E20009E467047000000005FF800F0D1380000C7
:101E30005FF800F0D13E00005FF800F0953B000035
:101E40005FF800F03D1F03005FF800F0B5210000CF
:101E50005FF800F0912F00005FF800F08122000091
:101E60005FF800F01914030045000000451700005A
:101E700069170000E9170000D91900005D1F000074
:101E800079CB0000254E010025690100E57D0100A8
:081E900021F40100F534020009
:101E980016035500530042002000530065007200ED
:101EA800690061006C0000001803540065006500BB
:101EB8006E00730079006400750069006E006F00A1
:101EC8000403090409024B00020100C032080B0098
:101ED80002020201000904000001020201000524B7
:101EE800001001052401010104240206052406004E
:101EF800010705820310001009040100020A00000E
:101F080000070503024000000705840240000000A6
:101F180009024B00020100C032080B000202020154
:101F28000009040000010202010005240010010557
:101F38002401010104240206052406000107058284
:101F48000310000509040100020A00000007050348
:101F58000200020007058402000200000A060002CF
:081F6800EF020140010001003D
:101F70000000000000000000000000000000000061
:101F80000000000000000000000000000000000051
:101F900010B5054C237833B9044B13B10448AFF3A3
:101FA00000800123237010BD487000200000000055
:101FB00074E80300084B10B51BB108490848AFF39B
:101FC00000800848036803B910BD074B002BFBD005
:101FD000BDE81040184700BF000000004C70002012
:101FE00074E80300C06E002000000000826AC36A2B
:101FF0009B1A002B02D141F288307047A1EB0201FD
:1020000042F210721846B8BF581C02FB01F101EBF6
:10201000600000FB03F2002A90FBF3F0EDDA0138D8
:10202000704700BF044B82691B6840699B1A984245
:10203000CCBF002001207047D0D90020C069704774
:10204000006A704738B50A4B04461A680368826113
:1020500000791D6902F020F8064B014620469D429A
:1020600003D1FFF7C3FF606238BDA847606238BD87
:10207000D0D900207D00000010B50C46042002F0ED
:102080005BF9046010BD00BF08B5042002F054F9EC
:102090000022026008BD00BFF0B4094D0026094FC0
:1020A0002D68C16142610599069A4360049B856170
:1020B000076046628362C1620262F0BC704700BF83
:1020C000D0D900203C2B0020002070472DE9F043A0
:1020D00042F610135D4C91B0DFF884E1C150164612
:1020E000206810AC5A4B00901B6A5A48C3F3012376
:1020F000056802462344046805F0807513F8407CA7
:1021000044F0A0430EFB07FE0360BEFBF1F0BEFBF4
:10211000F0F7CF1B1368DC01FCD5052840F2938053
:1021200000221446931C0132B0FBF3FCBCF1190FE2
:102130000CFB03F3F6D84FF00108BEFBF3F3CB1A08
:10214000002BB8BF5B42BB426CDB18BF4FF00008EE
:10215000ACF10C03062B03D8B8F1000F18BF1446DE
:10216000BCF1050FDED8631CB7F5967FB0FBF3F02A
:10217000A0F1050E59DCBEF1140F56D8364FE846D3
:1021800007F130093868103757F80C1CC44657F867
:10219000082C08F1100857F8043C4F45ACE80F0034
:1021A000F0D10EEB4E0E10AB3868022E73447968F6
:1021B000BA68B7F80CE0BF7BA8E80700A8F800E011
:1021C00088F8027013F8400C13F83F1C00F0070069
:1021D00013F83E3C4FEAC141204A40F480004FEAE8
:1021E000034301F4601103F4E02341EA000143EAF0
:1021F000010343F4804343EA04641460136814BF8A
:1022000023F0080343F00803136045B9114B196824
:102210001A4621F0805119601368DB01FCD411B01B
:10222000BDE8F0831F46144692E7002DF7D1094B15
:1022300019681A4621F0805119601368D901FCD43D
:1022400011B0BDE8F083012300248DE7980300203E
:1022500000C00F4000401D409C03002004401D4072
:1022600040420F0000207047002070470820704750
:10227000104A1149136808681268096802F07F0261
:10228000C1F3036101320431B2EB410F10D303F00B
:102290007F03C0F30360053B0130A3EB4000C3B2F2
:1022A000044A106800F07F000130C01AC0B27047C5
:1022B0000023F5E700401D4034401D400349012242
:1022C0000B6802FA00F003430B60704730401D407A
:1022D000F0B541F6263E184E002541F6DC4CC660AE
:1022E00041F6A45700EB0E0605844584858420F84A
:1022F0000E5000EB0C0E7580B580C61920F80C50FE
:1023000042F20C7CAEF80250AEF8045042F20D7E60
:10231000C55342F618177580B58042F61C16016049
:1023200042F620118260436000F80C50C55100F85D
:102330000E5085514554F0BD182B0020F8B50446C9
:102340000D460B46103004F1200153F8042F40F8DD
:10235000042B8842F9D141F6063205F1140101F04F
:102360004FFF41F61A3141F626304FF4DB72294413
:1023700004F10C06204441F6FC5701F041FF41F600
:10238000D04141F6DC40C82229442F44204401F0CA
:1023900037FF41F6985141F6A45066222944204463
:1023A00001F02EFF42F20C1E06F5F053A64403F195
:1023B00018003A4652F8041F43F8041B8342F9D12F
:1023C000734507F11807F2D142F2FC0742F20C7E86
:1023D00006F504532F44A64403F118003A4652F878
:1023E000041F43F8041B8342F9D1734507F1180712
:1023F000F2D105F51C5242F20C7142F2017742F221
:10240000047392F800E042F61000EF5D334404F8E4
:1024100001E0204442F20D71675452F8041F43F862
:10242000041B8342F9D142F6040142F6080342F646
:1024300014100A466F58334442F610012A442044CF
:10244000675052F8041F43F8041B8342F9D142F647
:10245000081142F60C1242F6101642F61413685890
:1024600042F61811AF5842F61C12AE59E05042F62F
:102470002010675042F61511A65042F62112EB5C6F
:1024800023546B5CA354F8BD416070471F2938B5D5
:102490000D46144634D91C49A5F1200001230A68D1
:1024A000834013430B60194B4FF00061E2792B44DA
:1024B0001B011960BAB1217A2268002922F060421A
:1024C00014BF4FF4E0014FF4C0015A60E06800BA55
:1024D0009860206900BAD860E27A41EA024242F08C
:1024E00040621A6038BD2268207A9104084A0028A8
:1024F00002EA01020CBF00214FF480115A60E5E7A7
:102500000846FFF7DBFECEE72C401D4008D401044F
:102510000000FC1F2DE9F04341F61A348E464FF0BF
:102520001A0887B00444DEF80820DEF80C30844630
:1025300067884FF0000908686D4607F00F07496883
:102540006E4608FB07470FC5DEF810001822DEF8BC
:10255000141041F61A3E87F81690638803F00F03B3
:1025600008FB0343DA75678807F00F0703C508FB0C
:1025700007470FCEB861F9613A627B6203CEB86259
:10258000F96262883CF80E3092B29BB283F010037D
:102590009A420FD06388013303F01F036380A3883E
:1025A0009BB20F2B03D8A38801339BB2A38007B043
:1025B000BDE8F0833CF80E30013303F01F032CF824
:1025C0000E30E7E7F0B58B7D0546474C87B00E46E9
:1025D0002068002B38D110F0005062D123680146EA
:1025E000424B0B441B011B68C3F30363082B24D02D
:1025F0003D4A04E02368C3F30363082B1DD013682E
:10260000481C3A4C03F07F03C1B201330C44994299
:102610004FEA0414EED30FCE6C46FF270FC496E8A2
:10262000030084E80300284669468DF81470FFF71C
:1026300071FF4FF0FF3007B0F0BD28463246FFF77C
:1026400025FF012007B0F0BD10F0005033D1236802
:10265000264B044603441B011A68110114D4224975
:1026600002E01A6812010FD40A6801301F4B02F011
:102670007F02C0B201320344044690424FEA031382
:10268000EFD31B4B4FF0FF341B68C3F30363082BDE
:102690001AD128463246E1B2FFF7F8FE012007B012
:1026A000F0BDFFF7E5FD2368014603F07F0301332A
:1026B000834295D8AFE7FFF7DBFD236803F07F0384
:1026C00001338342C4D8DCE70FCE6F460FC796E8CC
:1026D000030087E80300284669468DF81440FFF799
:1026E00019FF4FF0FF30A6E700401D4008D4010459
:1026F00070401D4010B586B00446684601F00EF8E3
:10270000694604F10C00FFF75DFF06B010BD00BF85
:102710000B682DE9F0430C4687B007461B68084656
:1027200098472368804620469B689847014606469E
:10273000154801F0A5FC144801F04AFC2368204626
:102740005B689847114B7A6881461D682368AD1A0B
:10275000721C14D0314620465B69984702464B46AE
:102760004146009502A800F0C9FF02A93846FFF7CC
:10277000C1FF02A800F0CAFF07B0BDE8F083204601
:102780009B6998470246EAE764620020D0D900209E
:1027900038B58368002B18DD0546002403E00134BA
:1027A000AB68A34211DD2B6853F824000368DB6893
:1027B00098470028F3D02B68284653F8241001349A
:1027C000FFF7A6FFAB68A342EDDC38BD01EB41018A
:1027D00030B4C90000F5045460586318C0002AD50D
:1027E0006058400F012829D06058400F022838D087
:1027F0006058400F052802D0002030BC7047605858
:10280000C0F3C210C0B158695C68596910402140DA
:10281000884210D001211C680131C4F3C214C9B22E
:102820000134A142E8D25C6953F821505869144040
:1028300028408442EFD1012030BC70476158C1F379
:10284000C211B9B159688A42F6D01968C4B2C1F34D
:10285000C211601C8C42CFD253F820109142F4D1A7
:10286000E9E759688A42C7D3986882428CBF002042
:102870000120E1E70846DFE70B78632B70B50446DB
:1028800015460FD000EB830342F204729B580BB144
:102890002846984742F60403E3584BB12846BDE862
:1028A0007040184742F20473C358002BF0D1F1E78F
:1028B00070BD00BF2DE9F04F8E468DB006460F4625
:1028C0006C464FF00109354606F11008DFF820A1EB
:1028D000BEE80F000FC49EE8030084E8030055F82B
:1028E000044F6CB19DF91420D4E9020109FA02F3F6
:1028F0000021184050EA01035DD1237C002B4DD10B
:102900004545ECD106F51C531B78002B5ED0B6F87C
:1029100016C04FF01A0E386806AC5FFA8CFC796866
:10292000BA684FF00008FB680EFB0C6C25460FC41C
:102930003869182279698CF81A81F38ADBB20EFBA8
:10294000036383F81B21F38ADBB203C40EFB036726
:102950000FCDC7F81C01C7F82011C7F82421C7F80C
:10296000283103CDC7F82C01C7F83011F28AB38A99
:1029700092B29BB283F480739A4232D0F38A0133CD
:10298000C3F30803F382338B9BB2FF2B03D8338B43
:1029900001339BB233830DB0BDE8F08F2368D3F8C9
:1029A00000B0D345ACD020469DF815304FF0FF3233
:1029B0006946D847A4E72368D3F800B0D3459CD034
:1029C0009DF8153069462046D84796E73B7D0CA90F
:1029D00030463A4601F8183DFFF74EFF0DB0BDE80E
:1029E000F08FB38A0133C3F30803B382C6E700BF95
:1029F0005901000042F20173C35C002B00F0AC806F
:102A00002DE9F04F0F4689B00E46054602ACDFF8BF
:102A100070E20FCF0FC497E8030084E80300DEF8EC
:102A200000309B0054D5954B00244FF0630B1B687E
:102A3000C3F3036A4FEACA0A0AF1080A0CE01968EC
:102A4000490F022900F095801968490F052900F007
:102A5000AD80013454453BD096F914305FFA84FCC4
:102A6000632B35D004EB440805EBC80909F5F05396
:102A7000196811F0604FECD01968490F0129DED1B7
:102A80001A68F179C2F300429142E2D11A6812F455
:102A9000607FDED01F464FEA4808002306E03A6810
:102AA0005FFA89F3C2F3C2129342D2D203F1010951
:102AB000029A08EB090303F5F06355F823309A42B4
:102AC000EDD102A928468DF81CB0FFF7F3FEE6E72A
:102AD00000236B4F8DF80E303C6814F000543CD14D
:102AE0003B68DFF89C8108E0D8F80030013403F03F
:102AF0007F03E4B201339C4238D296F91430A342EA
:102B0000F2D004EB440105EBC10202F5045318684E
:102B100010F0604FE8D01868F779C0F3C0608742C2
:102B2000E2D11868400F012874D01968490F0229B2
:102B300000F094801B685B0F052BD5D1029A2146CB
:102B40002846FFF743FE0028CED002A928468DF87C
:102B50001C40FFF7AFFEC7E77047FFF789FB3B68F4
:102B6000044603F07F0301339842BAD309B0BDE8AD
:102B7000F08F1B68F279C3F300439A427FF469AF88
:102B800041F60463029A4B441B689A42FFF461AF1A
:102B900041F6086353F809309A423FF65AAF02A94A
:102BA00028468DF81CB0FFF785FE52E71B6813F42A
:102BB000607F3FF44EAF41F614634FEA48080127A7
:102BC0004B440AE009F5F05101370968FFB2C1F33F
:102BD000C21101318F42BFF43CAF08EB0701186806
:102BE000029A01F5F061104055F821E019680EEAEB
:102BF00001018842E6D102A9284601938DF80EC052
:102C0000CDF800C08DF81CB0FFF754FE019BDDF835
:102C100000C0D7E71A6812F4607F3FF465AF1F4623
:102C20004FEA410A002307E03A685FFA89F3C2F3EA
:102C3000C2129342BFF458AF03F10109029A0AEBA2
:102C4000090303F5046355F823309A42ECD102A935
:102C500028468DF81C40FFF72DFEE5E742F20413ED
:102C6000029913441B689942FFF43EAF42F20813E5
:102C70009B5899427FF669AF36E700BF34401D404C
:102C800000401D402DE9F04F082100259DB0DFF8E0
:102C90009CC0DFF89CE02A46224C80460C952846D2
:102CA0008DF833100A950B950D950E950F95DCF860
:102CB00000C0DEF800E024686346DFF878C042EA2E
:102CC0000E0A2146184CDCF800509B46236840EA67
:102CD00005001D04CDE9020103D423689C0000F126
:102CE0009981DDE9022342F00102002B00F0868188
:102CF000B3FA83F5DFF83090C5F14005D9F800400C
:102D0000EBB214F000541D4640F09082D9F8003028
:102D100042F61513CDF814804344CDE900670893BB
:102D200089E000BF2C401D4000401D4024401D4054
:102D300028401D4030401D4000F4001CD3F804E042
:102D4000BCF1000F2EF0604E0DBF122600260127A9
:102D500000272EFA06FE06298DF82F70CDF828E000
:102D600000F060820899C0F3034E8DF83C40BCF13E
:102D7000000F09788DF833E008BF4FF0806E8DF8B2
:102D80003D1018BF4FF08C6E99681F2CADF82C00C9
:102D90008DF8371099684FEA11218DF8361099682F
:102DA0004FEA11418DF8351099684FEA11618DF89D
:102DB0003410D9688DF83B10D9684FEA11218DF88D
:102DC0003A10D9684FEA11418DF83910D9684FEAA5
:102DD00011618DF83810C3F800E08A4B1B6840F28F
:102DE0001D820121884B01FA02F21B681A43864BAF
:102DF0001A600A9A21460598FFF7E8FC002840F07F
:102E000008820AA90598FFF7F5FD0AA8AFF300802C
:102E10000AA8AFF300800AA8AFF300807B4B01340F
:102E20001B68E4B203F07F0301339C4280F0998178
:102E3000A54240F296812AFA04F2C4F120030092DE
:102E40000BFA03F0009EA4F1200206432BFA02F1D4
:102E5000304608432BFA04F100900191DDE90001AE
:102E6000002100F001000143D8D0DDE9026707FA34
:102E700003F326FA04F8394648EA0308D14048EA41
:102E80000108002108F0010050EA0103C6D0604BA0
:102E900023441B011868010E01F00B0E01F00F0115
:102EA000BEF1020F3FF448AF042900F0F981082970
:102EB000B4D1C0F3034E089991F800C059688DF859
:102EC00033E000F4001E8DF83C4021F06041BEF17B
:102ED000000F8DF83DC0ADF82C0004F6022ED3F89B
:102EE00008C014BF002012208DF837C018BF4FF063
:102EF000010C0646986808BF4FF0000CF140000A2C
:102F0000059E8DF836000A91996856F82E60090CD6
:102F10008DF82FC08DF835109968090E8DF8341092
:102F2000D9688DF83B10D968090A8DF83A10D9682C
:102F3000090C8DF83910DB681B0E8DF838301EB186
:102F40000AA80692B047069A42F6081305990B4460
:102F50001B681BB10AA806929847069A059941F684
:102F60001A33CB181846069319469B889BB2002B40
:102F700000F0748110AA03884FF01A0E0DF1580C5E
:102F800003F00F031046099267460EFB031E02462C
:102F90000EF1120E16465EF8060FDEF80410DEF88B
:102FA0000820DEF80C30ACE80F00DEF81000DEF888
:102FB0001410ACE803000FCF0FC697E8030086E8B3
:102FC00003009DF954305A1C00F06B829C427FF440
:102FD00025AF099AE1B20598FFF758FA06990B88D0
:102FE000013303F01F030B808B889BB2002B3FF44F
:102FF00015AF8B88013B9BB28B800FE7B2FA82F54D
:10300000203577E608401D402C401D4000401D4003
:1030100008D401040AF02002002313433FF461AEF8
:1030200000F02002002313433FF45BAE914A42F6C6
:103030001511914B6325126818F80110C2F303446F
:1030400002F40010ADF82C208DF8334000281B68E6
:103050004FEAD25014BF0024122423F060438DF8AD
:103060002E00C2F300524FF0050023FA04F3834C04
:103070000A9323688DF8302018BF01228DF837306D
:1030800008BF002223688DF82F201B0A8DF83630E8
:1030900023681B0C8DF835302268794B120E8DF8A1
:1030A00034201A688DF83B201A68120A8DF83A20ED
:1030B0001A68120C8DF839201B68724A1B0E8DF8A5
:1030C0003D108DF83C508DF838301368FFF7F6F856
:1030D000DDE90223002302F04002134340F0D981CE
:1030E000DDE90223002302F08002134340F0CD818A
:1030F0000AA94046FFF77EFC0AA8AFF300800AA8A1
:10310000AFF300800AA8AFF3008008F5F0531B6806
:10311000D90040F157815C4B00240A981B68C3F327
:103120000363DB0008331D46CDE9006704EB440E62
:1031300008EBCE0202F5F0510B685B0F012B00F09B
:1031400020810B685B0F022B00F041810B685B0F45
:10315000052B00F059810134A542E7D1DDE9006774
:10316000BFE5DDF81480494B494C18682168494A8D
:1031700041400A40002A43D041F6D04343449A8854
:1031800092B20F2A3CD89A8892B20F2A61D941F69E
:10319000D04659885D8838F8062001F00F01ADB29D
:1031A00092B2023182F0100243F82100954200F001
:1031B0001B81598841F69852374D0131424401F044
:1031C0001F0159802E689388B6B29BB20F2B3BD952
:1031D00041F698575188558838F8073001F00F01AB
:1031E000ADB29BB202EB410183F01003CE809D4251
:1031F00000F0028153882060013303F01F035380E5
:10320000224A136803431360BFF34F8F1DB0BDE81C
:10321000F08F0AA90598FFF74DFBF2E52046FFF76E
:103220004DF8E6E501218DF831109BE5FFF720F818
:10323000D9F80030044603F07F030133984292D25C
:1032400085423FF665AD8EE7938801339BB293804C
:10325000BEE79A88013292B29A8098E71F2C40F21A
:103260001C8101210D4B01FA02F21B6813430B4A2A
:103270001360D3E580401D4084401D4088401D40C0
:103280008C401D4008401D4034401D4020401D40E2
:10329000D4860020BFFF07001C401D402C401D406D
:1032A000C0F3034E089991F800C059688DF833E0D7
:1032B00000F4001E8DF83C4021F06041BEF1000F8B
:1032C0008DF83DC0ADF82C0004F6022ED3F808C0EE
:1032D00014BF002012208DF837C018BF4FF0010C2A
:1032E0000646986808BF4FF0000CF140000A059EA2
:1032F0008DF836000A91996856F82E60090C8DF801
:103300002FC08DF835109968090E8DF83410D968E2
:103310008DF83B10D968090A8DF83A10D968090C64
:103320008DF83910D968090E8DF838102EB10AA819
:1033300009920693B047099A069B42F60811059830
:103340000144096829B10AA8099206938847099A95
:10335000069B41F61A31059841180E460691898858
:1033600089B2002900F0838033884FF01A0E0DF1E6
:10337000580C10AA03F00F03674609920EFB036E68
:1033800006E60F6817F4607F3FF4E5AE41F6046C83
:103390005CF80220824213D08C464FEA4E09DEB21E
:1033A000DCF80020731CC2F3C21209EB0301964241
:1033B00001F5F061BFF4CFAE58F821209042EED174
:1033C000DDE900670AA94046FFF774FA89E441F68F
:1033D00004639B589842FFF4BEAE41F608639B58C5
:1033E00098423FF6B8AEEBE738F80620013202F01B
:1033F0001F0228F80620DCE638F80730013303F016
:103400001F0328F80730F5E60B6813F4607F3FF4DC
:10341000A2AE41F6146C41F6046994449144DCF880
:103420000030D9F80070DCF8002003403A409A429E
:10343000C6D04FEA4E0E0123A1460AE0DCF8007028
:1034400058F82640DCF8002000EA070622409642A1
:10345000B6D00A680133C2F3C212DBB201320EEBFE
:103460000306934206F5F066E8D34C4673E61F2C3C
:103470001AD901200F4900FA02F209680A430D49DE
:103480000A604FF000621A60C8E40720FEF716FFDA
:103490002EE60620FEF712FF22E62046FEF70EFF7C
:1034A000BCE4099A214696E520460693FEF706FFFE
:1034B000069BE6E72C401D4000F51C531A782DE9C9
:1034C000F04305468FB00AB901221A702B8B9BB2CC
:1034D000002B54D142F60C1341F61A3601227149E1
:1034E000EB58B0462E4403F01F005B09824041F8C0
:1034F0002320B3889BB263B335F808301A240DF14A
:10350000200E02AF03F00F03F446B94604FB036438
:10351000123454F8060F6168A268E368AEE80F0041
:1035200020696169AEE80300BCE80F00A9E80F005C
:103530009CE8030089E803009DF91C104B1C5FD038
:10354000594B0B441B011B68C3F30363082B00F0AA
:10355000878042F60C1301225449EB5803F01F00F8
:103560005B09824041F8232000212B8BB0889BB25D
:1035700080B21B0380B218430FB0BDE8F0832A4627
:103580001A2408AE02AF32F8143FB5F814E0DBB2EB
:103590000EF1010E04FB0324CEF3080E04F5817432
:1035A00054F8060F6168A268E3680FC6206900231B
:1035B00061690824A5F814E02A8BBB6092B20293DB
:1035C0007B60FB603B617B618DF8134003C61AB1E1
:1035D0002B8B013B9BB22B8308AC3E460DF1380E82
:1035E0000FCC0FC694E803003A4686E803009DF826
:1035F0001C3028460EF8313D7146FFF73DF969E76A
:10360000DFF8AC80D8F8004014F000543ED1D8F870
:103610000030DFF89C8008E0D8F80030013403F077
:103620007F03E4B201339C4293D21F4B23441B011E
:103630001B68C3F30363082BEED13A4621462846A4
:10364000FEF724FF3388013303F01F033380B38870
:103650009BB2002BE0D0B388013B9BB2B380DBE789
:103660003A46C9B22846FEF711FF35F80830013353
:1036700003F01F0325F80830B3889BB2002B3FF4FA
:1036800068AFB388013B9BB2B38062E7FEF7F0FD01
:10369000D8F80030044603F07F0301338342B8D8E2
:1036A00057E700BF80E100E008D4010400E100E03A
:1036B00000401D4010B5054C204602F02FFE20466C
:1036C000034A0449BDE8104002F002BCC086002055
:1036D00058620020C943000010B5054C204602F096
:1036E0001DFE2046034A0449BDE8104002F0F0BB2D
:1036F000C486002058620020C943000030B4029DF7
:10370000C360856080E8060030BC704710B5044691
:10371000406808B100F014FE204610BD00230A687E
:1037200070B4CE68082483609E424360C360036126
:103730004361C47202600ADD4B6800F10B0203EBC7
:10374000860553F8044BAB4202F8014FF9D18B6860
:10375000C672838070BC704710B5054C204602F0DD
:10376000DDFD2046034A0449BDE8104002F0B0BB2D
:10377000C886002058620020C9430000044B8269BB
:103780001B6840699B1A9842CCBF002001207047FB
:10379000D0D90020C0697047006A7047F8B5044668
:1037A000006AB0F1FE5F94BF80004FF0FF3000F080
:1037B000C3FDE76B266C0322A56B616AA46A866071
:1037C000C5600161446180E88400F8BD38B5C56A10
:1037D00020200C4600F0B0FD144A03462A40002A7F
:1037E00019DB002D1A60114AB8BFFF3522402D1297
:1037F000002A5D6014DB002C4FF001019A604FF04D
:103800000002B8BFFF3418461961241259619A6149
:10381000DC60DA6138BD013A62F0FF020132E0E7B4
:10382000013A62F0FF020132E5E700BFFF000080CD
:10383000C369033B012B01D908467047036B426BF8
:10384000D21A002A14D0A1EB030042F2107110B476
:1038500001FB00F31446B8BF541C03EB640101FBE9
:1038600002F3002B91FBF2F005DB5DF8044B70478F
:1038700041F2883070470138F7E700BF204B0268FB
:103880001B6870B5156904461E4E8361007900F00F
:1038900003FCB542014620461DD1FFF7C9FF23684E
:1038A00060621D69207A00F0F7FBB54201462046B0
:1038B00013D1FFF7BDFF626A40F2CE71A062131A06
:1038C00003F2E7338B420AD80023A363801848BF72
:1038D0000130401070BDA847E1E7A847EBE7A36BB4
:1038E0000133022BA363F1DDB3F5FA7F01DC002085
:1038F00070BD012203234FF0FF30E263236470BDEB
:10390000D0D90020C1180000F0B50D4DC827DFF850
:1039100034E02E680025C161866105994261069EEA
:103920004360079A089BC0F800E0C76281600663A5
:1039300042630362456285628563C5630564F0BDC9
:10394000D0D90020602B002010B5054C204602F095
:10395000E5FC2046034A0449BDE8104002F0B8BA2D
:10396000CC86002058620020C9430000034B186831
:1039700010B103681B681847704700BF187100201A
:10398000104A1149136808681268096802F07F023A
:10399000C1F3036101320431B2EB410F10D303F0E4
:1039A0007F03C0F30360053B0130A3EB4000C3B2CB
:1039B000044A106800F07F000130C01AC0B270479E
:1039C0000023F5E700401D4034401D4008B5044881
:1039D000FEF7DEFE0A20BDE8084000F0A3BB00BFF2
:1039E00044B00020A54B0022A5492DE9F04F064622
:1039F00085B01868726003900B6AB260C3F301234C
:103A0000F260326104AA134413F8043C002B00F066
:103A100059819B4942F60C1025249A4B9A4A42F64A
:103A2000151E34504FF0020CC3F8D42010248B6EB6
:103A300041F2B000954A012743F47013944D8B6610
:103A4000944B06F80EC0C2F8C4401946C2F8B4023E
:103A50002F65C2F8C840C2F8B8021A6822F00042C6
:103A60001A601A6842F0A0421A600B68894ADB01AA
:103A7000FBD589481146036843F0080303601368C7
:103A800043F0804313600B68824ADF02FBD4116865
:103A9000134641F0007111601A6812F00072FBD1F8
:103AA0007C4801687B4BCD01FBD5196818467B4CDF
:103AB00041F400311960196841F4803119601968C6
:103AC00041F480511960196841F400511960196876
:103AD00041F480011960196841F4002119601968E6
:103AE00021F408411960216841F4E021216019683E
:103AF00041F400111960196841F0806119601F6874
:103B0000196807F0807441F0A041009419600368BF
:103B10006049DC01FBD50C680023DFF8A0C10D462D
:103B200024F000545E4F18460C601C46CCF8003060
:103B30003B600B685B4B00F1010C5B494FF00009E7
:103B40000344544F01445FFA8CF01B018900DC6090
:103B50009C605C601C600C602B6803F07F03013389
:103B60009842E7D3514D4C46514B4FF00068DFF877
:103B700050C14FF0010BC5F800903D46C3F80090CE
:103B8000DCF80030DFF814A119464A4BD3F8009056
:103B9000CCF8001044EA09004149DFF82091186090
:103BA0003B681EE02B6803F07F030133B2EB930FF9
:103BB00034BF4FF080634FF08C630360DAF800305D
:103BC00013F4803318BF4FF08043CEF800302B68D9
:103BD0000134304803F07F03E4B2013322469C42B3
:103BE0001AD22B682F4803F07F032F4F2044013354
:103BF00027440001B2EB530F4FEA870ED2D3C0F82F
:103C000000802B68980028D41F2C0BFA04F22BD8C4
:103C10000B6813430B60DAE7009B3BB9036802466D
:103C200023F0805303601368D901FCD4194B196841
:103C30001A4621F0805119601368DB01FCD442F66A
:103C40000C1301221C49F35803F01F005B0982404A
:103C500041F8232005B0BDE8F08F0191FFF790FEF9
:103C600084420199B3D3CFE7A4F12003D9F800200F
:103C70000BFA03F31343C9F80030A8E7DC03002074
:103C800000C00F40006C0020FD19000000801F40A4
:103C900000841F4000401D4004401D4034401D4032
:103CA00028401D4008D401042052071048401D4000
:103CB00010401D4030401D4000E100E024401D4008
:103CC0002C401D400B6A0D4A23F47F73106843F4A7
:103CD00080730B6200283FF49CAE01F5582142F638
:103CE0001012036804315B68096811F0080FB158BD
:103CF00014BF0222002298478BE600BF18710020F3
:103D00002DE9F043614DADF5245D40F2EE28604CA5
:103D100087B02E685F4FDFF8B09104E0B3F5FA6F1B
:103D200015D801F0E1FC01F0DFFC237843B13B78CA
:103D3000DB0705D52B68D9F800209B1A0E2B06D877
:103D40002B6822789B1B002AE8D14345E9D9524CC5
:103D50000521524801AE01F041FC514800F038F90C
:103D60002046FFF73FFE204600224E49FEF7AEF9FF
:103D7000231D4D4F0FCB86E80F0042F618164B4B14
:103D800004F1140105A86E4441F60632F35100F027
:103D900037FA41F61A304FF4DB72454942F20177A7
:103DA000684400F02DFA41F6D040C82241496844E9
:103DB0000DEB070600F024FA41F6985066223E49C2
:103DC000684400F01DFA04F5F0514FF440720DF50F
:103DD000F05000F015FA04F504514FF4C0620DF5EF
:103DE000045000F00DFA04F51C530DF51C5E42F270
:103DF00004701B784FF4807230496844DBB28EF84F
:103E00000030E35DDBB2337000F0FAF942F60400F3
:103E10004FF480722A490DEB0003265842F6080041
:103E20001E6042F60816684400F0EAF942F60C11EA
:103E300042F6141042F6101242F61513A75914F860
:103E400000E066586946E35CA25842F608141D4833
:103E50006C44276042F60C146C44266042F6101441
:103E60006C44226042F614126A4482F800E042F682
:103E700015126A441370FEF761FA29681148FEF7BB
:103E800003FB0DF5245D07B0BDE8F083D0D9002019
:103E900063DA002062DA00202C8700200C3F00202B
:103EA0006462002090D00300E8D6FFFF182B0020AA
:103EB00046A20020FCA30020C4A4002030AE0020B5
:103EC00034AF002044B00020D4DA00202DE9F041C6
:103ED000324D84B008260024284641F61A3802F0F4
:103EE0001DFA28462E4A41F698572E4901F0F0FF58
:103EF0002D4B2E4D4FF480601A6841F61C3103960D
:103F0000192341F61E360290009341F69A5C019403
:103F100041F6D04EAC8241F6D243EC8241F6D44019
:103F20002C8325F808406C5241F69C51AC5305F5A2
:103F30001C5625F80E4042F2017EEC5242F60C135C
:103F40002C5242F61010EC5342F6141725F80C4090
:103F50006C52C0213470164EEC5018232E60154E52
:103F600005F80E402C50EC5535601348FFF7CCFC9B
:103F700001226421009402921A23019105210F4825
:103F8000FEF78AF80E4B0F4A1B6812680E490F485D
:103F900004B0BDE8F041FEF79BB900BFD086002019
:103FA00058620020C9430000AC6800202C87002024
:103FB000182B002018710020D4D9002018DA002016
:103FC000D0D90020A4680020A868002044B00020B8
:103FD00010B5064C82B003680222248801A95B68F0
:103FE000ADF80440984702B010BD00BF2004002087
:103FF000036810B514465B689847204610BD00BFA3
:10400000F0B506468BB0002A33D0012A08BF0A2239
:1040100051B3212500E0FDB26F1EB1FBF2F402FBAB
:104020001411C8B2092900F1370100F1300088BF2E
:10403000C8B221460AAC98BFC0B22C4404F8240C84
:104040000029E8D133B1013D0AAB2D22EDB22B445A
:1040500003F8242C336801A9C5F122023046294413
:104060005B6898470BB0F0BD302221258DF82520E4
:10407000E8E70368C9B21B6898470BB0F0BD00BF02
:10408000002903DB00230A22FFF7BABF49422D2390
:104090000A22FFF7B5BF00BF2A2817D8F8B51D4F71
:1040A00005463B78A3B91C4B5B5DFF2B21D01C065A
:1040B00021D41A4C2360236AD80704D401F014FBDE
:1040C000236AD907FAD5154B586AF8BD0020704706
:1040D000124C134E01E001F007FBA36C1B06FAD44F
:1040E000B36C13F08003F6D13B700B4B5B5DFF2B81
:1040F000DDD10020F8BD03F07F03094C2360236A63
:10410000DA0704D401F0F0FA236ADB07FAD5044B8E
:10411000586AF8BD5ADA0020E03E002000400C400A
:1041200000800C40002857D001222DE9F04F85B0C7
:1041300083462A4C2A4D2B4EDDE9028954E8003F84
:104140002868336844E800210029F7D1264FCDE9DB
:1041500002893A68D31A254A4FF47A7E0197126889
:104160000127A3FB02234FF47A72984600238B4267
:1041700008BF42452CBFC246F2460EFB00AA54E8D7
:10418000003F2A68316844E80073002BF7D101989A
:104190000068411A15484FF47A7E00680EFB02F25F
:1041A000A1FB00014FF47A70CAEB0202884600219D
:1041B000994208BF40452CBF434673461A44724596
:1041C00007D3BBF1010B0AF57A7AD8D105B0BDE867
:1041D000F08F01F089FAD2E7704700BFC0DA002003
:1041E000D0D90020CCD90020041000E0C8D900208C
:1041F00008B5FFF785FDFFF7E9FB01F075FAFAE76F
:10420000844641EA000313F003036DD1403A41D3E1
:1042100051F8043B40F8043B51F8043B40F8043BA0
:1042200051F8043B40F8043B51F8043B40F8043B90
:1042300051F8043B40F8043B51F8043B40F8043B80
:1042400051F8043B40F8043B51F8043B40F8043B70
:1042500051F8043B40F8043B51F8043B40F8043B60
:1042600051F8043B40F8043B51F8043B40F8043B50
:1042700051F8043B40F8043B51F8043B40F8043B40
:1042800051F8043B40F8043B51F8043B40F8043B30
:10429000403ABDD2303211D351F8043B40F8043BD0
:1042A00051F8043B40F8043B51F8043B40F8043B10
:1042B00051F8043B40F8043B103AEDD20C3205D3E0
:1042C00051F8043B40F8043B043AF9D2043208D0D8
:1042D000D2071CBF11F8013B00F8013B01D30B884A
:1042E00003806046704700BF082A13D38B078DD028
:1042F00010F003038AD0C3F10403D21ADB071CBFFA
:1043000011F8013B00F8013B80D331F8023B20F863
:10431000023B7BE7043AD9D3013A11F8013B00F89C
:10432000013BF9D20B7803704B7843708B78837024
:10433000604670472FF094B92FF092B92FF098B9DA
:104340002FF096B9F0B44E1E0025374600E0013537
:10435000B0FBF2F302FB130000F13704092800F16F
:104360003000E4B298BFC4B2184607F8014F002BE2
:10437000EDD14A1953704DB1013316F8014F17783A
:10438000E81A3770834202F80149F5DB0846F0BCB1
:10439000704700BF72B6EFF30583494D6B60EFF3D2
:1043A0000883484C2E4648484849494A24680068D2
:1043B000096812682961AC60E8606A619A69454CD5
:1043C000AA61DB69444FEB6100F0E6F885ED080A6D
:1043D00001F0F4FC0B234FF0FF32686219462B60AA
:1043E0004A40202102F00103013904FB03F383EA70
:1043F0005202F7D1BE4202D056F8041FF0E730490E
:104400008A62BFF34F8F354B354A19601A60BFF38C
:104410004F8FBFF36F8F334A0225334CD36E33492E
:1044200043F440533248D3662560D36923F07F03B9
:1044300043F04003D3610B6883423ED82A4A0021EF
:1044400001202C4E11604FF0FF33C2F808110C46CA
:10445000C2F800611546C2F808010746DFF8C0E05F
:10446000254E26482649274ACEF80030336003609F
:104470000B60136001E000F073F9D5F80C211A4BC2
:10448000002AF8D00134C5F80C714F2CF3D91E4A1C
:1044900002241E484FF00041C0F840415163D3F858
:1044A0000C2132B91A491B4A0A63D3F80C010028BF
:1044B000FAD0194B194A1A60FEE701F0C1F9BDE7BD
:1044C00080FF272028ED00E02CED00E034ED00E037
:1044D00038ED00E02083B8EDA4FF272070EF00E066
:1044E000A0FF272000C00F4000400840606200206D
:1044F000803DCD0B009F240084E100E088E100E0D6
:104500008CE100E090E100E000900D4000002E40C2
:1045100000800F40F100AD0B0CED00E00400FA0547
:1045200080E100E0094A08B5136820B11844084941
:10453000884202D81060184608BD2DF03DFF0C22BD
:104540004FF0FF330260184608BD00BF0063002033
:1045500000002820002070474FF0FF30704700BF58
:104560004FF4005300204B60704700BF012070479C
:104570004FF0FF30704700BF30BFFDE70078B0FA62
:1045800080F04009704700BF01230370704700BFEF
:1045900030BFFDE7FFF7FEBE12490B68114A5B070B
:1045A000FBD513681049C3F30B23104A07EE903A6A
:1045B0000B6892ED006AB8EEE77A07EE903A0C4A83
:1045C000F8EE677A0B4BD2ED006A77EE677A93EDDF
:1045D000007AB8EE477A67EE867A87EEA60A37EE5B
:1045E000400A704780810D40B8D90020C0D9002012
:1045F000C4D90020BCD90020836BF0B41BB1536830
:1046000043F40043536072B6446B5CB31C4B2260AE
:10461000D3F8B0410C4215D11A4E376804E0346823
:10462000E41BB4F5166F0BD2D3F8404144F4804438
:10463000C3F84041D3F8B851D3F840416404EED5F3
:104640000D4003D0426362B6F0BC70470C4C8260F0
:10465000C560D4F8B0311943C4F8B011426362B6F2
:10466000F0BC7047064D8260C460D5F8B031194384
:10467000C5F8B0110263426362B6F0BC704700BF78
:1046800000002E40041000E070B50646006B90B1AB
:104690000246002403E012680134012A0CD053685A
:1046A00013F08003F7D032632CB1B36B05689847E1
:1046B000013C2846F9D170BD33637363F4E700BF52
:1046C000F0B5E1B9214C22490020224B01224FF0E4
:1046D000011580260A601A46A1604E60E060C3F8AA
:1046E000BC51D3F8B0411C4D44F001048860C3F8BC
:1046F000B0412860D2F8B031002BFBD1F0BD0904E5
:10470000164B144D0126114C41F0800100221E6011
:10471000596000F5805CE26400F5005EA36400F57A
:104720004057D5F8B01100F580462A46986041F40C
:104730008031C3F80CC0C3F810E05F619E61C5F81A
:10474000B011D2F8B031002BFBD1BCE70000002043
:10475000A0DA002000002E4070D9002080DA00206E
:104760002DE9F04FB94C83B0D4F8448118F0010F13
:10477000C4F844815ED0D4F8AC31002B55D04FF052
:10478000011BDFF8EC92B24E2546DA46C4F8AC3194
:10479000B06AF26AD4F8403143F40053C4F84031AF
:1047A000D4F840319F04F5D5D5F8403123F40053B7
:1047B000C5F84031C5F8B4A1D4F8B43113F00113F1
:1047C000FAD181B240F28167C9F80030B94200F2F3
:1047D000AD80B1F5D06F80F0DE81B1F5817F00F062
:1047E000608100F2E880802900F04E81822940F04B
:1047F000DA8092B202F07F01072900F2D4808900AA
:104800009448954F0844016810063B707B7040F156
:104810000182CA0301D501233B7002218E48FFF7B4
:104820004FFFD4F8AC31002BB0D1884AD2F8BC315C
:10483000002B49D118F0400F18D0844BD3F8AC119D
:104840001A46C3F8AC11D3F8BC11C3F8BC11D2F8A6
:10485000B0417E4B002CFAD14FF0FF32C3F8B421A7
:10486000D3F8843100F032FD7C4B1C6018F0807F5F
:1048700003D07B4B1B6803B1984718F0007F03D02F
:10488000784B1B6803B1984718F0040F08D06F4BA2
:10489000D3F8843113F4007345D0734B01221A709E
:1048A0006A4BD3F8482112060BD518F0800F08D0B8
:1048B0006E490A782AB1013AD2B20A70002A00F091
:1048C000428203B0BDE8F08F6949C2F8BC31086884
:1048D000034240F0E281614A15681D40AAD02F0CC6
:1048E0000FD05B4E4FF0010997FAA7F4B4FA84F4A5
:1048F00006EBC41009FA04F44030FFF7C5FEA743E5
:10490000F2D1ADB2002D95D0514E012795FAA5F404
:10491000B4FA84F406EBC41007FA04F4FFF7B4FE0B
:10492000A543F3D186E7504A1370B9E742F2210755
:10493000B94234D067D8B1F5086F00F01E81B1F5E7
:10494000106F30D1C0F307404A4A4B4910704B4FAB
:104950004B4A0193C5F8C871C5F8CC11C5F8D021F0
:1049600000F0B6FC474A019B80210120B2645160EF
:104970001060F364C5F8BCB1D5F8B011936041F490
:104980008032C5F8B0213A4A1360D4F8B031002B18
:10499000FBD1D4F8AC31002B7FF4F8AE45E7110C15
:1049A000072900F03B81C4F8C0B1D4F8AC31002B2A
:1049B0007FF4ECAE39E740F20237B94200F0AD8047
:1049C000B1F5A06FEFD12F4A80210127F364B264C3
:1049D00017605160C5F8BCB1D5F8B011936041F4CF
:1049E0008033C5F8B031D4F8B031002BFBD1030CC3
:1049F0005B0643F08073C5F85431D4F8AC31002B1A
:104A00007FF4C4AE11E742F22123994279D042F2F9
:104A100021339942C7D11B4B802200210120B3646E
:104A200018605A60F164C4F8BCB1D4F8B021996040
:104A300042F48033C4F8B031D4F8B031002BFBD14C
:104A4000D4F8AC31002B7FF4A1AEEEE600002E408E
:104A500000000020C0012E4080D9002074D9002021
:104A600048DA00204CDA002064DA002065DA002001
:104A700070D9002063DA0020C80002000200CC00D8
:104A80000200C800A0DA0020B64A022110461370C6
:104A90005370FFF715FED4F8AC31002B7FF476AEDF
:104AA000C3E692B202F07F03072B3FF67CAF12F011
:104AB000800F4FEA8303AC4A4FF000014FF0010032
:104AC0001A44136814BF23F4803323F001031360E6
:104AD0008022A64BF164B36418605A60C4F8BCB17C
:104AE000D4F8B021996042F48033C4F8B031D4F8DE
:104AF000B031002BFBD1D4F8AC31002B7FF446AEA3
:104B000093E692B2002A86D1994BC0F30740994AA6
:104B10001968994B116018707DE792B202F07F031B
:104B2000072B3FF640AF12F0800F4FEA83038E4A07
:104B30004FF000014FF001001A44136814BF43F412
:104B4000803343F0010313608022884BF164B36427
:104B500018605A60C4F8BCB1D4F8B021996042F42E
:104B60008033C4F8B031D4F8B031002BFBD1D4F885
:104B7000AC31002B7FF40AAE57E6804A0121794B15
:104B8000127818461A70FFF79BFDD4F8AC31002B51
:104B90007FF4FCAD49E67A4B596800293FF403AF36
:104BA000000C1FFA82FE04E00C33596800293FF420
:104BB000FAAE1F888742F7D15F887745F4D1070A9C
:104BC000032F00F0BA801B89120C934228BF1346B2
:104BD000B0F5007F00F0A280B0F5E06F00F08B80B0
:104BE000684F1A4601933846FFF70AFB019B27F0EE
:104BF0001F021F44BFF34F8F63490A602032974260
:104C0000FAD8BFF34F8FBFF36F8F5E481946FFF797
:104C100057FD06E6CB077FF500AEFCE55B4F4FF096
:104C2000010EF3605A495B4B3860C3F800E05960ED
:104C3000B3605949D5F8B0017A6001F5805740EA70
:104C40000E02996001F5005E01F5405001F58041CA
:104C5000C5F8B021DF60C3F810E058619961D4F85D
:104C6000B031002BFBD1414A012048F28001F364AE
:104C700010604FF48030B2645160C5F8BCB1D5F813
:104C8000B011936041EA0003C5F8B031C9F80000E3
:104C9000D4F8B031002BFBD1C3E53C4842F22104EB
:104CA000002605880E60A54240687FF414AE81B2EC
:104CB00000297FF410AE3849384C03C90D0C862802
:104CC0002060A180A5717FF406AE72B634480178E9
:104CD00041F004010170D2F84811080606D441F0F1
:104CE00080018020C2F84401C2F8481162B62D4A02
:104CF00050211170EFE52C481A46224F90F800E041
:104D00002A492B480193BEF1000F08BF01463846DF
:104D1000FFF776FA0722019B7A7068E722481A4665
:104D20002349077821480193002F08BF0146154801
:104D3000FFF766FA134F019B59E7120C0B78934269
:104D400028BF134648E716490A7802F0FB020A70AA
:104D50002AB9D3F8482122F08002C3F848213BF059
:104D60003BFD00BF80D90020C0012E40A0DA00200A
:104D7000D0D90020D4DA002062DA002063DA0020E3
:104D8000605D00200000202070EF00E040700020F7
:104D90008000070080DA002068D90020D8DA0020DF
:104DA0005EDA002065DA002064DA0020CC1E0060A4
:104DB000181F0060002AA0F102022DE9F04714BF7D
:104DC00000274FF00057022A01D9BDE8F0874FEACB
:104DD000C019DFF840A00D4604460AEB0906002181
:104DE0004022984630462FF061F8012047EA0541FD
:104DF0004AF80910C6F83880B060B8F1000FE4D066
:104E0000034BA0401C6820431860BDE8F08700BF3A
:104E100074D9002000000020002AA0F102022DE930
:104E2000F04714BF00274FF00057022A01D9BDE810
:104E3000F0874022C501DFF84490884615440021E0
:104E400004461E4609EB050A50462FF02FF80122B2
:104E500047EA084149F80510CAF83860CAF808203E
:104E6000002EE4D004F11000034B82401868024386
:104E70001A60BDE8F08700BF74D900200000002050
:104E800012048160C36142F08002F0B442600127E5
:104E900001F5805601F5005501F5405401F58042B9
:104EA0000760C660056144618261F0BC704700BF65
:104EB000831E022B00D97047064B0A4630B400F11E
:104EC0001004012503EBC01005FA04F1403030BC9A
:104ED000FFF792BB00000020831E022B00D9704711
:104EE00010B4054B01240A4604FA00F103EBC0108C
:104EF0005DF8044BFFF780BB00000020406870475E
:104F0000124A134BD2F8200220F07F40984210B58D
:104F100084B002D800EB800040000E4C01A90A22A8
:104F2000FFF710FA01A90023204611F8012B0133E5
:104F30003AB10A2B20F8022FF7D11623237004B0C0
:104F400010BD5B00DBB2237004B010BD00441F40F5
:104F50007F969800F068002000F0E0BA00F0B2BA46
:104F600000F016BB00F0D0BA00F06CBB00F042BB02
:104F70000846114600F032BB084600F019BB00BFDE
:104F8000F8B514494FF40037134D034601EB4024A4
:104F9000124E134A05EB4015214617602846328809
:104FA000FFF76EFF318824F01F032144BFF34F8FBA
:104FB0000C4A136020339942FBD8BFF34F8FBFF3E5
:104FC0006F8F03202946FFF787FF074B4FF400320E
:104FD0001A60F8BD60002020C06E002050DA00206A
:104FE0008CE100E05CEF00E00CE100E0244A436863
:104FF0002DE9F041C3F30E431488C569E41A002C6F
:1050000038DD2049204A0B781278DBB21F48204E49
:10501000934207D010F8038036F81870C7F5007275
:10502000944212D9013300221A4F082B26F815405A
:1050300027F81520184E94BFDAB213460A7032686A
:10504000C55414443460BDE8F081144B07EB48208C
:105050002246274403EB45211844FFF7D1F80E4AB6
:10506000284626F8187013681C441460BDE8F04107
:10507000FFF786BF2846BDE8F041FFF781BF00BFBC
:1050800050DA00205CDA00205DDA0020ACD9002084
:105090008CD900209CD9002088D9002060002020D5
:1050A0001E4B1A785AB902F0FF031D4A127832B12A
:1050B0002DE9F0411B4D2A8812B9BDE8F0817047F7
:1050C000194EC2F50068194F31784246184C07EB6B
:1050D000411704EBC12438462146FFF7D1FE08EB07
:1050E000040224F01F01BFF34F8F124B19602031CF
:1050F0008A42FBD8BFF34F8FBFF36F8F042039462E
:10510000FFF7D6FE3378084A0133DBB2032B88BFA2
:105110000023137000232B80BDE8F08161DA0020AA
:1051200063DA002052DA002060DA0020C06F00202D
:105130006010202070EF00E02DE9F04F85B0029064
:105140000091002900F0AB800023564DDFF87481F8
:10515000DFF860A1544FDFF870B101930122534B87
:105160002A701C78524AB8F8003002EB441923BB6D
:105170001E461C464846FFF7C1FE10F080007ED058
:10518000BFF34F8F00229AF800304A492A7004B9C1
:105190003E68002B5AD13B689B1B782B79D89BF833
:1051A0000030002B52D000F09FFA0124B8F80030F4
:1051B0002C70002BDED03D4A14781A46C3F50060EF
:1051C000E402009E3C4920449642084442D30C44E9
:1051D0000299FFF715F8002321464FF40062484674
:1051E000FFF74EFE24F01F0304F50064BFF34F8F5A
:1051F000324A136020339C42FAD8BFF34F8FBFF37B
:105200006F8F04204946FFF753FE284B274A1B782F
:10521000009801332A49DBB2032B88BF00231370A7
:105220000022B8F80030A8F80020C01A00900198B9
:1052300018440190029818440290C1F88420BFF3EA
:105240004F8F00232B70009B002B87D1019805B056
:10525000BDE8F08F009C0393019B224602992344F2
:105260000193FEF7CDFF039B4FF04041144A00200D
:105270001B1B0090A8F80030C2F88410DFE74FF441
:1052800000630A4A8AF8000014781A46A8F8003029
:1052900096E7012301980B7005B0BDE8F08F0098E8
:1052A000D5E700BF61DA0020D0D9002060DA002005
:1052B000C06F00205FDA00206010202070EF00E057
:1052C00000002E4052DA002063DA0020704700BF51
:1052D000314B2DE9F0411B78304F002B54D04FF467
:1052E0000073DFF8EC803B80A8F8003000218022BA
:1052F0002B480D462B4E2EF0D9FD2B4C2B4B29461F
:105300004FF480722A4825702C461D802EF0CEFD69
:1053100035602B4675602A46B560F5602549264EF6
:105320002648DFF8B0E00D701021057002203560CE
:105330007560B560F560CEF80050FFF76DFDB8F808
:1053400000102A461E4B0320FFF734FD2B463988F8
:1053500001220420FFF760FD20460134FFF710FE14
:10536000082CF9D1174B4A2217480021174C04602A
:10537000C3F88410C3F88020D3F8482142F080722B
:10538000C3F84821BDE8F0814023DFF844803B802A
:10539000A8F80030AAE700BF64DA002054DA002041
:1053A000C06F00208CD9002060DA002052DA002083
:1053B000C06E00205CDA00209CD900205DDA00205D
:1053C0007D30000000002E4048DA0020313100001E
:1053D00050DA002088D90020314B4FF400322DE9FB
:1053E000F04F1A6083B02F4B89461C78002953D0A8
:1053F0002D4BE4B21B789C4250D082460027DFF848
:10540000C0B00134294BC7EB09085046092C019361
:10541000274B28BF00241D5D244B33F815E0254B96
:105420000EEB452133F81560234BCEEB06061944ED
:10543000B0453246374419D20EEB45214246194455
:10544000FEF7DEFE019BDBF80010484633F815201E
:10545000C8EB01019044CBF8001023F81580174BDE
:105460004FF400321A6003B0BDE8F08FFEF7C8FEBB
:10547000DBF80020E3B22846921BB244CBF80020B0
:10548000084A1370FFF77CFDB94503D9064B1B781A
:105490009C42B6D13846E2E70846E0E70020DEE766
:1054A0008CE100E05DDA00205CDA00209CD900206D
:1054B000ACD900208CD90020600020200CE100E055
:1054C00088D900200B4B0C4A1B781278DBB2934230
:1054D0000DD0013309480A4A092B0A4928BF002385
:1054E000C35C31F8131002EB4323585C70474FF054
:1054F000FF3070475DDA00205CDA0020ACD9002074
:10550000600020209CD90020034B10B51C680CB90A
:1055100000F0EAF8204610BD88D900202DE9F84FA8
:10552000154E164D34782B78E4B29C4221D0DFF82A
:105530005490DFF854B0DFF85480114F0134082C38
:105540005FFA84FA01D90024A24619F80410DBF8A6
:10555000002038F81130084637F811105B1AD31ABA
:10556000CBF80030FFF70CFD86F800A02B789C42AA
:10557000E4D1BDE8F88F00BF5DDA00205CDA0020DE
:105580009CD90020ACD9002088D900208CD90020DB
:1055900000B583B001210DF10700FFF71DFF20B119
:1055A0009DF8070003B05DF804FB4FF0FF30F9E70A
:1055B000094B00B583B01B788DF8070023B903F0C1
:1055C000FF0003B05DF804FB01210DF10700FFF7B8
:1055D000B3FD03B05DF804FB63DA0020044B1B78D5
:1055E00003F0FF020BB1FFF7A7BD1046704700BFE5
:1055F00063DA00202DE9F0410024DFF84480012324
:105600000D4D27460D4E88F800303378284620355A
:10561000A34204F1010405D0FFF770FC030658BF54
:1056200007F50067042CF0D1BFF34F8F00233846F5
:1056300088F80030BDE8F081C06F002060DA0020FB
:1056400061DA00202DE9F843204B1B7813B1204D7F
:105650002A880AB9BDE8F883DFF88880C2F50069B6
:105660001C4E4FF0010E98F800104A461A4C0023C9
:1056700006EB4116194F04EBC124304687F800E0D1
:105680002146FFF7FDFB09EB040224F01F01BFF3E5
:105690004F8F134B196020318A42FBD8BFF34F8FD5
:1056A000BFF36F8F04203146FFF702FC98F80030FB
:1056B0000C4A0133DBB2032B88BF00231370002395
:1056C0002B80BFF34F8F3B70BDE8F88363DA002077
:1056D00052DA0020C06F00206010202061DA002024
:1056E00070EF00E060DA00202DE9F843324E3378A5
:1056F00093B1324F3A787AB90122D9073A7037D448
:105700009A0719D400225B073A7005D52C4B1A680A
:1057100012B1EFF305820AB1BDE8F883EFF3108010
:1057200072B61A681AB1274C217800292FD00028A8
:10573000F2D162B6BDE8F883DFF8948098F80020D3
:10574000002ADFD00024DFF88C9005E0013498F8BF
:105750000030E4B2A34213D959F824502B682846EC
:105760001B6998470028F1D06B699B689847EDE763
:10577000FFF7CAFED0B9144B1B781BB93378BFE7CB
:105780003378BFE7337803F0FE033370B8E70126C0
:10579000556926701D6065B1A96100B962B6002522
:1057A00093681046557798472570B5E700F01EFBC3
:1057B000E1E7064B1D60F0E70769002058DA00209A
:1057C0008C7F002056DA00206E1F0060987F00203A
:1057D00057DA00209C7F002070B5EFF3108172B67D
:1057E0000C4C23688BB10C4E00255A6922607AB1AB
:1057F000956101B962B65D7718469B689847EFF3EB
:10580000108172B62368002BEFD101B962B670BD6A
:105810003260EEE7947F0020907F0020FFF7DCBF2E
:10582000044A054B1168054A196013680133136077
:10583000704700BF041000E0CCD90020D0D9002070
:10584000964A974B90422DE9F043964CD3F814E0DA
:105850009969E6681CD9944B984240F21581934BA4
:1058600040F22765924F0344924C1A0AA7FB02327A
:10587000D30903EB830303EB830202F2E243AB425F
:1058800028BF2B46A3F54873A4FB0335ED0804E0BD
:10589000894DA84294BF06250E25814A06F01F07B0
:1058A000D2F88030AF4243F0C003C2F880300AD251
:1058B0007C4B26F01F061A462E43DE601368002B31
:1058C000FCDA06F01F071EF0007331D17B4C7C4AD6
:1058D000D4F810C014460CEA0202A2420ABF4FF0EC
:1058E000C0534FF4805200228EEA030414F0605F2C
:1058F00008D02EF0605E03F06053694C43EA0E0E50
:10590000C4F814E081EA020313F4405F08D0644B4A
:1059100021F4405111431A469961936C1C07FCD441
:105920004EF0007E5E4AC2F814E0936C9906FCD4F7
:105930000121644C0A4601FB02F300FB03F3A3427E
:1059400009D8072A00F29580013201FB02F300FB1F
:1059500003F3A342F5D95C485C4C1844A4FB000354
:105960001B0D6C2B00F28B80352B00F28F80DFF843
:10597000888136235648DFF844C1564CDCF8009045
:10598000B0FBF2F009EA04044445B0FBF1F00BD09F
:1059900043F400534FF480586446CCF80080CCF8B0
:1059A00000302368002BFCDADFF8F4C0013ADCF8A1
:1059B000103003F00703934207D002F00702644659
:1059C000CCF81020A36CDB03FCD4013989028EEAE9
:1059D000010313F4E05F0CD0314B2EF4E05E01F4D0
:1059E000E0511A4641EA0E0EC3F814E0936C990791
:1059F000FCD4394B39490344DB09A1FB0331090BC2
:105A0000042928BF04214B1E1B028EEA030212F454
:105A1000407F07D02EF4407E03F44073204A43EACF
:105A20000E0353611E4B5C691A4624F000745C61DE
:105A3000936C9B06FCD42A4B4FF0FF32294CBD429D
:105A4000A3FB00E320604FEA9343274CB2FBF3F340
:105A5000B0FBF1F1254A2160136008D2114B26F00A
:105A60001F061A462E43DE601368002BFCDABDE8E1
:105A7000F08304293FF66FAF013101225BE7DFF8C5
:105A80007C806C231A4876E7122506E71948DFF870
:105A9000708000FB03F043EA08086CE700A4781F5D
:105AA00000C00F40000008400046C32300BA3CDCA1
:105AB00023B24C001F85EB5100366E0100800D4073
:105AC00040300080FFB19F26808D5B00819F5E1675
:105AD00000B29F267F3001807FD1F0089F10E50043
:105AE00083DE1B43606200205C620020C8D9002076
:105AF00000643F4D001BB700362000806C20008002
:105B000000200080A4484FF00F0CA44B826F42F499
:105B10007F02F0B582670025D0F880204FF47046F0
:105B20009F4C4FF4604E29464FF4806714432A4639
:105B3000C0F88040A3F88C6148F2B826A3F88EC163
:105B4000A3F89051B3F8880180B240F0F000A3F8B8
:105B5000880101EB4100914B0131002540011C46B9
:105B600004290344A3F804E0DF805A841A865A808B
:105B70005A81DE815A82DA825A83DA83E9D1B4F813
:105B800088014FF00F0C874B4FF4704680B22946C6
:105B90004FF460472A4640EA0C004FF4806EA4F8A8
:105BA0008801B4F8880180B240F47060A4F88801DC
:105BB000A3F88C6148F2B826A3F88EC1A3F89051DF
:105BC000B3F8880180B240F0F000A3F8880101EB3F
:105BD0004100744B0131002540011C460429034457
:105BE0009F80A3F806E05A841A865A805A81DE8183
:105BF0005A82DA825A83DA83E9D1B4F888014FF005
:105C00000F0C694B4FF4704680B229464FF4604741
:105C10002A4640EA0C004FF4806EA4F88801B4F8DC
:105C2000880180B240F47060A4F88801A3F88C6108
:105C300048F2B826A3F88EC1A3F89051B3F88801B2
:105C400080B240F0F000A3F8880101EB4100564B10
:105C50000131002540011C46042903449F80A3F81C
:105C600006E05A841A865A805A81DE815A82DA8284
:105C70005A83DA83E9D1B4F888014FF00F0C4B4B0B
:105C80004FF4704780B229464FF460462A4640EAF6
:105C90000C004FF4806EA4F88801B4F8880180B23B
:105CA00040F47060A4F88801A3F88C7148F2B8271A
:105CB000A3F88EC1A3F89051B3F8880180B240F0E8
:105CC000F000A3F8880101EB4100384B013140019D
:105CD0001C46042903449E80A3F806E05A841A86D1
:105CE0005A805A81DF815A82DA825A83DA83EAD172
:105CF000B4F888310F27002241F201069BB245F625
:105D0000C05E114643F226053B43A4F88831B4F83F
:105D100088319BB243F47063A4F888315001244B5E
:105D200001320344042A99815981DF819E82A3F8BC
:105D300006E0198019829D81F0D100220F2741F2DF
:105D4000010645F6C055114643F226045001194B91
:105D500001320344042A99815981DF819E82DD80CA
:105D6000198019829C81F1D100220F2741F201068E
:105D700045F6C055114643F2260450010E4B013240
:105D80000344042A99815981DF819E82DD80198034
:105D900019829C81F1D1F0BD00C00F4000C03D4090
:105DA000000003FC00003E4000403E4000803E40BA
:105DB00000C01D4000001E4000401E400A4B30B491
:105DC000586A1C46996A626AA36A994208BF90425F
:105DD000104619460CBF01250025002DF3D0D90B24
:105DE00030BC41EA4240704700400D40704700BF60
:105DF00008B503684268BBB17AB1104BA3FB02132C
:105E0000DB0803EB4303B2EB830303D0D21A4260F7
:105E1000F02A02D90123184608BD2CF0CDFA1C2225
:105E200000230260184608BD044BA3FB0213DB08E5
:105E300003EB4303B2EB8303E8D1E9E7ABAAAAAAD9
:105E400070B5044600283AD019B1B2FA82F56D094E
:105E5000FDB1206808B1626832B92CF0ADFA1623A2
:105E600000220360104670BD1849A1FB0231C90829
:105E700001EB4101B2EB8101EFD1A3680BB12EF030
:105E800015F800230122236010466360A360E360DD
:105E900070BD1E46049B80E80600C360FFF7A8FFA4
:105EA00002460028DED016B90122104670BD94E8E3
:105EB0000500A66029462DF0F9FF0122D2E72CF05B
:105EC0007BFA162322460360CCE700BFABAAAAAA3E
:105ED0000B46014618462CF069BA00BF2DE9F04F79
:105EE000DFF86C83CA4DD8F80020DFF86893C94BFF
:105EF000C5F80090002483B0D2F808A06C6001229D
:105F000005F11C00AC60EC602C616C61AC61C24FAF
:105F10001A7015F07FFFD8F80030C7F800905B6862
:105F2000BE4AC5F820A007F11C004FF0FF3A7C6084
:105F3000BC60FC603C617C61BC6101932A600092A2
:105F4000C5F824A015F066FF019BDFF80CB3B44E32
:105F5000009A3B62D8F800303A60C7F824A0B14FED
:105F6000C6F80090DB687460ABF1040906F11C0010
:105F7000B460F46034617461B4610192009315F00F
:105F800049FF019A009BC6F824A0584607F1140A5D
:105F90003260336200F002FA29465846C9F874406C
:105FA00089F8784089F87940C9F87C40C9F8804080
:105FB000C9F88440C9F88840C9F804A04BF8047CAB
:105FC00011F040FB984D284600F0E8F9974B45F852
:105FD000083CA5F1080403F1140200232846A2603E
:105FE0008D49A36784F87C3084F87D30C4F8803014
:105FF000C4F88430C4F88830C4F88C30636011F081
:1060000021FB8B4D2E1F284600F0C8F9002328469F
:106010008349C6F804A0736786F8783086F879302B
:10602000F367C6F88030C6F88430C6F8883045F883
:10603000047C11F007FBDFF824B2ABF104055846ED
:1060400000F0ACF9002358467549C5F804A06B6709
:1060500085F8783085F87930EB67C5F88030C5F879
:106060008430C5F888304BF8047C11F0EBFAD8F88E
:10607000003032696F4DC4F87890C6F87490D3F848
:1060800008906D4B6D4FDFF8D8B1DFF8D8A1002430
:1060900042F40052326185E8180005F11C00AC6042
:1060A000EC602C616C61AC6115F0B4FED8F8003086
:1060B000C5F820905968604BBC6087E8180007F16C
:1060C0001C00FC603C617C61BC614FF0FF395C4EA0
:1060D0000091C5F800B0C5F8249015F09BFED8F8E3
:1060E0000020554BD2680099DFF87C81B46086E8C7
:1060F000180006F11C00F46034617461B461396207
:10610000C7F800B0C7F824900092AAF1040715F070
:1061100081FE009A3262C6F800B0C6F8249050465C
:1061200008F1140600F03AF9294650467C67BC672E
:1061300087F87C40C7F88040C7F88440C7F888409B
:10614000C7F88C407E604AF8048C11F0D3FA3D4CBD
:10615000204600F023F93C4B44F8083CA4F1080524
:1061600003F1140200233549AA602046AB67EB67B0
:1061700085F88030C5F88430C5F88830C5F88C3093
:10618000C5F890306B6011F0B5FADFF8E090A9F136
:106190000404484600F002F9002348462849666096
:1061A0006367A36784F87C30C4F88030C4F8843017
:1061B000C4F88830C4F88C3049F8048C11F09AFA8D
:1061C000DFF8ACA0AAF10409504600F0E7F800237C
:1061D00050461B49C9F80460C9F87430C9F87830D2
:1061E00089F87C30C9F88030C9F88430C9F8883023
:1061F000C9F88C304AF8048C11F07CFA13492369F1
:106200000A68AF67013243F40053002032E000BF58
:106210000C80002006690020BC7F0020802C00201C
:10622000E47F0020F833002050820020D03300208B
:10623000DC82002084800020003600203480002092
:106240005C800020848400206035002014820020BF
:1062500080680020C0350020F4830020688300207F
:10626000C02C0020348600208835002014850020B2
:10627000A485002067670A60236103B0BDE8F08F42
:106280001C4BC9F804301C4800F0DEF813F076FD12
:106290001A4BC9F804301A4800F0D6F813F06EFD16
:1062A000164B6360174800F0CFF813F067FD134BEF
:1062B000AB60154800F0C8F813F060FD0F4B7B6031
:1062C000124800F0C1F813F059FD0A4B6B601048FA
:1062D00000F0BAF813F052FD064B73600D4800F061
:1062E000B3F813F04BFD034BA3600B4800F0ACF880
:1062F00013F044FD243B0020F4830020343B0020B5
:10630000A485002014850020848400203486002089
:1063100068830020DC82002050820020054A136838
:10632000591C10B5044611600BB9FFF7D7FD204684
:1063300010BD00BF14820020114A1368591E022BA1
:1063400010B50446116001D0204610BD0D4811F073
:1063500083FA0D4811F080FA0C4811F07DFA0C48D0
:1063600011F0C0FA0B4811F0BDFA0B4811F0BAFA5F
:10637000204610BD12F026FC12F06AFCE4E700BFD4
:1063800014820020F0830020D88200206483002043
:106390003086002010850020A08500200F4B10B50E
:1063A00004460360002343608360C360036143616C
:1063B0008361C361036200F1240104F16C022C309B
:1063C00040F8083C40F8043C08309042F8D10823DB
:1063D000A166636615F01EFD204610BD083A002038
:1063E00070B5846954B105460E466368A2682946B3
:1063F000304698472468002CF7D170BD70BD12F06C
:10640000E1FB12F025FCF5E7013101D013F0B6FCF9
:1064100012F008FB38B50546806988B1C3685A1E7A
:10642000C2606BB90468FDF789FF4CB1E3685A1E7E
:10643000E2602BB920460468FDF780FF002CF5D1FF
:106440000023AB6138BD00BF0C4B10B500210446E2
:106450000360FFF7C5FF2046FFF7DCFFA06E04F1E5
:106460002403984204D008B1FDF76AFF0023A36615
:1064700004F16C0014F02CF8204610BD083A0020FE
:1064800010B50446FFF7E0FF2046FDF757FF204612
:1064900010BD00BF0846704710B5064A064B0260A3
:1064A00000220446426040F8083FFFF7CDFF204637
:1064B00010BD00BFD0330020243B002003680849F2
:1064C00053F80C2C70B584182346064E86500025D0
:1064D000656043F8081F1846FFF7B6FF204670BDF9
:1064E000243B0020D033002010B5074A074B026040
:1064F00000220446426040F8083FFFF7A5FF20460F
:10650000FDF71CFF204610BDD0330020243B0020A7
:1065100003680A4953F80C2C70B584182346084EBA
:1065200086500025656043F8081F1846FFF78CFF6A
:106530002046FDF703FF204670BD00BF243B00202E
:10654000D033002010B5064A064B026000220446F4
:10655000426040F8083FFFF777FF204610BD00BFBC
:1065600060350020343B00200368084953F80C2CA8
:1065700070B584182346064E86500025656043F8A2
:10658000081F1846FFF760FF204670BD343B00200F
:106590006035002010B5074A074B02600022044610
:1065A000426040F8083FFFF74FFF2046FDF7C6FE68
:1065B000204610BD60350020343B002003680A49A6
:1065C00053F80C2C70B584182346084E86500025CD
:1065D000656043F8081F1846FFF736FF2046FDF7B1
:1065E000ADFE204670BD00BF343B0020603500206A
:1065F00010B5044B044640F81C3B13F069FF2046DD
:1066000010BD00BFC035002010B5054B044640F852
:106610001C3B13F05DFF2046FDF790FE204610BDA9
:10662000C035002010B5044B044640F81C3B13F065
:106630004FFF204610BD00BF0036002010B5054BAF
:10664000044640F81C3B13F043FF2046FDF776FE5E
:10665000204610BD0036002010B50446006A2CF01C
:1066600073FE606210BD00BF10B50446006A2CF0D6
:106670006BFE216ABDE8104033F0B4B84A1C10B577
:10668000044607D00846216A33F0ACF84FF0FF33D8
:10669000636210BD406A431CF5D1F7E7006A2BF036
:1066A0008DBF00BF006A2BF089BF00BFF8B5069B05
:1066B00004464FF0FF3600204FF0FF370D46C4E987
:1066C00000671146A060E0607BB1012B0CBF012286
:1066D0000222286A2CF064FA28B9286A2CF0E0FB20
:1066E000C117C4E900012046F8BD1A46F1E700BF12
:1066F000F8B5069B04464FF0FF3600204FF0FF37F9
:106700000D46C4E900671146A060E0607BB1012B33
:106710000CBF01220222286A2CF042FA28B9286A0A
:106720002CF0BEFBC117C4E900012046F8BD1A4693
:10673000F1E700BF10B50446006A2CF023FE60624A
:1067400010BD00BF2DE9F04106467AB188461746D4
:106750000D1F002404E00134A74245F8040F0CD0BB
:10676000306A2CF00FFE431CF5D134B94FF0FF33E3
:10677000002473622046BDE8F08104F18043013BB0
:10678000204658F823307362BDE8F08110B5044606
:10679000006A2CF0F7FD216ABDE8104033F064B8C0
:1067A0004A1C10B5044607D00846216A33F05CF84D
:1067B0004FF0FF33636210BD406A431CF5D14FF0C8
:1067C000FF33636210BD00BFF8B516467AB10746C5
:1067D0000D46002402E00134A64206D0396A55F87D
:1067E000040B2DF0FDFB0130F5D12046F8BD144619
:1067F000FBE700BF10B40C46036A012120465DF898
:10680000044B2CF091BD00BF38B5036A0C46054619
:10681000084601212CF07EF80028CABF24184FF04A
:10682000FF3314F8013C6B6238BD00BF08B54B1C48
:1068300006D00B46016A1846BDE808402DF0D0BBD3
:10684000006A2BF0BBFE003018BF0120404208BD9B
:1068500008B54B1C06D00B46016A1846BDE8084037
:106860002DF098BB006A2BF0A9FE003018BF012064
:10687000404208BD82B0F0B583B008AC84E80C009B
:106880000B68144F1E69099BBE4204461CD10D467D
:1068900096464FF0FF3600224FF0FF37C0E9006701
:1068A0008260C2607146286A2CF07AF928B12046CD
:1068B00003B0BDE8F04002B07047286A2CF0F0FA4F
:1068C000C117C4E90001F2E70C9F00258DE8A00084
:1068D000B047ECE73D47000082B0F0B583B008ACAC
:1068E00084E80C000B68144F1E69099BBE420446E5
:1068F0001CD10D4696464FF0FF3600224FF0FF3771
:10690000C0E900678260C2607146286A2CF048F9CD
:1069100028B1204603B0BDE8F04002B07047286AB5
:106920002CF0BEFAC117C4E90001F2E70C9F002564
:106930008DE8A000B047ECE781470000836810B401
:10694000002B03F1FF34846002DD5DF8044B7047D7
:106950005DF8044B11F0B6BA08B5042013F0D2F973
:10696000024B0360024A034912F06EFA103B00200A
:10697000C57B0100AC16002008B5042013F0C2F955
:10698000024B0360024A034912F05EFAF439002018
:10699000A57F0100E815002038B50546082013F052
:1069A000B1F92946044600F097F82046044A054903
:1069B00012F04AFA204613F0BDF913F0DFF900BFD8
:1069C0002D9F0100AC13002038B50546082013F0B8
:1069D00099F92946044600F093F82046044A0549EF
:1069E00012F032FA204613F0A5F913F0C7F900BFF0
:1069F000819F0100C01300200FB4F0B583B000AF39
:106A000007F1200454F8046B30462FF091F800F29F
:106A10000E2323F00703ADEB030D00F500712346B1
:106A2000324668467C6011F03FFE082013F06AF998
:106A30006946044600F06EF82046044A044912F004
:106A400003FA204613F076F913F098F9B19F01008C
:106A5000CC13002038B50546082013F053F9294619
:106A6000044600F061F82046044A054912F0ECF9AA
:106A7000204613F05FF913F081F900BFE19F010098
:106A80001C14002030B5054685B0082013F03AF9F3
:106A90002946044601AA03A811F00AFD03A92046CD
:106AA00015F07EFC0398094B0C38984204D120461F
:106AB000074A084912F0C8F902A9FFF73FFFF6E7B5
:106AC000204613F037F913F059F900BFBC800020BD
:106AD000DDA30100C812002010B5084B82B00446A7
:106AE00001AA40F8043B11F0E3FC204602B010BDBF
:106AF000204613F037F813F041F900BF0C350020A1
:106B000010B50446FFF7E8FF014B2360204610BD97
:106B10002035002010B50446FFF7DEFF014B23604F
:106B2000204610BD3435002010B5084B82B0044615
:106B300001AA40F8043B11F0BBFC204602B010BD96
:106B4000204613F00FF813F019F900BFAC35002000
:106B500010B582B001AB044611F09CFC204602B097
:106B600010BD00BF83685869704700BF836898698B
:106B7000704700BF8368586B704700BF83689B6B8A
:106B80000020DAB262F30700C3F3072262F30F209A
:106B9000C3F3074262F317401B0E63F31F6082B01A
:106BA00002B070478368DB6B0020DAB262F3070043
:106BB000C3F3072262F30F20C3F3074262F31740C7
:106BC0001B0E63F31F6082B002B070478368586980
:106BD000704700BF83689869704700BF8368586B2F
:106BE000704700BF83689B6B0020DAB262F3070036
:106BF000C3F3072262F30F20C3F3074262F3174087
:106C00001B0E63F31F6082B002B070478368DB6BBA
:106C10000020DAB262F30700C3F3072262F30F2009
:106C2000C3F3074262F317401B0E63F31F6082B089
:106C300002B070478368586A704700BF8368986ADB
